:100000000C9486020C94CD020C94CD020C94CD027B
:100010000C94CD020C94CD020C94CD020C94CD0224
:100020000C94CD020C94CD020C9469220C943B23C9
:100030000C94031C0C94CD020C94CD020C94CD02B4
:100040000C94CD020C94CD020C94CD020C94CD02F4
:100050000C94CD020C945C1C0C94CD020C94CD023B
:100060000C94CD020C94CD020C94CD020C94CD02D4
:100070000C94CD020C94CD020C94CD020C94CD02C4
:100080000C94CD020C94CD020C94CD020C94CD02B4
:100090000C94CD020C94CD020C94CD020C94CD02A4
:1000A0000C94CD020C94CD020C94CD026511651117
:1000B00097119711DD11FB111B131B1306129B12D5
:1000C000AC12AC120B131B131B131413C913C9135B
:1000D000DB13DB13D213DB13DB13DB13C913C913DD
:1000E000D713DB13DB13D713A823CF23C724CF23C6
:1000F000C7241B243E24C7249524A4240000000008
:1001000000000000000000000000000000000000EF
:1001100000000000000000002B0014001A0008007E
:1001200015001700000000001C0018000C00120051
:1001300013004C00E40004001600070009000A0048
:10014000000000000B000D000E000F0034002D0019
:1001500028621D001B0006001900050000000000B9
:1001600011001000360037003300DA5C0000000098
:100170000000E200E700000000000000000029008D
:1001800000000000000000000000000002512A00F2
:100190000000000000000000000000002C000151E1
:1001A000000000000000000000000000000000004F
:1001B000000000000000000000000000000000003F
:1001C000290000001F0200002102000000000000C2
:1001D00000000000000000000000010001001E00FF
:1001E0001F00200021002200000000002300240046
:1001F000250026002700010001000000000000008B
:1002000000000000000000000000000000000000EE
:1002100000000100000000000000010001000000DB
:1002200000000000000001000000000000000000CD
:100230000000000003510100000000000000000069
:1002400000000000010001000000000000000000AC
:10025000000000000000000000000000000000009E
:10026000000000000000000001001E0224022F0216
:10027000300231020000000035002302340238024F
:1002800031000100010022022002260227022E0274
:100290000000000038002E002D002D023302010066
:1002A0000100000000002F003000000000000000EE
:1002B000360237023502250200000100000000006E
:1002C000000001000100000000000000000001002B
:1002D000000000000000000000000000010001001C
:1002E00000000000000000000000000001000351B9
:1002F00000000000000000000000000000000000FE
:1003000000000000000000000000000000000000ED
:10031000010000000000AA00A90000000000000089
:1003200000000000000000000000010001000000CB
:10033000BC00A800AE00BB0000000000500051004F
:1003400052004F000000010001000000000000000A
:10035000000000000000000000000000000000009D
:10036000000001000000000000000100010000008A
:10037000000000000000010000000000000000007C
:10038000000000000100010000000000000000006B
:100390000000000001000100000000001203450001
:1003A000720067006F0044006F006E00650000007F
:1003B00012034B002E0054002E0045002E00430077
:1003C0002E0000000403090409023B00020100A002
:1003D000FA090400000103010100092111010001D3
:1003E0002240000705810308000A090401000103F7
:1003F00000000009211101000122B6000705820357
:1004000020000A1201100100000008EDFE0DE601B7
:10041000000102000105010902A10185020901A1F3
:1004200000050919012908150025019508750181A4
:10043000020501093009311581257F950275088172
:100440000609381581257F950175088106050C0A76
:1004500038021581257F950175088106C0C0050108
:100460000980A101850319012AB700150126B700EB
:10047000950175108100C0050C0901A101850419C1
:10048000012AA002150126A002950175108100C065
:1004900005010906A1018505050719E029E71500F1
:1004A00025019508750181020507190029EF15003E
:1004B000250195F0750181020508190129059505A9
:1004C00075019102950175039101C005010906A10D
:1004D00001050719E029E715002501950875018137
:1004E000029501750881010507190029FF150026ED
:1004F000FF00950675088100050819012905950575
:1005000075019102950175039101C00011241FBE70
:10051000CFEFDAE0DEBFCDBF04B603FE27C0809187
:10052000E2029091E302A091E402B091E5028730EB
:10053000904BA740B04BD1F41092E2021092E3022C
:100540001092E4021092E50214BE84B7877F84BF44
:100550000FB6F894A8958091600088618093600040
:10056000109260000FBEE0E0F8E3099511E0A0E012
:10057000B1E0EAEDFAE402C005900D92A637B107AA
:10058000D9F722E0A6E7B1E001C01D92A23EB20772
:10059000E1F70E94A11F0C946B250C9400001092AF
:1005A000B9008AE08093B800089594EA9093BC0063
:1005B0009091BC0097FFFCCF9091B900987F983044
:1005C00021F0903111F081E008958093BB0084E820
:1005D0008093BC008091BC0087FFFCCF8091B90064
:1005E000887F883111F0803471F780E008950C9491
:1005F000D50284E98093BC008091BC0084FDFCCFCF
:1006000008958093BB0084E88093BC008091BC0077
:1006100087FFFCCF9091B900987F81E0983209F470
:1006200080E0089584E88093BC008091BC0087FF3F
:10063000FCCF8091BB00089580B38F7080BB81B3E5
:100640008F7081BB84B1897F84B985B1897F85B979
:100650000C949A046E98769A8AB183768AB98BB193
:100660008C698BB93E98469A24982C9A0C94CF04A6
:1006700008950C9438030C9438030E941C030E94C4
:100680002A03ECECF1E088E791E011921192DC0191
:100690002EE01D922150E9F70E9621E08C3C920746
:1006A000A1F70C9448060E941C030E942A03ECEC5C
:1006B000F1E0118210821382128215821482178255
:1006C0001682118610861386128608952EE0829F68
:1006D000C0011124FC01E858FE4F20E030E040E06A
:1006E00050E061E070E09081992319F0915090837F
:1006F00009C0CB01022E02C0880F991F0A94E2F7AD
:10070000482B592B2F5F3F4F31962E30310559F72B
:10071000CA010895CF932EE0629FB001112420E01A
:1007200030E0A1E0B0E0C5E0AD01022E02C0440F10
:10073000551F0A94E2F748235923452B31F0FB015A
:10074000E20FF31FE858FE4FC0832F5F3F4F2E305C
:10075000310551F7CF9108954F925F927F928F921A
:100760009F92AF92BF92CF92DF92EF92FF920F9340
:100770001F93CF93DF930E94B5040CEC11E0C0E00F
:10078000D1E0C33099F028F4C13051F0C23059F0B3
:1007900004C0C43071F0C53079F0849A8C980EC0D2
:1007A000859A8D980BC0869A8E9808C0879A8F98E4
:1007B00005C0219A299802C0229A2A988C2F0E945B
:1007C0009E0480EA8A95F1F78C2F0E9466035C01F3
:1007D0000E9400054B9904C060E4E62EF12C02C093
:1007E000E12CF12C4A9903C0A0E2B0E002C0A0E0E5
:1007F000B0E04C9904C050E1452E512C02C0412C70
:10080000512C369903C068E070E002C060E070E0EF
:1008100029B1022E000C330B209530952227330F7F
:10082000221F3327220F331F220F331F669903C065
:1008300042E050E002C040E050E073B0F801C080F8
:10084000D1807294EFE07E227D2670FA882480F8B1
:10085000912C882999298E299F298A2B9B2BF2017B
:10086000E82BF92B6E2B7F2B262B372B422B532B70
:100870004C255D25A422B522AC24BD246C2FC601D5
:100880008A259B250E948A03F801A192B1928F01CB
:100890000E941C03CF5FC63009F073CF0E9452063E
:1008A00081E0DF91CF911F910F91FF90EF90DF904A
:1008B000CF90BF90AF909F908F907F905F904F9020
:1008C0000895E82FF0E0EE0FFF1FE453FE4F808104
:1008D000918108950895853008F08F5F2091D801A7
:1008E00030E0A90102C0559547958A95E2F7CA0103
:1008F000817008951F93CF93DF93C091D901CC23CA
:10090000A1F0D62F182F80E40E94D502C82F8111A4
:100910000AC0812F0E940103C82F811104C08D2FAE
:100920000E940103C82F0E94F9028C2FDF91CF9102
:100930001F9108956FEF81E00C947A048F5F61E05E
:1009400070E001C0660F8A95EAF7609581E00C942B
:100950007A046FEF82E00E947A046FEF8CE00E94CD
:100960007A046FEF81E00C947A0480E40E94D5024F
:1009700081110CC00E94F9028091D90181110EC031
:1009800081E08093D9010E94A90406C08091D90119
:10099000813021F41092D9010C94B71308950E946C
:1009A000CF020C94B5040F931F93CF93DF93C091A4
:1009B000D901CC23D1F08B01D82F80E40E94D5023D
:1009C000C82F811110C08D2F0E940103C82F8111E3
:1009D0000AC081E40E94F702C82F811104C00E945E
:1009E0001203F80180830E94F9028C2FDF91CF91CE
:1009F0001F910F91089568ED71E082E10C94D3048A
:100A00008F929F92AF92BF92EF92FF920F931F939C
:100A1000CF93DF930E94FB04C0E0D0E000E010E041
:100A20008DE0E82EF12C812C912C540183948C2F95
:100A30000E946B04882371F0C7018C1B9D0BA501DC
:100A4000940104C0220F331F441F551F8A95D2F70B
:100A5000022B132B2196CE30D10549F7C801DF9127
:100A6000CF911F910F91FF90EF90BF90AF909F900B
:100A70008F90089584B1886684B985B1877985B9E6
:100A8000209A289A559A5D9A089525982D98269827
:100A90002E9823982B982098289A259A2D9A2FEFF4
:100AA00080E792E0215080409040E1F700C00000D4
:100AB000269A2E9A2FEF80E792E0215080409040B6
:100AC000E1F700C00000239A2B9A2FEF80E792E015
:100AD000215080409040E1F700C0000025982D98FB
:100AE0002FEF80E792E0215080409040E1F700C076
:100AF000000026982E982FEF80E792E0215080404A
:100B00009040E1F700C0000023982B9825982D987D
:100B100026982E9823982B982098289A08950E941A
:100B20003A050E9445050C9439039C013A9521151C
:100B30003F4138F5DC01AA27B270AC01442754705C
:100B40009C012227387094FF0FC090FF02C080E103
:100B500001C080E0AB2B09F08062452B09F0806476
:100B6000232B69F080680BC0892F8170AB2B09F0B3
:100B70008260452B09F08460232B09F08860FB011B
:100B800009940895CF93DF93EC01805E9109089753
:100B900010F0209719F464E271E102C06FE873E18C
:100BA000CE010E9495058C2FDF91CF910C94F20F0E
:100BB000CF93DF93EC010E949C10CE01805E9109DF
:100BC000089710F0209719F46BE271E102C066E912
:100BD00073E1CE01DF91CF910C949505CF93DF9314
:100BE000EC010E94C205CE01DF91CF910C94D80593
:100BF00081E0089581E008950C94FA0508950C941D
:100C0000FE051F93CF93DF9300D000D01F92CDB786
:100C1000DEB749835A836B833091080289819A81B8
:100C2000311114C0662359F0222349F00E940219A1
:100C3000182F682F89819A810E94AB1803C00E94E7
:100C4000D618182F69817A81812F04C00E94021959
:100C500069817A810F900F900F900F900F90DF9124
:100C6000CF911F910C94C906FC01262F4081518120
:100C70006281738184810C940106CF93DF93EC0130
:100C800060E00E943406BE01DF91CF910C94FF0515
:100C90000E94391A811102C00E94EA1A0E947B0B3D
:100CA0000C948F050C943B03282F2F7041F0822F5A
:100CB00090E02A3010F44D9608950697089587E243
:100CC00090E0089508950E94B7130E9462062FEFE6
:100CD00084E39CE0215080409040E1F700C0000098
:100CE0000C94821C0F931F93CF93DF93EC0161E070
:100CF0000E9434068C01BE010E94FC05882379F114
:100D0000BE01C8010E94050C882349F1BE01C8013B
:100D10000E94960C882319F1BE01C8010E94E80CBC
:100D20008823E9F0BE01C8010E94130E8823B9F0A0
:100D30008A81882369F001158CE5180731F00F3D91
:100D40001C4531F40E94EA1A0AC00E94630607C0DB
:100D5000CE01DF91CF911F910F910C94F80580E0A7
:100D6000DF91CF911F910F91089508950C94B506CE
:100D700081E008950C94B806CF93C82F0E94B60660
:100D80008C2F0E94BA06CF91089580E090E00895DC
:100D9000089524E5829FC0011124FC012EE0729F7A
:100DA000E00DF11D1124E60FF11DEE0FFF1FE450C1
:100DB000FF4F859194910895880F991FFC01E45687
:100DC000FC4F859194910895CF93DF930E94C906BB
:100DD0000E94FC07EC018115904508F041C0C11547
:100DE00080E4D80708F0D1C0C83ED10510F5C03E58
:100DF000D10508F0FDC0C83AD10578F4C53AD1054F
:100E000008F0A2C0C130D10509F4F2C008F4EEC068
:100E1000C430D10508F0ECC0E9C0CF3BD10508F4DF
:100E20009BC0C03CD10508F4E1C0CE01805C9109B3
:100E30009EC0C11590E2D90758F4C11521E0D20730
:100E400008F0D6C0CD3ED10508F4D0C0D065D0C0E2
:100E5000C11580E3D80708F08EC0CE019F7087C00F
:100E6000C11595E5D90708F043C0C11524E5D2079F
:100E700008F0A2C0C11582E5D80708F5C11591E5B3
:100E8000D90708F085C0CE0174E0969587957A95CC
:100E9000E1F783709C2F937021E030E002C0220FB5
:100EA000331F9A95E2F73C68382BCF70C695C695EC
:100EB00080E2C89FE0011124C22BD32B99C09E0170
:100EC000237033278C2F86958695C115D34508F05E
:100ED00064C0C1E0D0E002C0CC0FDD1F2A95E2F76C
:100EE00020E2829FC0011124C82BD92BDC6880C06E
:100EF000C11529E5D207A0F4C11588E5D80708F087
:100F000060C0C11596E5D90708F070C08C2F0E940B
:100F100090088F71C82FD0E0DC2FCC27D06268C03A
:100F2000C1152AE5D20708F451C0CE0190568115AB
:100F3000904208F05BC08D2F8F710E949008DD27D2
:100F4000D0628F71D82B54C0C55AD0E0CF5BDE4F32
:100F5000C881D0E0D0644CC0C85AD0E0CC0FDD1FAF
:100F6000CD5EDE4F0990D881C02DD46441C00E946F
:100F7000DC06EC013DC0CE019927D3FF03C0EC0194
:100F8000D86C36C0EC01D06C33C0DF70D06A30C092
:100F9000DC2FCC27C16FD06A2BC0C1E0D0E002C0EB
:100FA000CC0FDD1F2A95E2F720E2829FC0011124B9
:100FB000C82BD92BDA681CC0DC2FCC27C46FD06AB1
:100FC00017C0DC2FCC27C06FD06A12C08C2F8F7057
:100FD0000E94900894E0D695C7959A95E1F7CF7056
:100FE000D0E0DC2FCC27D069C82B02C0C0E0D0E015
:100FF000CE01DF91CF9108958238910569F1B0F467
:101000008133910509F46DC048F48932910509F4E2
:1010100063C08A32910509F469C00895853391054A
:1010200009F455C089339105B9F00895833E9105BF
:1010300069F138F4803E9105B1F0823E910509F1E5
:101040000895863E9105A9F1873E9105B9F1843E48
:10105000910509F064C023C02091D30220FD4FC048
:1010600021FD4DC008958091D30280FD44C0809140
:10107000D40280FF44C08091D30284FD42C083EE3D
:101080004DC08091D30282FF38C0F5CF8091D3024A
:1010900082FD33C08091D40280FD31C0ECCF8091BD
:1010A000D40281FF32C08091D30284FD2AC087EE32
:1010B00035C08091D30283FF26C0F5CF8091D30243
:1010C00083FD21C08091D40281FD1FC0ECCF8091AF
:1010D000D30285FD1CC01DC08091D30285FD19C0BF
:1010E00016C08091D30286FD16C017C08091D3022E
:1010F00086FD13C010C089E311C082EE0FC080EEE0
:101100000DC080E00BC086EE09C084EE07C089E206
:1011100005C085E303C08AE201C081E390E0089541
:101120009091D30292FF0DC0282F2871283019F416
:10113000877F846006C0282F2471243011F48B7FB0
:10114000886093FF0DC0282F2871283119F4877EFD
:10115000846106C0282F2471243111F48B7E8861AC
:101160002091D40220FF0DC0382F3871383019F487
:10117000877F816006C0382F3171313011F48E7F46
:10118000886021FF0DC0282F2871283119F4877E2F
:10119000816106C0282F2171213111F48E7E886172
:1011A00094FD877E08958091E20180FF0BC06091DD
:1011B000040185E0689FB0011124759567957595C8
:1011C00067952BC081FF09C06091040185E0689F8D
:1011D000B00111247595679520C082FF07C060910A
:1011E000040185E0689FB001112417C09091E101CE
:1011F0009923D1F060910301961788F7209104019B
:1012000085E0289F90011124929FA001939F500D8B
:10121000112470E0CA010E94FB246038710540F47B
:101220006115710519F406C065E070E0862F089518
:101230008FE7089581E008958091E20180FF08C062
:101240006091010170E0759567957595679521C06E
:1012500081FF06C06091010170E07595679519C026
:1012600082FF04C06091010170E010C09091E00124
:10127000992399F0609100019617A0F780910101E0
:10128000899FC001112470E00E94FB246038710521
:1012900040F46115710519F406C061E070E0862F15
:1012A00008958FE7089581E008958D3E21F40E940E
:1012B000D308819504C08E3E29F40E94D308809300
:1012C000E60108958F3E21F40E94D308819504C061
:1012D000803F29F40E94D3088093E5010895893F57
:1012E00019F40E941C0905C08A3F31F40E941C09B0
:1012F00081958093E70108958B3F21F40E941C099A
:10130000819504C08C3F29F40E941C098093E80158
:1013100008959FE0980F983078F421E030E0A9011B
:1013200002C0440F551F9A95E2F7CA019091E4015B
:10133000892B8093E40108958D3F21F48091E2018F
:1013400081600BC08E3F21F48091E201826005C074
:101350008F3F29F48091E20184608093E201089537
:101360008D3E39F49091E60197FF35C01092E60169
:1013700059C08E3E29F49091E6011916BCF32BC09A
:101380009091E5018F3E29F497FF25C01092E50169
:1013900049C0803F19F41916CCF31DC09091E701A4
:1013A000893F29F41916BCF41092E7013BC08A3F2B
:1013B00019F497FF10C0F8CF8B3F39F49091E801F2
:1013C00097FF09C01092E8012DC08C3F21F4909145
:1013D000E8011916BCF39FE0980F983080F421E0E3
:1013E00030E0A90102C0440F551F9A95E2F7CA01E7
:1013F00080959091E40189238093E40113C08D3F8F
:1014000021F48091E2018E7F0BC08E3F21F4809108
:10141000E2018D7F05C08F3F29F48091E2018B7F2F
:101420008093E2018091E501811106C08091E6017F
:10143000811102C01092E1018091E701811106C083
:101440008091E801811102C01092E00108950E948C
:10145000351C2091E501211104C02091E6012223D1
:1014600021F09093DF018093DE012091E7012111AB
:1014700004C02091E801222321F09093DD018093A4
:10148000DC0183EE91E00C947C0EEF92FF920F93BF
:101490001F93CF93DF9300D000D000D0CDB7DEB73D
:1014A00086E0E3EEF1E0DE01119601900D928A955F
:1014B000E1F7E090E501F090E6010091E70110917D
:1014C000E8011092E5011092E6011092E7011092F6
:1014D000E801E11003C0FF2009F45DC08091DE0146
:1014E0009091DF010E944D1CAC019091E101992384
:1014F00039F02091050130E02417350758F04BC032
:101500002091DB018AE0289F9001112424173507E0
:1015100018F041C09F3F19F09F5F9093E101EE20CA
:1015200061F00E94D3081E1414F09FEF01C091E0F7
:10153000989F902D11249093E501FF2061F00E9467
:10154000D3081F1414F09FEF01C091E0989F902DD5
:1015500011249093E6013091E5013323E1F02091CD
:10156000E6012223C1F045EB3403C0011124992385
:1015700019F09093E50103C081E08093E50135EB1C
:101580002303C0011124992319F09093E60103C0AD
:1015900081E08093E601011103C0112309F45DC0CD
:1015A0008091DC019091DD010E944D1CAC01909175
:1015B000E001992339F02091020130E0241735072A
:1015C00058F04BC02091DA018AE0289F9001112445
:1015D0002417350718F041C09F3F19F09F5F909383
:1015E000E001002361F00E941C09101614F09FEF27
:1015F00001C091E0989F902D11249093E701112351
:1016000061F00E941C09111614F09FEF01C091E0D7
:10161000989F902D11249093E8013091E701332396
:10162000E1F02091E8012223C1F045EB3403C00131
:101630001124992319F09093E70103C081E080936E
:10164000E70135EB2303C0011124992319F090938E
:10165000E80103C081E08093E8018091E5018111F8
:101660000BC08091E601811107C08091E7018111D3
:1016700003C08091E80181110E94270AEB82FC825D
:101680000D831E8386E0FE013196A3EEB1E001904A
:101690000D928A95E1F726960FB6F894DEBF0FBE3D
:1016A000CDBFDF91CF911F910F91FF90EF900895E3
:1016B000E3EEF1E086E0DF011D928A95E9F71092F2
:1016C000E1011092E0011092E2010895CF93DF93BF
:1016D00097FF0DC0FB012281222349F0EC010E94FB
:1016E000910BCE019F770E94E80B0E94CA0B81E00C
:1016F000DF91CF9108958CE090E00E94292590E041
:10170000A0E0B0E08093C9029093CA02A093CB02FC
:10171000B093CC0208956091C9028CE090E00C94E3
:1017200037250E94550E869581708093CE02909148
:10173000C902913029F4882319F089E30E941B1112
:101740000E9483198093CD020E9496198091C9024C
:10175000813071F048F0823081F08430A1F486EE5F
:101760000E941B1188E10DC082EE0E94F20F0BC097
:1017700088E193E00E94EE0506C082EE0E94F20F1F
:1017800087E50E941B118FE39CE90197F1F700C0E8
:10179000000008958091C902813039F078F08230DC
:1017A00069F0843089F488E20DC08CE20E941B113C
:1017B0008091CE02882341F089E304C082EE0E942A
:1017C0009C1002C00E941B118091CD020C949319B1
:1017D0000F931F93CF93DF938C01CCE0D0E0C8012F
:1017E0000C2E02C0969587950A94E2F78F700E949E
:1017F00054060E94EE052497CC3F8FEFD80779F767
:10180000DF91CF911F910F9108950F931F93CF9365
:10181000DF93EC018B01FB018281882361F00E9440
:101820008319CE01825E9C458530910520F480931A
:10183000C9020E948B0BB801CE01DF91CF911F919D
:101840000F910C94660B0F931F93CF93DF93C42FCC
:10185000D22FFC0182818823C9F04093EB010E94C2
:10186000351C9093EA018093E90180E28C0F883067
:1018700008F057C0C77081E001C0880FCA95EAF729
:10188000DF91CF911F910F910C9424118091EB0166
:10189000481330C08091E9019091EA010E944D1CEB
:1018A000883C910538F510E21D0FCD17B9F080E2A4
:1018B0008C0F883040F4C77081E001C0880FCA9552
:1018C000EAF70E942B11183028F581E09D2F9770C0
:1018D00001C0880F9A95EAF70E942411802F0E9478
:1018E0001B111830F0F4D77081E001C0880FDA9531
:1018F000EAF70AC080E28C0F883098F4C77081E064
:1019000001C0880FCA95EAF7DF91CF911F910F911F
:101910000C942B11802FDF91CF911F910F910C947C
:101920001B11DF91CF911F910F9108950F939C018F
:10193000CB01243F4CE5340731F188F4293DFCE527
:101940003F07D9F02A3D4CE5340779F1283D3C4565
:10195000A9F506E221EE41EE68ED7CE52BC0263FBD
:10196000FCE53F07E1F0A8F0273F3C4539F507E2E9
:1019700025EE46EE67EF7CE51DC007E225EE45EE5D
:1019800069ED7CE517C006E221EE40EE64EF7CE5F0
:1019900011C007E225EE44EE65EF7CE50BC006E2E0
:1019A00021EE42EE66EF7CE505C008E221E045EE5F
:1019B0006AED7CE50E94230C80E008C0FC01828176
:1019C000882319F01092EB0101C081E00F91089576
:1019D000CF93DF93EC01FB018281882309F41FC1BF
:1019E000C230FCE5DF0708F41BC1C6319CE5D9070E
:1019F00038F09E012B5F3C452930310508F010C1BD
:101A00000E94561A9093D4028093D302C031ECE521
:101A1000DE0709F4C3C008F041C0C8308CE5D80720
:101A200009F49AC0F0F4C430ECE5DE0709F487C08D
:101A300068F4C2308CE5D80709F477C0C330DC45C0
:101A400009F0E3C08091D302826076C0C630ECE535
:101A5000DE0709F46EC008F07BC08091D302886075
:101A60006BC0CC308CE5D80709F485C068F4CA3067
:101A7000ECE5DE0709F474C008F079C00E94B713E2
:101A80008091D302806858C0CE308CE5D80709F425
:101A900076C008F07FC08091D3028BC0CC3FECE5CC
:101AA000DE0709F44FC018F5C3318CE5D80709F4F7
:101AB0007DC078F4C131ECE5DE0709F473C0C231B2
:101AC000DC4509F0A2C00E94B7138091D3028F7742
:101AD00033C0C5318CE5D80709F472C008F486C05C
:101AE000CB3FDC4509F091C08091D4023EC0C115C6
:101AF000FDE5DF0709F45FC058F4CE3F9CE5D90748
:101B000009F444C008F43FC08091D40282602DC023
:101B1000C230FDE5DF0709F475C008F45DC0C330CD
:101B2000DD4509F072C080E06EC08091D302816013
:101B300003C08091D30280618093D30266C08091FC
:101B4000D30211C08091D40282608093D4025DC020
:101B50008091D3028062F0CF8091D3028064ECCF79
:101B60008091D30288608460E7CF8160EECF80915E
:101B7000D3028E7FE1CF8091D3028D7FDDCF809124
:101B8000D302877FD9CF8091D40218C08091D4022C
:101B90008D7FDBCF8091D3028F7ECECF8091D30219
:101BA0008F7DCACF8091D3028F7BC6CF8091D30225
:101BB000877F8B7FC1CF8091D4028D7F8E7FC5CFF1
:101BC0008091D30282FB222720F991E0922790FB9B
:101BD00082F990FB83F9B0CF8091D402982F909531
:101BE00091708E7F892B90FB81F9AFCF0E94B71344
:101BF0008091D30287FB222720F991E0922790FB66
:101C000087F99ACF81E00E94EC1A8091D3029091DB
:101C1000D4020E94671A0E94B71380E001C081E0DD
:101C2000DF91CF910895CF93DF9386319C4541F5A5
:101C3000EB010E948319982F8A812091060130912F
:101C40000701882379F09A7A81E009F480E0809393
:101C5000EC01911102C069E201C065E3C9010E9473
:101C6000871B0AC08091EC01811102C069E201C0AA
:101C700065E3C9010E94921B0E94D41980E001C053
:101C800081E0DF91CF9108959093F2018093F1016B
:101C90000895E091F101F091F201309721F0019067
:101CA000F081E02D099480E00895E091F101F09138
:101CB000F201309711F480E008950190F081E02D59
:101CC00009950895E091F101F091F201309799F0B2
:101CD00020911201222359F02091D30227FF07C03F
:101CE000DC012C9111962C93119725E02C93028006
:101CF000F381E02D09940895E091F101F091F20152
:101D0000309739F022E0DC012C930480F581E02D3E
:101D1000099408952091EF013091F00128173907B7
:101D200071F09093F0018093EF01E091F101F09157
:101D3000F201309721F00680F781E02D0994089593
:101D40002091ED013091EE012817390771F0909341
:101D5000EE018093ED01E091F101F091F2013097F5
:101D600021F00084F185E02D099408950E94411C22
:101D70006093040270930502809306029093070219
:101D80006093000270930102809302029093030219
:101D9000089585B7806885BF85B7806885BF089539
:101DA00081E008950C94D00E08950C94D40E0C94F8
:101DB000D40E0C94D70E0C94D40E0C94DB0E0C9411
:101DC000D40E0E94C90E87E39AE10E94931C0E94E0
:101DD000DF0E0C94DD0E0E942C1C0E943D030E941D
:101DE000E41CE3EDF2E08081806880838091D3027F
:101DF0009091D4020E94671A0C94D90E6F927F9230
:101E00008F929F92AF92BF92CF92DF92EF92FF920A
:101E10000F931F93CF93DF93CDB7DEB72A970FB6FB
:101E2000F894DEBF0FBECDBF0E94D50E0E94D40E27
:101E30000E94AC0381110E94B60E34EF832E31E074
:101E4000932E00E010E0C02E802F0E9461045C0100
:101E5000F401619071904F01682679266114710434
:101E6000B1F40F5F1F4F0630110569F78FEF8983BB
:101E70008A831B820E94351C8160782F9D838C830E
:101E800049815A816B818D810E94B80F3AC080913F
:101E9000A50281FD0E946A04D12CEE24E394F12C6A
:101EA000C3018E219F21892B29F10E94D20E882304
:101EB000A9F0DE82CF82AE20BF2081E0AB2809F4FA
:101EC00080E088870E94351C8160782F9A878987F7
:101ED0004E815F8168858A850E94B80F000F111FAF
:101EE000F801EC50FE4F80819181E826F926F182BD
:101EF000E08207C0D394EE0CFF1CFEE0DF12D0CFCF
:101F0000B0CF0E94450A0E94490E9091F3018917B3
:101F1000D1F00E94490E8093F3012A960FB6F894EF
:101F2000DEBF0FBECDBFDF91CF911F910F91FF900C
:101F3000EF90DF90CF90BF90AF909F908F907F9069
:101F40006F900C94BC062A960FB6F894DEBF0FBEB5
:101F5000CDBFDF91CF911F910F91FF90EF90DF9058
:101F6000CF90BF90AF909F908F907F906F9008958B
:101F7000DF92EF92FF920F931F93CF93DF93CDB732
:101F8000DEB72B970FB6F894DEBF0FBECDBFF42E91
:101F9000052F162FE72ED82E61110E94A619FE01DB
:101FA000319686E0DF011D928A95E9F77E2D4F2D4F
:101FB000502F612F8D2D9E810E9470162B960FB68B
:101FC000F894DEBF0FBECDBFDF91CF911F910F916F
:101FD000FF90EF90DF900895FC01808191810E9435
:101FE00044190895CF93882309F4A4C0C82F8238D8
:101FF000C1F40E94490E81FD9DC069E380910601F4
:10200000909107010E94871B0E94D4192FEF81EE47
:1020100094E0215080409040E1F700C0000069E367
:1020200019C0833801F50E94490E80FD83C063E525
:1020300080910601909107010E94871B0E94D4198C
:102040002FEF81EE94E0215080409040E1F700C0F6
:10205000000063E580910601909107010E94921BA8
:10206000CF910C94D4198438C1F40E94490E82FD9A
:1020700061C067E480910601909107010E94871B6F
:102080000E94D4192FEF81EE94E0215080409040BF
:10209000E1F700C0000067E4DDCF8CEF8C0F813AE0
:1020A000D0F46C2F80910601909107010E94071BCC
:1020B000882349F06C2F80910601909107010E94BE
:1020C000921B0E94D4196C2F8091060190910701F8
:1020D0000E94871BC5CF80E28C0F883048F4C77000
:1020E00081E001C0880FCA95EAF70E948619B8CF2F
:1020F000EBE5EC0FE33040F4F0E0EE58FE4F80816A
:1021000090E0CF910C948A0EE8E5EC0FE73150F4A3
:10211000F0E0EE0FFF1FEC5BFE4F80819181CF91CD
:102120000C94A00ECD3E30F08C2F0E945509CF911B
:102130000C94270ACF910895882309F464C082384B
:1021400079F40E94490E81FF5EC069E38091060127
:10215000909107010E94871B0E94D41969E310C067
:102160008338B1F40E94490E80FF4DC063E5809131
:102170000601909107010E94871B0E94D41963E514
:1021800080910601909107010E94921B0C94D41932
:10219000843879F40E94490E82FF35C067E480914B
:1021A0000601909107010E94871B0E94D41967E4E1
:1021B000E7CF9CEF980F913A10F4682FE1CF90E2AF
:1021C000980F983050F4877091E001C0990F8A956C
:1021D000EAF7892F0E948C19D9CF9BE5980F93308D
:1021E00020F480E090E00C948A0E98E5980F9731E7
:1021F00020F480E090E00C94A00E8D3E20F00E9430
:10220000B0090C94270A08951F93CF93DF93182FDA
:10221000EB010E94F20F209741F08FE99FE00197B8
:10222000F1F700C000002197F6CF812FDF91CF9109
:102230001F910C949C10893319F060E070E002C08B
:1022400060E570E00C940411882321F00E94861947
:102250000C94D4190895882321F00E948C190C94B1
:10226000D4190895CF92DF92EF92FF920F931F93AC
:10227000CF93DF937C01062FC72FFC01D2811581FC
:1022800012951F700E947C19882399F0DD2389F034
:102290008C2F807F803421F080E2800F883048F0DE
:1022A00082E00E941E1A0E947C1991E0D82ED92645
:1022B00001C0D12CCC2EC2948FE0C8228C2D90E08E
:1022C000FC01EA5AFF4F0C940F258C2F807FCF70B2
:1022D000882311F0C295C07FDD2399F0CC2309F447
:1022E00085C180E2800F883010F0011104C08C2F6E
:1022F0000E94861903C08C2F0E9499190E94D4193C
:1023000075C1802F0E949C10CC2309F494C180E2F7
:10231000800F883010F0011104C08C2F0E948C199E
:1023200003C08C2F0E949F190E94D41984C18C2F46
:10233000807FCF70803211F0C295C07F002319F0EA
:102340000130C9F024C0DD2371F0112341F01130B8
:1023500031F40E94B9198C2B0E94C1196CC10E94E2
:10236000B9198C2B0EC0112319F0113009F463C177
:102370000E94CA191EC0DD2339F0123008F05BC17B
:102380008C2F0E94241157C1111155C112C0DD2399
:1023900019F01123A9F32AC1112359F0093309F0C7
:1023A00036C1FFEF27EE83E0F15020408040E1F797
:1023B0002CC18C2F0E942B113EC18C2F86958695A7
:1023C000837019F0813061F036C1DD2321F0802F58
:1023D0009C2F937002C080E090E00E948A0E33C16F
:1023E000DD2321F0802F9C2F937002C080E090E0CD
:1023F0000E94A00E28C1802FDD2319F00E945509EC
:1024000002C00E94B0090E94270A1DC18C2F837050
:1024100009F045C0D11113C1402F42954695477030
:10242000440F440F602F6F70862F90E0A0E0B0E063
:10243000042E04C0880F991FAA1FBB1F0A94D2F74D
:1024400004FF10C00FE010E020E030E004C0000FF7
:10245000111F221F331F4A95D2F700951095209522
:10246000309503C000E010E09801C695C695C37092
:10247000BC01CD01602B712B822B932BC23049F014
:1024800058F4C13019F00E94C117D9C00E94AF178B
:10249000D6C00E94D317D3C00E94AD17D0C0DD2391
:1024A00019F08C2F817001C08695882309F4C7C06C
:1024B000402F429546954770440F440F602F6F7030
:1024C000862F90E0A0E0B0E0042E04C0880F991F92
:1024D000AA1FBB1F0A94D2F704FF10C00FE010E040
:1024E00020E030E004C0000F111F221F331F4A9567
:1024F000D2F7009510952095309503C000E010E0CC
:102500009801C695C695C370BC01CD01602B712B97
:10251000822B932BC23049F058F4C13019F00E943D
:1025200086188DC00E9474188AC00E94981887C0AF
:102530000E94E71784C0CF70DD2339F08C2F0E94F2
:102540000D18802F0E9424117AC0802F0E942B1119
:102550008C2F0E942E1873C0023FF9F028F4003F20
:1025600041F0013F99F03EC0033FF1F0043F31F1EB
:1025700039C0DD2339F011115EC08C2F8F710E949C
:10258000531859C0123008F056C0F7CFDD2339F088
:102590008C2F8F710E940D184EC0DD23C9F38C2F34
:1025A0008F710E942E1847C0DD2329F08C2F8F7168
:1025B0000E94F81740C00E94F3173DC0DD2349F088
:1025C000CF718C2F0E940D1863E08C2F0E94091A86
:1025D00032C081E00E941E1A123068F182E00E942F
:1025E0001E1A29C0DD2331F0112391F2802F0E94A1
:1025F000F20F21C0112399F2093349F49FEFE7EE5E
:10260000F3E09150E040F040E1F700C00000802F7F
:102610000E949C1010C04C2F4F70602FC7010E9469
:10262000C5060E941E170FC04C2F4F70602FC701A8
:102630000E94C80608C088EF8C0D843020F40E94E8
:10264000490E0E94BC06DD20C9F00E94781980FD69
:1026500015C0F70112820E9472190E940D18C7015D
:102660000E945F130E947219DF91CF911F910F9109
:10267000FF90EF90DF90CF900C942E18DF91CF91C8
:102680001F910F91FF90EF90DF90CF9008950F93DF
:102690001F93CF93DF93EC01688179818A810E9437
:1026A0004F198C010E94AA180E949B17B801CE01F5
:1026B0000E943211DF91CF911F910F910895CF9316
:1026C000DF93EC01988189812B813C81232B31F0B0
:1026D0008F3F31F481E09F3F19F403C081E001C0D6
:1026E00080E080FD19C0CE010E94720681110CC0ED
:1026F0000E947C19882381F08A81882369F082E016
:10270000DF91CF910C941E1ACE010E944713CE0187
:10271000DF91CF910C943D06DF91CF9108958823EE
:1027200021F00E9499190C94D4190895882321F05E
:102730000E949F190C94D419089580E090E00E94A3
:102740008A0E80E090E00E94A00E0E94A6190E94CE
:10275000B6190E94D4190E94580B0C94270A809134
:102760000601909107010E949D1B0C949D130E94ED
:1027700096190C94AF13E92FE295EF704E2F50E0AD
:10278000FA013297EE30F105B0F4EA59FF4F0C949C
:102790000F25803F91F018F4883E68F40EC0843F06
:1027A00051F40BC0883E48F0813F29F406C093FBEA
:1027B000882780F9089580E0089581E008950E94B7
:1027C00044190E94BB130895CF93DF9300D000D02B
:1027D0001F92CDB7DEB70F900F900F900F900F9014
:1027E000DF91CF910895CF93DF9300D000D000D038
:1027F000CDB7DEB726960FB6F894DEBF0FBECDBFBD
:10280000DF91CF9108951F93CF93DF93C091090279
:1028100016E080910A02C81799F0D0E01C9FF001E1
:102820001D9FF00D1124E55FFD4F408151816281B4
:102830007381848195810E94F3132196C770E9CF3B
:10284000DF91CF911F91089540913B0250913C023E
:1028500060913D0270913E0280913F029091400252
:102860000C94F3130F931F93CF93DF938091400247
:1028700082958F7009F05DC080913D02882309F434
:1028800058C08091090210910A0260913B02709138
:102890003C02C0913E02D0913F0291E06F3F09F0AF
:1028A00090E0292F06E0811709F443C0209721F01A
:1028B0007F3F21F030E003C031E001C0322F90E0D3
:1028C00030FD34C0089FF001099FF00D1124DF0195
:1028D000A55FBD4F11963C911197371327C03C91CE
:1028E000361324C012963C91129731111FC01396D3
:1028F0004D915C9114974C1B5D0B483C5105B0F415
:10290000809140028F70806180934002E05FFD4FB4
:1029100080818F70806180838BE392E00E945F13DF
:10292000DF91CF911F910F910C9403140196877042
:10293000BACFDF91CF911F910F9108959F92AF92DF
:10294000BF92CF92DF92EF92FF920F931F93CF939C
:10295000DF93CDB7DEB761970FB6F894DEBF0FBE39
:10296000CDBF8C0185E0F801DE011D9601900D922E
:102970008A95E1F7F80140815181E28090913B0214
:1029800060913C0220913E0230913F0221153105B9
:1029900031F06F3F31F481E09F3F19F403C081E0D3
:1029A00001C080E0F82FF1709F2E80FD46C1F80134
:1029B000A380B4808BE3C82E82E0D82EF0903D0235
:1029C000F501E21BF30BFF2009F4DFC08091400208
:1029D000E83CF10508F09BC0282F207F09F052C089
:1029E000561313C0491311C0FE2CE1100EC08F7096
:1029F0008061809340020E942414C6010E945F13EC
:102A000080914002F801858358C1AB2831F05F3FC7
:102A100031F481E04F3F19F403C081E001C080E050
:102A200080FD03C081E08E2502C080E090E0F82F99
:102A3000F170FF2E80FF1CC08091090220910A02D4
:102A400036E0821709F417C190E0389FF001399FF2
:102A5000F00D1124E55FFD4F6181561306C06081C2
:102A6000461303C06281E61203C001968770E9CF66
:102A7000FE2CEE2009F421C18091400281608093F8
:102A800040025AC0561306C0491304C0E11002C0E8
:102A9000F8019FC04D875E878D859E850E94DF135C
:102AA000882379F1EE2069F120914002822F8295EE
:102AB0008F7090E0029774F080913B0290913C02FD
:102AC00098878F831986BB86AA862C87CE010796A6
:102AD0000E945F1386E0F801ABE3B2E001900D9233
:102AE0008A95E1F70E9432140E9424140DC05617F3
:102AF00029F14D875E878D859E850E94DF138111A8
:102B00002CC0C8010E945F13FF24F394D6C0282F65
:102B1000207F69F77A2DB98AA88A6E2D89890E944B
:102B2000E4138BE392E00E945F1386E0F6011192BA
:102B30008A95E9F70E942414F12CBFC04913D9CF1C
:102B4000E110D7CFF8018583C8010E945F1386E0AA
:102B5000F60111928A95E9F7B0C0EE2091F220912A
:102B60004002822F82958F7090E002970CF4B2CFD2
:102B700080913B0290913C029A8389831B82BD82A3
:102B8000AC822E83CE010196A3CFE83CF10508F07C
:102B900047C0FE2CEE2009F4B4CF561330C04913C1
:102BA0002EC02091400220FD21C0822F82958F707F
:102BB000482F50E041155105C9F0F80125834F30E9
:102BC000510541F08F5F982F9295907F822F8F70E3
:102BD000892B8583C8010E945F1386E0F801ABE36F
:102BE000B2E001900D928A95E1F742C086E0F801CB
:102BF000ABE3B2E001900D928A95E1F75EC04D879C
:102C00005E878D859E850E94DF13811163CF809141
:102C10004002816080934002C8010E945F134DC052
:102C20007A2DB98AA88A6E2D89890E94E41386E0DC
:102C3000F60111928A95E9F71BC0EE2009F461CFE5
:102C40004D875E878D859E850E94DF13F82E882331
:102C500009F457CF86E0F801ABE3B2E001900D92A2
:102C60008A95E1F78BE392E00E94EC0F0E94321408
:102C70000E94241422C04D875E878D859E850E9408
:102C80004419292F22952F70223028F49F7039F093
:102C9000811105C00BC0243028F49F7049F4805E78
:102CA000883020F0C8010E945F139F2CF92C05C0CA
:102CB000F8019581907F99F7F9CF8F2D61960FB626
:102CC000F894DEBF0FBECDBFDF91CF911F910F9162
:102CD000FF90EF90DF90CF90BF90AF909F900895BE
:102CE0001F93CF93DF93CDB7DEB72C970FB6F89431
:102CF000DEBF0FBECDBF4F83588769877A878B872A
:102D00009C87CE0107960E949E148823D1F09F8154
:102D100088852A853B85232B31F08F3F31F481E074
:102D20009F3F19F403C081E001C080E080FD47C0EF
:102D30004F81588569857A858B859C850E94F31320
:102D40003EC086E0FE013796DE01119601900D929D
:102D50008A95E1F7FF81E8856A857B8561157105B4
:102D600031F0EF3F31F481E0FF3F19F403C081E01F
:102D700001C080E080FD23C020910A0230E0C9013B
:102D80000196877099274091090250E084179507B2
:102D9000F1F1F983EA837D836C8396E0929FD00101
:102DA000939FB00D1124A55FBD4FFE013196019098
:102DB0000D929A95E1F780930A020E94031416E09F
:102DC0008091090290910A02891771F1189FC00140
:102DD0001124855F9D4F0E949E14882329F1E09164
:102DE00009021E9FF0011124E55FFD4F40815181D2
:102DF00062817381848195810E94F313809109021D
:102E000090E001968770992780930902D9CF0E949C
:102E1000B71310920A0210920902EBE3F2E086E087
:102E2000DF011D928A95E9F72C960FB6F894DEBF64
:102E30000FBECDBFDF91CF911F910895EF92FF920A
:102E40000F931F93CF93DF938C01892B09F46CC0F0
:102E5000F12CEE24E394E8012196F8018491843763
:102E600040F4843008F051C0813081F0823019F193
:102E70005BC0853709F444C0A8F19CE7980F9037F0
:102E800008F052C08F770E949C1041C00E5F1F4F08
:102E9000FE01849190E2980F983050F48770FE2DD7
:102EA00001C0FF0F8A95EAF78F2F0E94A91914C05D
:102EB0000E94F20F2DC00E5F1F4FFE01849190E221
:102EC000980F983060F48770FE2D01C0FF0F8A952F
:102ED000EAF78F2F0E94AF190E94D41919C00E94DF
:102EE0009C1016C00E5F1F4FFE01C491CC2381F0D1
:102EF0008FE99FE00197F1F700C00000C150F6CFC5
:102F00000E5F1F4FFE01F49003C00E94F20F8E016E
:102F10008F2D882309F49FCFEFE9FFE03197F1F778
:102F200000C000008150F5CFDF91CF911F910F912C
:102F3000FF90EF900895089508950C949C170C94B9
:102F40009D170E949F1760937C0270937D0280936F
:102F50007E0290937F020C949D130C94A1170F9303
:102F60001F9300917C0210917D0220917E0230918E
:102F70007F02602B712B822B932B1F910F910C944E
:102F8000A1170F931F9300917C0210917D02209155
:102F90007E0230917F0260237123822393231F914D
:102FA0000F910C94A1170F931F9300917C02109125
:102FB0007D0220917E0230917F0260277127822757
:102FC00093271F910F910C94A1170C949C170E94AA
:102FD000E517609378027093790280937A02909358
:102FE0007B020C949D1360E070E0CB010C94E7171A
:102FF0000F931F9341E050E060E070E08A019B0175
:1030000004C0000F111F221F331F8A95D2F7C90178
:10301000B8011F910F910C94E7170F931F9341E094
:1030200050E060E070E004C0440F551F661F771F3A
:103030008A95D2F78091780290917902A0917A02D4
:10304000B0917B028A019B01082B192B2A2B3B2B69
:10305000C901B8011F910F910C94E7170F931F93AB
:1030600041E050E060E070E004C0440F551F661F6F
:10307000771F8A95D2F7409550956095709580910D
:10308000780290917902A0917A02B0917B028A0134
:103090009B01082319232A233B23C901B8011F914F
:1030A0000F910C94E7170F931F9341E050E060E0FD
:1030B00070E004C0440F551F661F771F8A95D2F732
:1030C0008091780290917902A0917A02B0917B026E
:1030D0008A019B01082719272A273B27C901B80124
:1030E0001F910F910C94E7170F931F930091780293
:1030F0001091790220917A0230917B02602B712B22
:10310000822B932B1F910F910C94E7170F931F9312
:10311000009178021091790220917A0230917B021D
:1031200060237123822393231F910F910C94E7173F
:103130000F931F93009178021091790220917A02E7
:1031400030917B0260277127822793271F910F916F
:103150000C94E71708952EE0929F800D1124E82F1C
:10316000E695E695E695877051E001C0550F8A9582
:10317000EAF785E0E89FF0011124EF5BFD4F20E0C6
:1031800030E070E04081CB01022E02C09695879519
:103190000A94E2F78170819584278523842781939F
:1031A0002F5F3F4F2530310569F708952EE0929F3C
:1031B000800D1124682F669566956695982F9770F7
:1031C00085E0689FB001112440E050E080E0FB0101
:1031D000E40FF51FEF5BFD4F208130E0092E02C0A8
:1031E000369527950A94E2F721703327042E01C003
:1031F000220F0A94EAF7822B4F5F5F4F453051054B
:1032000031F70895BF92CF92DF92EF92FF920F9322
:103210001F93CF93DF938C01C0907802D0907902F6
:10322000E0907A02F0907B0280917C0290917D0286
:10323000A0917E02B0917F02C82AD92AEA2AFB2AED
:10324000CFE1D0E0D701C6010C2E04C0B695A795FA
:10325000979587950A94D2F780FD04C0219790F73F
:10326000B12C07C0BC2EB8018C2F0E94E406019738
:10327000A9F38B2DDF91CF911F910F91FF90EF90CC
:10328000DF90CF90BF900895CF93DF93EC010E9421
:103290000219BE010E94E406DF91CF9108951F93A9
:1032A000CF93DF93EB0190910802992321F0CB019A
:1032B0000E94441913C0882349F0CB010E940219CF
:1032C000182F682FCE010E94AB1804C0CB010E94BA
:1032D000D618182FBE01812F0E94E406DF91CF91EE
:1032E0001F91089580918002859585958595089513
:1032F000809180028770089590918002977081E09C
:1033000009F480E008958091A40208959091A402A8
:10331000892B8093A402089580959091A40289231B
:103320008093A40208958093A40208951092A402A9
:1033300008959091A302892B8093A302089580950C
:103340009091A30289238093A30208951092A3026F
:1033500008959091A202892B8093A20208958095EE
:103360009091A20289238093A20208951092A20252
:10337000089580918102089508950C94BC190C94CD
:10338000BD1990918102981721F0809381020C94CD
:10339000BF19089580918102882329F0109281023B
:1033A00080E00C94BF190895E0910601F0910701A7
:1033B0008091A4028083E0910601F0910701908141
:1033C0008091A302892B8083E0910601F09107018F
:1033D00090818091A202892B808380918102882331
:1033E00081F0E0910601F09107019081892B8083A3
:1033F00080910601909107010E94F11A81110E94AB
:10340000CA1980910601909107010C94620E0C94E8
:10341000BC1998E0899F90011124262B20938002EB
:103420000E940D18809180028595859585950C9454
:10343000071A1092800280E00C94071A20918002F3
:103440008095822380938002982F977079F430E0E2
:10345000482F082E000C550B2417350739F0859599
:10346000859585950E942E180C94191A089580E070
:10347000089580E090E00E94312521E08B3E9E4F30
:1034800009F020E0822F089582E090E00C94292535
:10349000682F82E090E00C94372583E090E00C9454
:1034A0002925682F83E090E00C943725CF9384E0A2
:1034B00090E00E942925C82F81E290E00E942925F2
:1034C0002C2F30E0A901582BCA01CF910895CF933A
:1034D000C92F682F84E090E00E9437256C2F81E28D
:1034E00090E0CF910C943725AB01BC018FE090E0C8
:1034F0000C944925AB01BC0183E190E00C94492573
:1035000060E070E0CB010C947A1A60E070E0CB01CF
:103510000E94741A0C94801A6BEE7EEF80E090E0AB
:103520000E94552560E082E090E00E94372560E02F
:1035300083E090E00E94372510927C0210927D0279
:1035400010927E0210927F0260E084E090E00E9480
:10355000372560E081E290E00E94372560E085E059
:1035600090E00E94372560E086E090E00E943725D9
:103570006FEF87E090E00E94372540E050E0BA010D
:1035800088E090E00E94492560E08DE090E00E9494
:10359000372540E050E0BA0188E190E00E944925DB
:1035A00060E087E190E00E94372540E050E0BA01FA
:1035B0008CE190E00E94492560E080E290E00E946A
:1035C000372540E050E0BA0188E190E00E944925AB
:1035D0000C94851A0C948C1A682F8EE090E00C9451
:1035E0003725FC01329680911201882331F08091B9
:1035F000D30287FF02C09EE101C096E080E09150B7
:1036000028F021912223D9F38F5FF9CF0895662303
:1036100051F1209112012223E9F02091D30227FFDA
:1036200019C0462F4695469546954E31E0F4677091
:1036300021E030E002C0220F331F6A95E2F7FC015F
:10364000E40FF11D828190E02823392381E0232BB0
:1036500069F409C0FC01329608962191621729F09D
:10366000E817F907D1F780E0089581E008959C01FB
:10367000FC0132969FEF80E04191461789F09F3F11
:1036800019F4411101C0982F8F5F8630A9F79F3F31
:1036900039F0F901E90FF11D97FDFA95628308955C
:1036A00008959C012A5F3F4FFC014281461301C0EF
:1036B0001282019682179307B9F70895262F26954F
:1036C000269526952E3168F4FC01E20FF11D6770F6
:1036D00021E030E001C0220F6A95EAF78281282BB1
:1036E00022830895262F2695269526952E3170F44F
:1036F000FC01E20FF11D677021E030E001C0220FF4
:103700006A95EAF7209582812823228308952091E3
:103710001201222329F02091D30227FD0C945E1B75
:103720000C94371B20911201222329F02091D302FF
:1037300027FD0C94721B0C94511B20911201FC016B
:103740003296222331F08091D30287FF02C08EE1AE
:1037500001C086E0DF011D928A95E9F7089508957A
:103760000C94AF1BCF930E9453030E94AC030E94A2
:10377000B01BC0E08C2F0E946104892B29F4CF5F1D
:10378000C630C1F780E001C081E0CF9108950C946C
:10379000AF1B0C94C71B8091D902843049F10E9461
:1037A000C91B80E00E94BC061092A60220E488E1BA
:1037B00090E00FB6F894A895809360000FBE209318
:1037C000600083B7817F846083BF83B7816083BFDC
:1037D0007894889583B78E7F83BF0FB6F894A895A9
:1037E00080916000886180936000109260000FBE3D
:1037F00008950C94AF1B0E94B7130E94490E0E94BB
:10380000BC060C94F91B1F920F920FB60F92112455
:103810008F939F93AF93BF938091A602811113C0A2
:103820008091CF029091D002A091D102B091D202AA
:103830004196A11DB11D8093CF029093D002A09319
:10384000D102B093D202BF91AF919F918F910F900F
:103850000FBE0F901F90189582E084BD93E095BD38
:103860009AEF97BD80936E0008952FB7F8948091DA
:10387000CF029091D002A091D102B091D2022FBF7D
:1038800008952FB7F8946091CF027091D002809183
:10389000D1029091D2022FBF08959C014FB7F894A6
:1038A0008091CF029091D002A091D102B091D2022A
:1038B0004FBF821B930B089578941F920F920FB6FF
:1038C0000F9211248F939F93AF93BF938091CF0258
:1038D0009091D002A091D102B091D2020196A11D87
:1038E000B11D8093CF029093D002A093D102B093E8
:1038F000D202BF91AF919F918F910F900FBE0F9009
:103900001F90189587E797E7909301088093000828
:103910009AE088E10FB6F894A895809360000FBEF6
:1039200090936000FFCF9093770180937601089584
:10393000AF92BF92CF92DF92EF92FF920F931F93BD
:10394000CF93C0E0CC24C394D12CE82EF12C8C2F43
:103950000E9461045C0100E010E0C601002E02C07C
:10396000880F991F0A94E2F78A219B21892B31F451
:103970000F5F1F4F0E30110581F70AC0602F7C2F9B
:1039800080E00E94C906E816F90691F781E004C0BC
:10399000CF5FC630E1F680E0CF911F910F91FF908D
:1039A000EF90DF90CF90BF90AF900895CF93C82F46
:1039B0008CE20E94981C882321F08C2FCF910C94CC
:1039C000981C80E0CF910895CF930E94391A8111FD
:1039D00002C00E94EA1AC5E6C15049F00E94AC0339
:1039E0008FE39CE90197F1F700C00000F5CF89E271
:1039F0000E94D61C81112AC18AE20E94D61C811124
:103A00000E94EA1A85E00E94D61C81110E94821C45
:103A10000E94441A8093A50287E00E94D61C882346
:103A2000A9F18BE10E94D61C882351F08091A50258
:103A300081FB222720F991E0922790FB81F90EC0AB
:103A40008EE00E94D61C882361F08091A50282FB43
:103A5000222720F991E0922790FB82F98093A5021A
:103A600015C080E10E94D61C9091A502882341F0E8
:103A700093FB222720F981E0822780FB93F904C081
:103A8000892F809580FB90F99093A5028091A502E3
:103A90000E94481A0E94561A9093D4028093D3022F
:103AA00080EE0E94D61C882341F08091D302982F8B
:103AB000909590FB80F98093D30289E30E94D61CF5
:103AC000882359F08091D30281FB222720F991E0CD
:103AD000922790FB81F98093D30282EE0E94D61C3C
:103AE000882359F08091D30282FB222720F991E0AC
:103AF000922790FB82F98093D30286EE0E94D61C17
:103B0000882359F08091D30283FB222720F991E08A
:103B1000922790FB83F98093D30283EE0E94D61CF8
:103B2000882359F08091D30284FB222720F991E069
:103B3000922790FB84F98093D30285E30E94D61CE0
:103B4000882359F08091D30285FB222720F991E048
:103B5000922790FB85F98093D30281E30E94D61CC3
:103B6000882359F08091D30286FB222720F991E027
:103B7000922790FB86F98093D30281E10E94D61CA4
:103B8000882359F08091D30287FB222720F991E006
:103B9000922790FB87F98093D3028091D302909172
:103BA000D4020E94671A87E20E94D61CC82F8EE1B9
:103BB0000E94D61C8111C2608FE10E94D61C811127
:103BC000C46080E20E94D61C8111C86081E20E941C
:103BD000D61C8111C06182E20E94D61C8111C06294
:103BE00083E20E94D61C8111C06484E20E94D61C2C
:103BF000882311F0C06802C0CC2329F08C2F0E94CA
:103C0000511A6C2F03C00E944D1A682F70E080E09B
:103C100090E00E94AD1760917802709179028091D6
:103C20007A0290917B020E94E5178FE00E94D61CD9
:103C3000882319F081E00E94EC1A85E10E94D61CCD
:103C4000882321F080E0CF910C94EC1ACF91089555
:103C50008091C7020895CF93DF9300D01F92CDB714
:103C6000DEB79091D902943019F589837B836A83FA
:103C700082E08093E9008FEF9091E800815095FDFC
:103C800006C095ED9A95F1F700008111F5CF80916E
:103C9000E80085FF0DC040E050E063E070E0CE0139
:103CA00001960E945D208091E8008E778093E80065
:103CB0000F900F900F90DF91CF910895BC0184E099
:103CC0000C942B1EBC0183E00C942B1E22E020934D
:103CD000E9002FEF3091E800215035FD06C035EDA9
:103CE0003A95F1F700002111F5CF2091E80025FF6A
:103CF0000BC040E050E066E070E00E945D208091E3
:103D0000E8008E778093E8000895CF93DF932091A9
:103D10001201222339F02091D30227FF03C060E271
:103D200022E002C068E021E02093E9002FEF30910B
:103D3000E800215035FD06C035ED3A95F1F7000059
:103D40002111F5CF2091E80025FF1DC0EC018091E5
:103D50001201811105C040E050E068E070E003C04E
:103D600070E040E050E0CE010E945D208091E800CC
:103D70008E778093E80080E2FE01A7EAB2E001902E
:103D80000D928A95E1F7DF91CF9108958091D80245
:103D9000811109C00E94EE210E944B228091E20015
:103DA00084608093E20008951092D80208950895E7
:103DB0000895089542E061EC81E00E94672142E2AB
:103DC00061EC82E00C9467218091DB02833009F47E
:103DD00060C030F4813071F0823009F499C00895E8
:103DE0008A3009F485C08B3009F46BC0893009F042
:103DF000A7C020C08091DA02813A09F0A1C0809169
:103E0000E800877F8093E8008091DE029091DF02D6
:103E1000892B21F460E287EA92E003C060E080E051
:103E200090E070E00E94A8208091E8008B7780935A
:103E3000E80008958091DA02813209F081C0809112
:103E4000DE029091DF02029708F07AC08091E800CC
:103E5000877F8093E8008091E80082FD05C0809113
:103E6000D9028111F8CF6CC02091F3008091F2004B
:103E700090E0922B029729F48091F1008B7F8130A2
:103E800021F48091F1008093C7028091E8008B7744
:103E900053C08091DA02813A09F052C08091DE026B
:103EA0009091DF02892B09F04BC08091E800877F59
:103EB0008093E8008091E80080FFFCCF80911201A0
:103EC00036C08091DA028132D9F58091DE0290917C
:103ED000DF02892BA9F58091E800877F8093E800B5
:103EE0000E949C218091DC02809312010C94B713F4
:103EF0008091DA02813221F58091E800877F8093FA
:103F0000E8000E949C218091DD028093C802089500
:103F10008091DA02813AA1F48091E800877F809352
:103F2000E8008091E80080FFFCCF8091C802809378
:103F3000F1008091E8008E778093E8000C949C213A
:103F4000089584B7877F84BF0FB6F894A8958091B1
:103F50006000886180936000109260000FBE90E066
:103F600080E80FB6F89480936100909361000FBED3
:103F70000E94E10E0E94EE210E944B228091E200FD
:103F800084608093E20078940E94E0240E94EB0E0B
:103F900088E091E00E94440E8091D9028530A9F416
:103FA0008091D902853079F40E94CB1B8091D70291
:103FB0008823B1F30E94B21B882391F30E9447200B
:103FC0000E94B713EDCF0E94FB1B0E94FE0E0E94C1
:103FD000D50E0E94D40EE0CF0C94EE1F292F33276C
:103FE00023303105C9F060F42130310581F02230F1
:103FF000310509F044C08BE390E028EC33E043C086
:1040000021323105E1F02232310549F138C082E137
:1040100090E023E034E037C099278130910549F0E2
:1040200028F0029761F5ECE9F3E005C0E4ECF3E079
:1040300002C0E0EBF3E0849190E09F0124C06115A1
:10404000710541F061307105D1F489E090E023EF12
:1040500033E019C089E090E02AED33E014C0611527
:10406000710541F06130710551F486EB90E025E176
:1040700034E009C080E490E02BEC34E004C080E040
:1040800090E020E030E0FA0131832083089580E160
:1040900089BD82E189BD09B400FEFDCF8091D800C1
:1040A0008F7D8093D8008091E00082608093E00053
:1040B0008091E00081FDFCCF0895CF92DF92EF92D6
:1040C000FF920F931F93CF93DF93EC018B017A0143
:1040D0000E94BB21811133C0E114F10439F0F701D2
:1040E00080819181081B190BC80FD91FC12CD12CBD
:1040F0000115110519F18091E80085FD16C0809128
:10410000E8008E778093E800E114F10449F0F701AC
:1041100080819181C80ED91ED182C08285E00FC0F6
:104120000E94BB21882321F30AC089918093F1006A
:1041300001501109FFEFCF1ADF0ADACF80E0DF91DB
:10414000CF911F910F91FF90EF90DF90CF90089546
:104150002091E0023091E1022617370748F06115FF
:10416000710539F42091E8002E772093E80001C012
:10417000B901FC0120E06115710579F18091D90246
:104180008823F1F18530F1F18091E80083FD3CC096
:104190008091E80082FD2EC08091E80080FFEBCF87
:1041A0002091F3008091F20090E0922B611571054F
:1041B00051F08830910538F421912093F10061503D
:1041C00071090196F3CF21E0089709F020E0809172
:1041D000E8008E778093E800CECF2111CFCF0AC0C0
:1041E0008091D902882361F0853061F08091E800E8
:1041F00083FD0AC08091E80082FFF2CF80E008953D
:1042000082E0089583E0089581E008952091E0021E
:104210003091E1022617370748F06115710539F42E
:104220002091E8002E772093E80001C0B901FC013D
:1042300020E06115710591F18091D902882309F47C
:1042400040C0853009F43FC08091E80083FD3DC047
:104250008091E80082FD2FC08091E80080FFE9CFC7
:104260002091F3008091F20090E0922B611571058E
:1042700059F08830910540F424912093F100319653
:10428000615071090196F2CF21E0089709F020E012
:104290008091E8008E778093E800CBCF2111CCCFBE
:1042A0000AC08091D902882361F0853061F0809145
:1042B000E80083FD0AC08091E80082FFF2CF80E031
:1042C000089582E0089583E0089581E00895982F8D
:1042D000973068F59093E900981739F07091EC00E9
:1042E0002091ED005091F00003C0242F762F50E074
:1042F00021FD02C09F5FECCF3091EB003E7F3093F9
:10430000EB003091ED003D7F3093ED003091EB00FC
:1043100031603093EB007093EC002093ED005093EC
:10432000F0002091EE0027FDE5CF80E008958F702A
:104330008093E90081E008958091DA0287FF11C03F
:104340008091E80082FD05C08091D9028111F8CFEB
:1043500011C08091E8008B770BC08091D90288232F
:1043600049F08091E80080FFF8CF8091E8008E77D7
:104370008093E80008952091E4003091E50095E6EF
:104380004091EC00842F817040FF23C08091E800B1
:1043900080FD1DC08091D902882399F0853099F065
:1043A0008091EB0085FD11C04091E4005091E50043
:1043B0002417350729F3915011F09A01E1CF84E0D9
:1043C000089582E0089583E0089581E0089580E0F3
:1043D00008954091E80042FFDDCF08950E945C22DD
:1043E0000E946422E0EEF0E0808181608083E8ED4D
:1043F000F0E080818F77808319BCA7EDB0E08C91CD
:104400008E7F8C9380818F7E80831092D802089556
:104410000F931F93CF93DF930E945C220E9464222C
:10442000C8EDD0E088818F77888388818068888311
:1044300088818F7D888319BC1092D9021092D50291
:104440001092D7021092D60200EE10E0F80180819F
:104450008B7F808388818160888342E060E080E098
:104460000E946721E1EEF0E080818E7F8083E2EEA2
:10447000F0E0808181608083808188608083F801A2
:1044800080818E7F8083888180618883DF91CF9156
:104490001F910F910895E8EDF0E080818F7E808379
:1044A000E7EDF0E080818160808384E082BF81E07D
:1044B0008093D8020C940822E8EDF0E080818E7F92
:1044C00080831092E20008951092DA001092E100C9
:1044D00008951F920F920FB60F9211242F933F93BE
:1044E0004F935F936F937F938F939F93AF93BF93FC
:1044F000EF93FF938091E10082FF0BC08091E20077
:1045000082FF07C08091E1008B7F8093E1000E94D1
:10451000DF248091DA0080FF1FC08091D80080FFE7
:104520001BC08091DA008E7F8093DA008091D900E1
:1045300080FF0DC080E189BD82E189BD09B400FE24
:10454000FDCF81E08093D9020E94C61E05C019BC30
:104550001092D9020E94D41E8091E10080FF19C000
:104560008091E20080FF15C08091E2008E7F8093F1
:10457000E2008091E20080618093E2008091D800A7
:1045800080628093D80019BC85E08093D9020E9494
:10459000D81E8091E10084FF30C08091E20084FF4A
:1045A0002CC080E189BD82E189BD09B400FEFDCF48
:1045B0008091D8008F7D8093D8008091E1008F7E1C
:1045C0008093E1008091E2008F7E8093E2008091F1
:1045D000E20081608093E2008091D502882311F08F
:1045E00084E007C08091E30087FD02C081E001C044
:1045F00083E08093D9020E94D91E8091E10083FF5D
:1046000029C08091E20083FF25C08091E100877F6F
:104610008093E10082E08093D9021092D5028091CC
:10462000E1008E7F8093E1008091E2008E7F809395
:10463000E2008091E20080618093E20042E060E06D
:1046400080E00E9467218091F00088608093F000F4
:104650000E94D71EFF91EF91BF91AF919F918F91D3
:104660007F916F915F914F913F912F910F900FBE6E
:104670000F901F9018951F920F920FB60F92112452
:104680002F933F934F935F936F937F938F939F935A
:10469000AF93BF93CF93DF93EF93FF93C091E90064
:1046A000CF708091EC00D82FD17080FDD0E81092AF
:1046B000E9008091F000877F8093F00078940E9459
:1046C0007F231092E9008091F00088608093F000D1
:1046D000CD2BCF70C093E900FF91EF91DF91CF9187
:1046E000BF91AF919F918F917F916F915F914F910A
:1046F0003F912F910F900FBE0F901F9018951F9311
:10470000CF93DF93CDB7DEB7AA970FB6F894DEBF8D
:104710000FBECDBFEAEDF2E08091F100819322E07F
:10472000E23EF207C9F70E94E41E8091E80083FF91
:104730002EC18091DA029091DB02492F50E04A307D
:10474000510508F024C1FA01EC58FF4F0C940F25D5
:10475000803821F0823809F01AC108C08091D60251
:104760009091D702992389F082600FC08091DE0278
:104770008F70873008F00BC18093E9008091EB00C7
:1047800085FB882780F91092E9009091E800977FD7
:104790009093E8008093F1001092F100D1C0282F8F
:1047A0002D7F09F0F4C0882319F0823061F0EFC04A
:1047B0008091DC02813009F0EAC0933009F080E09A
:1047C0008093D7022EC08091DC0281112AC0809193
:1047D000DE028F702FEF280F263008F0D8C08093AC
:1047E000E9002091EB0020FF1CC0933021F4809160
:1047F000EB00806214C09091EB0090619093EB000D
:1048000021E030E0A90102C0440F551F8A95E2F76C
:104810004093EA001092EA008091EB008860809358
:10482000EB001092E9008091E800877F8093E80018
:104830000E949C21ACC08111AAC01091DC021F779C
:104840008091E3008078812B8093E3008091E800E1
:10485000877F8093E8000E949C218091E80080FF80
:10486000FCCF8091E30080688093E300111102C0C7
:1048700082E001C083E08093D90289C080588230F1
:1048800008F085C08091DC029091DD028C3D53E000
:10489000950779F583E08A838AE289834FB7F89494
:1048A000DE01139620E03EE051E2E32FF0E050936A
:1048B0005700E49120FF03C0E295EF703F5FEF7077
:1048C0008E2F90E0EA3010F0C79601C0C0968D930D
:1048D0009D932F5F243149F74FBF8091E800877F78
:1048E0008093E8006AE270E0CE0101960E94A82061
:1048F00016C06091DE027091DF02AE014F5F5F4F24
:104900000E94EC1FBC01892B09F441C09091E80082
:10491000977F9093E80089819A810E940621809177
:10492000E8008B778093E80032C0803881F5809171
:10493000E800877F8093E8008091D5028093F100A2
:104940008091E8008E7772CF811121C08091DC02C6
:104950009091DD0299270297D4F48091E800877F37
:104960008093E8008091DC028093D5020E949C2114
:104970008091D502811106C08091E30087FD02C0BD
:1049800081E001C084E08093D9020E94DA1E809108
:10499000E80083FF0AC08091E800877F8093E800E9
:1049A0008091EB0080628093EB00AA960FB6F8949A
:1049B000DEBF0FBECDBFDF91CF911F910895089547
:1049C000CF938091D9028823A1F0C091E900CF70E4
:1049D0009091EC00892F817090FD80E8C82B109297
:1049E000E9008091E80083FD0E947F23CF70C0938F
:1049F000E900CF91089597FB072E16F4009407D095
:104A000077FD09D00E94152507FC05D03EF490954E
:104A100081959F4F0895709561957F4F0895EE0F92
:104A2000FF1F0590F491E02D0994AA1BBB1B51E1D7
:104A300007C0AA1FBB1FA617B70710F0A61BB70B0E
:104A4000881F991F5A95A9F780959095BC01CD01B3
:104A50000895F999FECF92BD81BDF89A992780B546
:104A60000895A8E1B0E042E050E00C945D25262FC7
:104A7000F999FECF92BD81BDF89A019700B4021654
:104A800039F01FBA20BD0FB6F894FA9AF99A0FBE02
:104A900008950396272F0E9438250E943725252F39
:104AA0000E943825242F0C9438250196272F0E9428
:104AB00038250C943725DC01CB01FC01F999FECF98
:104AC00006C0F2BDE1BDF89A319600B40D92415096
:0A4AD0005040B8F70895F894FFCFA6
:104ADA002808643C07148202281E851E661E621E70
:104AEA005E1E01E200E900EA00B500B600B700CD9B
:104AFA00008301CC008A019201940121022302243D
:104B0A00022502260227022A02B300B4006F0070AF
:104B1A0000818283E200E900EA00B500B600B7002E
:104B2A00CD008301CC008A01920194012102230263
:104B3A0024022502260227022A02B300B4006F00CB
:064B4A007000818283006F
:00000001FF
