:100000000C9489020C94D0020C94D0020C94D0026F
:100010000C94D0020C94D0020C94D0020C94D00218
:100020000C94D0020C94D0020C9442220C94142311
:100030000C9446190C94D0020C94D0020C94D0026B
:100040000C94D0020C94D0020C94D0020C94D002E8
:100050000C94D0020C9493190C94D0020C94D002FE
:100060000C94D0020C94D0020C94D0020C94D002C8
:100070000C94D0020C94D0020C94D0020C94D002B8
:100080000C94D0020C94D0020C94D0020C94D002A8
:100090000C94D0020C94D0020C94D0020C94D00298
:1000A0000C94D0020C94D0020C94D002A80EA80E8E
:1000B000DA0EDA0E200F3E0F5E105E10490FDE0FD3
:1000C000EF0FEF0F4E105E105E1057100C110C1159
:1000D0001E111E1115111E111E111E110C110C11D5
:1000E0001A111E111E111A118123A823A024A8235E
:1000F000A024F4231724A0246E247D2400000000F3
:1001000000000000000000000000000000000000EF
:1001100000000000000000002B0014001A0008007E
:1001200015001700000000001C0018000C00120051
:1001300013004C00E40004001600070009000A0048
:10014000000000000B000D000E000F0034002D0019
:10015000E1001D001B000600190005000000000062
:1001600011001000360037003300DA5C0000000098
:1001700000000000E7000000000000000000E600B2
:1001800000000000000000000000000002512A00F2
:100190000000000000000000000000002C000151E1
:1001A000000000000000000000000000000000004F
:1001B000000000000000000000000000000000003F
:1001C000290000001F0200002102000000000000C2
:1001D00023020000000000000000010001001E00DA
:1001E0001F00200021002200000000002300240046
:1001F000250026002700010001000000000000008B
:1002000000000000000000000000000000000000EE
:1002100000000100000000000000000001000000DC
:1002200000000000000001000000000000000000CD
:100230000000000003510100000000000000000069
:1002400000000000010001000000000000000000AC
:10025000000000000000000000000000000000009E
:10026000000000000000000001001E0224022F0216
:10027000300231020000000035003502340238023D
:1002800031000100010022022002260227022E0076
:100290000000000038002E022D002D023302010064
:1002A0000100370236022F0030000000000000007D
:1002B0000000250200000000000001000000000016
:1002C000000000000100000000000000000001002C
:1002D000000000000000000000000000010001001C
:1002E00000000000000000000000000001000351B9
:1002F00000000000000000000000000000000000FE
:1003000000000000000000000000000000000000ED
:10031000010000000000AA00A90000000000000089
:1003200000000000000000000000010001000000CB
:10033000BC00A800AE00BB0000000000500051004F
:1003400052004F000000010001000000000000000A
:10035000000000000000000000000000000000009D
:10036000000001000000000000000000010000008B
:10037000000000000000010000000000000000007C
:10038000000000000100010000000000000000006B
:100390000000000001000100000000001203450001
:1003A000720067006F0044006F006E00650000007F
:1003B00012034B002E0054002E0045002E00430077
:1003C0002E0000000403090409023B00020100A002
:1003D000FA090400000103010100092111010001D3
:1003E0002240000705810308000A090401000103F7
:1003F00000000009211101000122BC000705820351
:1004000020000A1201100100000008EDFE0DE601B7
:10041000000102000105010902A10185020901A1F3
:1004200000050919012905150025019505750181AA
:1004300002950175038101050109300931158125F6
:100440007F95027508810609381581257F9501750C
:10045000088106050C0A38021581257F950175086B
:100460008106C0C005010980A101850319012AB7D1
:1004700000150126B700950175108100C0050C0913
:1004800001A101850419012AA002150126A00295E7
:100490000175108100C005010906A1018505050748
:1004A00019E029E715002501950875018102050766
:1004B000190029EF1500250195F075018102050845
:1004C00019012905950575019102950175039101A1
:1004D000C005010906A101050719E029E715002556
:1004E00001950875018102950175088101050719BB
:1004F0000029FF150026FF009506750881000508F4
:100500001901290595057501910295017503910160
:10051000C00011241FBECFEFDAE0DEBFCDBF04B6AE
:1005200003FE27C08091D8029091D902A091DA02EF
:10053000B091DB028730904BA740B04BD1F41092C2
:10054000D8021092D9021092DA021092DB0214BE85
:1005500084B7877F84BF0FB6F894A8958091600018
:10056000886180936000109260000FBEE0E0F8E3C5
:10057000099511E0A0E0B1E0ECE8FAE402C00590D2
:100580000D92A637B107D9F722E0A6E7B1E001C086
:100590001D92A83DB207E1F70E94821F0C944425EA
:1005A0000C9400001092B9008AE08093B80008957E
:1005B00094EA9093BC009091BC0097FFFCCF90917F
:1005C000B900987F983021F0903111F081E00895C2
:1005D0008093BB0084E88093BC008091BC0087FFBF
:1005E000FCCF8091B900887F883111F0803471F799
:1005F00080E008950C94D80284E98093BC00809137
:10060000BC0084FDFCCF08958093BB0084E88093F8
:10061000BC008091BC0087FFFCCF9091B900987F0F
:1006200081E0983209F480E0089584E88093BC006A
:100630008091BC0087FFFCCF8091BB00089580B300
:100640008F7080BB81B38F7081BB84B1897F84B987
:1006500085B1897F85B90C949D046E98769A8AB18C
:1006600083768AB98BB18C698BB93E98469A249867
:100670002C9A0C94D20408950C943B030C943B03E5
:100680000E941F030E942D03EAECF1E086E791E04F
:1006900011921192DC012EE01D922150E9F70E9685
:1006A00021E08A3C9207A1F70C944B060E941F039D
:1006B0000E942D03EAECF1E0118210821382128273
:1006C000158214821782168211861086138612866E
:1006D00008952EE0829FC0011124FC01EA58FE4FCC
:1006E00020E030E040E050E061E070E0908199234C
:1006F00019F09150908309C0CB01022E02C0880FDF
:10070000991F0A94E2F7482B592B2F5F3F4F3196E0
:100710002E30310559F7CA010895CF932EE0629F1C
:10072000B001112420E030E0A1E0B0E0C5E0AD016F
:10073000022E02C0440F551F0A94E2F748235923A2
:10074000452B31F0FB01E20FF31FEA58FE4FC08347
:100750002F5F3F4F2E30310551F7CF9108954F92C3
:100760005F927F928F929F92AF92BF92CF92DF92D1
:10077000EF92FF920F931F93CF93DF930E94B804E1
:100780000AEC11E0C0E0D1E0C33099F028F4C130A8
:1007900051F0C23059F004C0C43071F0C53079F066
:1007A000849A8C980EC0859A8D980BC0869A8E98E4
:1007B00008C0879A8F9805C0219A299802C0229A6A
:1007C0002A988C2F0E94A10480EA8A95F1F78C2F39
:1007D0000E9469035C010E9403054B9904C060E418
:1007E000E62EF12C02C0E12CF12C4A9903C0A0E2C4
:1007F000B0E002C0A0E0B0E04C9904C050E1452E4A
:10080000512C02C0412C512C369903C068E070E095
:1008100002C060E070E029B1022E000C330B20957D
:1008200030952227330F221F3327220F331F220F29
:10083000331F669903C042E050E002C040E050E040
:1008400073B0F801C080D1807294EFE07E227D26E3
:1008500070FA882480F8912C882999298E299F295B
:100860008A2B9B2BF201E82BF92B6E2B7F2B262B4F
:10087000372B422B532B4C255D25A422B522AC24CB
:10088000BD246C2FC6018A259B250E948D03F8018B
:10089000A192B1928F010E941F03CF5FC63009F071
:1008A00073CF0E94550681E0DF91CF911F910F9188
:1008B000FF90EF90DF90CF90BF90AF909F908F9080
:1008C0007F905F904F900895E82FF0E0EE0FFF1FAC
:1008D000E653FE4F8081918108950895853008F098
:1008E0008F5F2091D60130E0A90102C05595479550
:1008F0008A95E2F7CA01817008951F93CF93DF9321
:10090000C091D701CC23A1F0D62F182F80E40E94EC
:10091000D802C82F81110AC0812F0E940403C82F5A
:10092000811104C08D2F0E940403C82F0E94FC0275
:100930008C2FDF91CF911F9108956FEF81E00C9480
:100940007D048F5F61E070E001C0660F8A95EAF771
:10095000609581E00C947D046FEF82E00E947D043D
:100960006FEF8CE00E947D046FEF81E00C947D04BA
:1009700080E40E94D80281110CC00E94FC02809188
:10098000D70181110EC081E08093D7010E94AC0491
:1009900006C08091D701813021F41092D7010C94C8
:1009A000FA1008950E94D2020C94B8040F931F937A
:1009B000CF93DF93C091D701CC23D1F08B01D82FF7
:1009C00080E40E94D802C82F811110C08D2F0E9490
:1009D0000403C82F81110AC081E40E94FA02C82FC3
:1009E000811104C00E941503F80180830E94FC025B
:1009F0008C2FDF91CF911F910F91089566ED71E0DB
:100A000082E10C94D6048F929F92AF92BF92EF92A4
:100A1000FF920F931F93CF93DF930E94FE04C0E0D9
:100A2000D0E000E010E08DE0E82EF12C812C912C3C
:100A3000540183948C2F0E946E04882371F0C701A7
:100A40008C1B9D0BA501940104C0220F331F441F72
:100A5000551F8A95D2F7022B132B2196CE30D10544
:100A600049F7C801DF91CF911F910F91FF90EF904F
:100A7000BF90AF909F908F90089584B1886684B99D
:100A800085B1877985B9209A289A559A5D9A0895F3
:100A900025982D9826982E9823982B982098289A58
:100AA000259A2D9A2FEF80E792E0215080409040C8
:100AB000E1F700C00000269A2E9A2FEF80E792E01F
:100AC000215080409040E1F700C00000239A2B9A0B
:100AD0002FEF80E792E0215080409040E1F700C086
:100AE000000025982D982FEF80E792E0215080405C
:100AF0009040E1F700C0000026982E982FEF80E785
:100B000092E0215080409040E1F700C0000023981F
:100B10002B9825982D9826982E9823982B982098D6
:100B2000289A08950E943D050E9448050C943C03B4
:100B30009C013A9521153F4138F5DC01AA27B27096
:100B4000AC01442754709C012227387094FF0FC0D9
:100B500090FF02C080E101C080E0AB2B09F0806211
:100B6000452B09F08064232B69F080680BC0892F26
:100B70008170AB2B09F08260452B09F08460232B38
:100B800009F08860FB0109940895CF93DF93EC018D
:100B9000805E9109089710F0209719F464E67EE0D2
:100BA00002C062ED70E1CE010E9498058C2FDF91AA
:100BB000CF910C943F0DCF93DF93EC010E94E90D90
:100BC000CE01805E9109089710F0209719F46BE62A
:100BD0007EE002C069ED70E1CE01DF91CF910C940F
:100BE0009805CF93DF93EC010E94C505CE01DF91FC
:100BF000CF910C94DB0581E0089581E008950C9479
:100C0000FD0508950C9401061F93CF93DF9300D048
:100C100000D01F92CDB7DEB749835A836B833091E2
:100C2000EF0189819A81311114C0662359F0222382
:100C300049F00E944516182F682F89819A810E94D9
:100C4000EE1503C00E941916182F69817A81812F31
:100C500004C00E94451669817A810F900F900F9011
:100C60000F900F90DF91CF911F910C94CC06FC0157
:100C7000262F408151816281738184810C94040606
:100C8000CF93DF93EC0160E00E943706BE01DF9155
:100C9000CF910C9402060E947A17811102C00E9423
:100CA0002B180E94EB080C9492050C943E03282FFD
:100CB0002F7041F0822F90E02A3010F44D96089565
:100CC0000697089587E290E0089508950E94FA102B
:100CD0000E9465062FEF84E39CE021508040904005
:100CE000E1F700C000000C94B9190F931F93CF9344
:100CF000DF93EC0161E00E9437068C01BE010E9487
:100D0000FF05882379F1BE01C8010E947509882377
:100D100049F1BE01C8010E94060A882319F1BE01EB
:100D2000C8010E94580A8823E9F0BE01C8010E9448
:100D3000830B8823B9F08A81882369F001158CE53B
:100D4000180731F00F3D1C4531F40E942B180AC0E2
:100D50000E94660607C0CE01DF91CF911F910F91CF
:100D60000C94FB0580E0DF91CF911F910F910895C6
:100D700008950C94B80681E008950C94BB06CF93B7
:100D8000C82F0E94B9068C2F0E94BD06CF910895EE
:100D900080E090E00895089524E5829FC001112429
:100DA000FC012EE0729FE00DF11D1124E60FF11DF4
:100DB000EE0FFF1FE450FF4F859194910895880F27
:100DC000991FFC01E456FC4F859194910895CF93AF
:100DD000DF930E94CC060E94FF07EC01811590452D
:100DE00008F041C0C11580E4D80708F0D1C0C83E62
:100DF000D10510F5C03ED10508F0FDC0C83AD105B7
:100E000078F4C53AD10508F0A2C0C130D10509F483
:100E1000F2C008F4EEC0C430D10508F0ECC0E9C05F
:100E2000CF3BD10508F49BC0C03CD10508F4E1C01C
:100E3000CE01805C91099EC0C11590E2D90758F49B
:100E4000C11521E0D20708F0D6C0C03FD10508F493
:100E5000D0C0D065D0C0C11580E3D80708F08EC0DF
:100E6000CE019F7087C0C11595E5D90708F043C032
:100E7000C11524E5D20708F0A2C0C11582E5D80744
:100E800008F5C11591E5D90708F085C0CE0174E0D9
:100E9000969587957A95E1F783709C2F937021E062
:100EA00030E002C0220F331F9A95E2F73C68382BDE
:100EB000CF70C695C69580E2C89FE0011124C22B71
:100EC000D32B99C09E01237033278C2F869586954E
:100ED000C115D34508F064C0C1E0D0E002C0CC0F1A
:100EE000DD1F2A95E2F720E2829FC0011124C82B62
:100EF000D92BDC6880C0C11529E5D207A0F4C11543
:100F000088E5D80708F060C0C11596E5D90708F054
:100F100070C08C2F0E9493088F71C82FD0E0DC2FF7
:100F2000CC27D06268C0C1152AE5D20708F451C0A9
:100F3000CE0190568115904208F05BC08D2F8F71C5
:100F40000E949308DD27D0628F71D82B54C0C55AF8
:100F5000D0E0CF5BDE4FC881D0E0D0644CC0C85A2F
:100F6000D0E0CC0FDD1FCD5EDE4F0990D881C02DC3
:100F7000D46441C00E94DF06EC013DC0CE01992738
:100F8000D3FF03C0EC01D86C36C0EC01D06C33C089
:100F9000DF70D06A30C0DC2FCC27C16FD06A2BC085
:100FA000C1E0D0E002C0CC0FDD1F2A95E2F720E2BD
:100FB000829FC0011124C82BD92BDA681CC0DC2FFA
:100FC000CC27C46FD06A17C0DC2FCC27C06FD06A83
:100FD00012C08C2F8F700E94930894E0D695C7950D
:100FE0009A95E1F7CF70D0E0DC2FCC27D069C82BE1
:100FF00002C0C0E0D0E0CE01DF91CF9108958238E9
:10100000910569F1B0F48133910509F46DC048F49C
:101010008932910509F463C08A32910509F469C0E7
:1010200008958533910509F455C089339105B9F0C8
:101030000895833E910569F138F4803E9105B1F041
:10104000823E910509F10895863E9105A9F1873EFA
:101050009105B9F1843E910509F064C023C0209147
:10106000C90220FD4FC021FD4DC008958091C902E5
:1010700080FD44C08091CA0280FF44C08091C902B3
:1010800084FD42C083EE4DC08091C90282FF38C00A
:10109000F5CF8091C90282FD33C08091CA0280FDE4
:1010A00031C0ECCF8091CA0281FF32C08091C90269
:1010B00084FD2AC087EE35C08091C90283FF26C017
:1010C000F5CF8091C90283FD21C08091CA0281FDC4
:1010D0001FC0ECCF8091C90285FD1CC01DC080914E
:1010E000C90285FD19C016C08091C90286FD16C0CF
:1010F00017C08091C90286FD13C010C089E311C0DA
:1011000082EE0FC080EE0DC080E00BC086EE09C0FD
:1011100084EE07C089E205C085E303C08AE201C00E
:1011200081E390E008959091C90292FF0DC0282FAD
:101130002871283019F4877F846006C0282F247115
:10114000243011F48B7F886093FF0DC0282F287105
:10115000283119F4877E846106C0282F2471243138
:1011600011F48B7E88612091CA0220FF0DC0382FB8
:101170003871383019F4877F816006C0382F31719B
:10118000313011F48E7F886021FF0DC0282F287127
:10119000283119F4877E816106C0282F2171213101
:1011A00011F48E7E886194FD877E0895CF93DF933E
:1011B00097FF0DC0FB012281222349F0EC010E9420
:1011C0000109CE019F770E9458090E943A0981E0E7
:1011D000DF91CF9108958CE090E00E94022590E08D
:1011E000A0E0B0E08093BF029093C002A093C10240
:1011F000B093C20208956091BF028CE090E00C941D
:1012000010250E94C50B869581708093C402909131
:10121000BF02913029F4882319F089E30E94510E0E
:101220000E94C6168093C3020E94D9168091BF0205
:10123000813071F048F0823081F08430A1F486EE84
:101240000E94510E88E10DC082EE0E943F0D0BC03E
:1012500088E193E00E94F10506C082EE0E943F0DF6
:1012600087E50E94510E8FE39CE90197F1F700C0DA
:10127000000008958091BF02813039F078F082300B
:1012800069F0843089F488E20DC08CE20E94510E2E
:101290008091C402882341F089E304C082EE0E9459
:1012A000E90D02C00E94510E8091C3020C94D61623
:1012B0000F931F93CF93DF938C01CCE0D0E0C80154
:1012C0000C2E02C0969587950A94E2F78F700E94C3
:1012D00057060E94F1052497CC3F8FEFD80779F786
:1012E000DF91CF911F910F9108950F931F93CF938B
:1012F000DF93EC018B01FB018281882361F00E9466
:10130000C616CE01825E9C458530910520F48093FF
:10131000BF020E94FB08B801CE01DF91CF911F915F
:101320000F910C94D6080F931F93CF93DF93C42F84
:10133000D22FFC0182818823C9F04093DA010E94F8
:1013400078199093D9018093D80180E28C0F88306E
:1013500008F057C0C77081E001C0880FCA95EAF74E
:10136000DF91CF911F910F910C94640E8091DA015F
:10137000481330C08091D8019091D9010E948419FE
:10138000883C910538F510E21D0FCD17B9F080E2C9
:101390008C0F883040F4C77081E001C0880FCA9577
:1013A000EAF70E946B0E183028F581E09D2F9770A8
:1013B00001C0880F9A95EAF70E94640E802F0E9460
:1013C000510E1830F0F4D77081E001C0880FDA9523
:1013D000EAF70AC080E28C0F883098F4C77081E089
:1013E00001C0880FCA95EAF7DF91CF911F910F9145
:1013F0000C946B0E802FDF91CF911F910F910C9465
:10140000510EDF91CF911F910F9108950F939C0181
:10141000CB01243F4CE5340731F188F4293DFCE54C
:101420003F07D9F02A3D4CE5340779F1283D3C458A
:10143000A9F506E221EE41EE68ED7CE52BC0263FE2
:10144000FCE53F07E1F0A8F0273F3C4539F507E20E
:1014500025EE46EE67EF7CE51DC007E225EE45EE82
:1014600069ED7CE517C006E221EE40EE64EF7CE515
:1014700011C007E225EE44EE65EF7CE50BC006E205
:1014800021EE42EE66EF7CE505C008E221E045EE84
:101490006AED7CE50E94930980E008C0FC0182812E
:1014A000882319F01092DA0101C081E00F910895AC
:1014B000CF93DF93EC01FB018281882309F41FC1E4
:1014C000C230FCE5DF0708F41BC1C6319CE5D90733
:1014D00038F09E012B5F3C452930310508F010C1E2
:1014E0000E9497179093CA028093C902C031ECE51D
:1014F000DE0709F4C3C008F041C0C8308CE5D80746
:1015000009F49AC0F0F4C430ECE5DE0709F487C0B2
:1015100068F4C2308CE5D80709F477C0C330DC45E5
:1015200009F0E3C08091C902826076C0C630ECE564
:10153000DE0709F46EC008F07BC08091C9028860A4
:101540006BC0CC308CE5D80709F485C068F4CA308C
:10155000ECE5DE0709F474C008F079C00E94FA10C7
:101560008091C902806858C0CE308CE5D80709F454
:1015700076C008F07FC08091C9028BC0CC3FECE5FB
:10158000DE0709F44FC018F5C3318CE5D80709F41C
:101590007DC078F4C131ECE5DE0709F473C0C231D7
:1015A000DC4509F0A2C00E94FA108091C9028F7731
:1015B00033C0C5318CE5D80709F472C008F486C081
:1015C000CB3FDC4509F091C08091CA023EC0C115F5
:1015D000FDE5DF0709F45FC058F4CE3F9CE5D9076D
:1015E00009F444C008F43FC08091CA0282602DC053
:1015F000C230FDE5DF0709F475C008F45DC0C330F3
:10160000DD4509F072C080E06EC08091C902816042
:1016100003C08091C90280618093C90266C0809135
:10162000C90211C08091CA0282608093CA025DC063
:101630008091C9028062F0CF8091C9028064ECCFB2
:101640008091C90288608460E7CF8160EECF80918D
:10165000C9028E7FE1CF8091C9028D7FDDCF80915D
:10166000C902877FD9CF8091CA0218C08091CA026F
:101670008D7FDBCF8091C9028F7ECECF8091C90252
:101680008F7DCACF8091C9028F7BC6CF8091C9025E
:10169000877F8B7FC1CF8091CA028D7F8E7FC5CF20
:1016A0008091C90282FB222720F991E0922790FBCA
:1016B00082F990FB83F9B0CF8091CA02982F909560
:1016C00091708E7F892B90FB81F9AFCF0E94FA1029
:1016D0008091C90287FB222720F991E0922790FB95
:1016E00087F99ACF81E00E942D188091C9029091CC
:1016F000CA020E94A8170E94FA1080E001C081E08F
:10170000DF91CF910895CF93DF9386319C4541F5CA
:10171000EB010E94C616982F8A812091000130911A
:101720000101882379F09A7A81E009F480E08093BE
:10173000DB01911102C069E201C065E3C9010E94A9
:10174000C8180AC08091DB01811102C069E201C0A2
:1017500065E3C9010E94D3180E94171780E001C0F9
:1017600081E0DF91CF9108959093E1018093E001B2
:101770000895E091E001F091E101309721F00190AE
:10178000F081E02D099480E00895E091E001F0916E
:10179000E101309711F480E008950190F081E02D8F
:1017A00009950895E091E001F091E101309799F0F9
:1017B00020911201222359F02091C90227FF07C06E
:1017C000DC012C9111962C93119725E02C9302802B
:1017D000F381E02D09940895E091E001F091E10199
:1017E000309739F022E0DC012C930480F581E02D64
:1017F000099408952091DE013091DF0128173907FF
:1018000071F09093DF018093DE01E091E001F091AF
:10181000E101309721F00680F781E02D09940895C9
:101820002091DC013091DD012817390771F0909388
:10183000DD018093DC01E091E001F091E10130975E
:1018400021F00084F185E02D0994089585B7806822
:1018500085BF85B7806885BF089581E008950C94A1
:101860002D0C08950C94310C0C94310C0C94340C08
:101870000C94310C0C94380C0C94310C0E94260CF6
:101880000E943C0C0C943A0C0E946F190E94400379
:101890000E94161AE9ECF2E08081806880838091D2
:1018A000C9029091CA020E94A8170C94360C7F922C
:1018B0008F929F92AF92BF92CF92DF92EF92FF9260
:1018C0000F931F93CF93DF93CDB7DEB72A970FB651
:1018D000F894DEBF0FBECDBF0E94320C0E94310CC7
:1018E0000E94AF030E942F0C811111C08FEF8983DA
:1018F0008A831B820E9478198160782F9D838C8354
:1019000049815A816B818D810E940B0D4FC043EE3E
:10191000A42E41E0B42E00E010E0702E802F0E9433
:1019200064046C01F501819091905F0188269926ED
:101930008114910431F40F5F1F4F0630110569F7D0
:10194000D5CF80918C0281FD0E946D0480E0EE2451
:10195000E394F12C94012E213F21232B09F18E8356
:101960007F82CE20DF2081E0CD2809F480E08887C7
:101970000E9478198160782F9A8789874E815F81CC
:1019800068858A850E940B0D000F111FF801ED512B
:10199000FE4F80819181E826F926F182E08206C01F
:1019A0008F5FEE0CFF1C8E30A9F6C5CF0E94E71C9E
:1019B0000E94B90B9091E2018917C9F00E94B90BFE
:1019C0008093E2012A960FB6F894DEBF0FBECDBF1A
:1019D000DF91CF911F910F91FF90EF90DF90CF900B
:1019E000BF90AF909F908F907F900C94BF062A96E7
:1019F0000FB6F894DEBF0FBECDBFDF91CF911F9120
:101A00000F91FF90EF90DF90CF90BF90AF909F909D
:101A10008F907F900895CF93DF93CDB7DEB72B974C
:101A20000FB6F894DEBF0FBECDBF4F8358876987CE
:101A30007A878B87DE01119686E0FD0111928A95E7
:101A4000E9F785E0FE01379601900D928A95E1F75E
:101A500049815A816B817C818D819E810E94B31363
:101A60002B960FB6F894DEBF0FBECDBFDF91CF919E
:101A70000895FC01808191810E9487160895CF937B
:101A8000882309F4A4C0C82F8238C1F40E94B90B7E
:101A900081FD9DC069E380910001909101010E9448
:101AA000C8180E9417172FEF81EE94E02150804054
:101AB0009040E1F700C0000069E319C0833801F5E8
:101AC0000E94B90B80FD83C063E580910001909175
:101AD00001010E94C8180E9417172FEF81EE94E0B1
:101AE000215080409040E1F700C0000063E5809104
:101AF0000001909101010E94D318CF910C94171707
:101B00008438C1F40E94B90B82FD61C067E4809102
:101B10000001909101010E94C8180E9417172FEF31
:101B200081EE94E0215080409040E1F700C0000039
:101B300067E4DDCF8CEF8C0F813AD0F46C2F80916D
:101B40000001909101010E944818882349F06C2FF0
:101B500080910001909101010E94D3180E941717F3
:101B60006C2F80910001909101010E94C818C5CF8F
:101B700080E28C0F883048F4C77081E001C0880F84
:101B8000CA95EAF70E94C916B8CFEBE5EC0FE3302F
:101B900040F4F0E0EE58FE4F808190E0CF910C943D
:101BA000FA0BE8E5EC0FE73150F4F0E0EE0FFF1F21
:101BB000EC5BFE4F80819181CF910C94100CC03F63
:101BC00030F08C2F0E94DC1BCF910C94C91CCF915C
:101BD0000895882309F464C0823879F40E94B90B0F
:101BE00081FF5EC069E380910001909101010E9434
:101BF000C8180E94171769E310C08338B1F40E9417
:101C0000B90B80FF4DC063E5809100019091010107
:101C10000E94C8180E94171763E5809100019091F7
:101C200001010E94D3180C941717843879F40E948C
:101C3000B90B82FF35C067E48091000190910101EA
:101C40000E94C8180E94171767E4E7CF9CEF980F0F
:101C5000913A10F4682FE1CF90E2980F983050F449
:101C6000877091E001C0990F8A95EAF7892F0E9449
:101C7000CF16D9CF9BE5980F933020F480E090E009
:101C80000C94FA0B98E5980F973120F480E090E0DF
:101C90000C94100C803F20F00E94441C0C94C91C32
:101CA0000895CF93C82F0E943F0DC93349F42FEFF9
:101CB00087EE93E0215080409040E1F700C00000A3
:101CC0008C2FCF910C94E90D882321F00E94C91626
:101CD0000C9417170895882321F00E94CF160C94B6
:101CE00017170895CF92DF92EF92FF920F931F93F1
:101CF000CF93DF937C01062FC72FFC01158112952E
:101D00001F70D281D1110E94E9160E94BF1688234C
:101D100099F0DD2389F08C2F807F803421F080E2E0
:101D2000800F883048F082E00E9461170E94BF1641
:101D300091E0D82ED92601C0D12CCC2EC2948FE0B0
:101D4000C8228C2D90E0FC01EA5AFF4F0C94E82445
:101D50008C2F807FCF70882311F0C295C07FDD2348
:101D600099F0CC2309F485C180E2800F883010F00F
:101D7000011104C08C2F0E94C91603C08C2F0E9431
:101D8000DC160E94171775C1802F0E94E90DCC2325
:101D900009F494C180E2800F883010F0011104C072
:101DA0008C2F0E94CF1603C08C2F0E94E2160E9437
:101DB000171784C18C2F807FCF70803211F0C295AD
:101DC000C07F002319F00130C9F024C0DD2371F079
:101DD000112341F0113031F40E94FC168C2B0E942B
:101DE00004176CC10E94FC168C2B0EC0112319F035
:101DF000113009F463C10E940D171EC0DD2339F0B4
:101E0000123008F05BC18C2F0E94640E57C1111173
:101E100055C112C0DD2319F01123A9F32AC11123E2
:101E200059F0093309F036C1FFEF27EE83E0F15096
:101E300020408040E1F72CC18C2F0E946B0E3EC1E8
:101E40008C2F86958695837019F0813061F036C1AC
:101E5000DD2321F0802F9C2F937002C080E090E062
:101E60000E94FA0B33C1DD2321F0802F9C2F937049
:101E700002C080E090E00E94100C28C1802FDD237A
:101E800019F00E94DC1B02C00E94441C0E94C91C65
:101E90001DC18C2F837009F045C0D11113C1402F93
:101EA000429546954770440F440F602F6F70862F00
:101EB00090E0A0E0B0E0042E04C0880F991FAA1F94
:101EC000BB1F0A94D2F704FF10C00FE010E020E01F
:101ED00030E004C0000F111F221F331F4A95D2F7B4
:101EE000009510952095309503C000E010E0980112
:101EF000C695C695C370BC01CD01602B712B822B9A
:101F0000932BC23049F058F4C13019F00E940415E7
:101F1000D9C00E94F214D6C00E941615D3C00E94E8
:101F2000F014D0C0DD2319F08C2F817001C086958C
:101F3000882309F4C7C0402F429546954770440F47
:101F4000440F602F6F70862F90E0A0E0B0E0042E69
:101F500004C0880F991FAA1FBB1F0A94D2F704FF61
:101F600010C00FE010E020E030E004C0000F111FAF
:101F7000221F331F4A95D2F7009510952095309572
:101F800003C000E010E09801C695C695C370BC017F
:101F9000CD01602B712B822B932BC23049F058F46A
:101FA000C13019F00E94C9158DC00E94B7158AC0B2
:101FB0000E94DB1587C00E942A1584C0CF70DD23E4
:101FC00039F08C2F0E945015802F0E94640E7AC029
:101FD000802F0E946B0E8C2F0E94711573C0023FE0
:101FE000F9F028F4003F41F0013F99F03EC0033F73
:101FF000F1F0043F31F139C0DD2339F011115EC039
:102000008C2F8F710E94961559C0123008F056C05F
:10201000F7CFDD2339F08C2F8F710E9450154EC001
:10202000DD23C9F38C2F8F710E94711547C0DD230A
:1020300029F08C2F8F710E943B1540C00E943615ED
:102040003DC0DD2349F0CF718C2F0E94501563E015
:102050008C2F0E944C1732C081E00E946117123011
:1020600068F182E00E94611729C0DD2331F011235D
:1020700091F2802F0E943F0D21C0112399F2093364
:1020800049F49FEFE7EEF3E09150E040F040E1F7D4
:1020900000C00000802F0E94E90D10C04C2F4F702F
:1020A000602FC7010E94C8060E9461140FC04C2F08
:1020B0004F70602FC7010E94CB0608C088EF8C0DBF
:1020C000843020F40E94B90B0E94BF06DD20C9F0C5
:1020D0000E94BB1680FD15C0F70112820E94B51642
:1020E0000E945015C7010E94A2100E94B516DF91F0
:1020F000CF911F910F91FF90EF90DF90CF900C94B4
:102100007115DF91CF911F910F91FF90EF90DF90AC
:10211000CF9008950F931F93CF93DF93EC016881C5
:1021200079818A810E9492168C010E94ED150E948D
:10213000DE14B801CE010E94720EDF91CF911F9183
:102140000F910895CF93DF93EC01988189812B81C2
:102150003C81232B31F08F3F31F481E09F3F19F414
:1021600003C081E001C080E080FD19C0CE010E9463
:10217000750681110CC00E94BF16882381F08A81E8
:10218000882369F082E0DF91CF910C946117CE0132
:102190000E948A10CE01DF91CF910C944006DF910E
:1021A000CF910895882321F00E94DC160C94171714
:1021B0000895882321F00E94E2160C9417170895C1
:1021C0000E94E9160E94F9160E9417170E94FA1D34
:1021D0000E94C91C80E090E00E94FA0B80E090E031
:1021E0000C94100C80910001909101010E94DE1866
:1021F0000C94E0100E94D9160C94F210E92FE2958D
:10220000EF704E2F50E0FA013297EE30F105B0F446
:10221000EA59FF4F0C94E824803F91F018F4883E6F
:1022200068F40EC0843F51F40BC0883E48F0813FF3
:1022300029F406C093FB882780F9089580E008956B
:1022400081E008950E9487160E94FE100895CF93A2
:10225000DF9300D000D01F92CDB7DEB70F900F9064
:102260000F900F900F90DF91CF910895CF93DF9350
:1022700000D000D000D0CDB7DEB726960FB6F894C8
:10228000DEBF0FBECDBFDF91CF9108951F93CF93D7
:10229000DF93C091F00116E08091F101C81799F029
:1022A000D0E01C9FF0011D9FF00D1124EE50FE4F59
:1022B0004081518162817381848195810E943611B0
:1022C0002196C770E9CFDF91CF911F91089540917A
:1022D0002202509123026091240270912502809184
:1022E0002602909127020C9436110F931F93CF93DF
:1022F000DF938091270282958F7009F05DC08091F5
:102300002402882309F458C08091F0011091F10152
:102310006091220270912302C0912502D091260281
:1023200091E06F3F09F090E0292F06E0811709F452
:1023300043C0209721F07F3F21F030E003C031E01F
:1023400001C0322F90E030FD34C0089FF001099F9A
:10235000F00D1124DF01AE50BE4F11963C91119744
:10236000371327C03C91361324C012963C91129724
:1023700031111FC013964D915C9114974C1B5D0B4E
:10238000483C5105B0F4809127028F7080618093A2
:102390002702E950FE4F80818F708061808382E246
:1023A00092E00E94A210DF91CF911F910F910C94A7
:1023B000461101968770BACFDF91CF911F910F918F
:1023C00008959F92AF92BF92CF92DF92EF92FF92C9
:1023D0000F931F93CF93DF93CDB7DEB761970FB6FF
:1023E000F894DEBF0FBECDBF8C0185E0F801DE01A1
:1023F0001D9601900D928A95E1F7F8014081518177
:10240000E280909122026091230220912502309176
:1024100026022115310531F06F3F31F481E09F3FF5
:1024200019F403C081E001C080E0F82FF1709F2E05
:1024300080FD46C1F801A380B48082E2C82E82E00C
:10244000D82EF0902402F501E21BF30BFF2009F4D3
:10245000DFC080912702E83CF10508F09BC0282FDF
:10246000207F09F052C0561313C0491311C0FE2C2F
:10247000E1100EC08F708061809327020E94671167
:10248000C6010E94A21080912702F801858358C1DD
:10249000AB2831F05F3F31F481E04F3F19F403C0C6
:1024A00081E001C080E080FD03C081E08E2502C094
:1024B00080E090E0F82FF170FF2E80FF1CC080912B
:1024C000F0012091F10136E0821709F417C190E084
:1024D000389FF001399FF00D1124EE50FE4F6181BD
:1024E000561306C06081461303C06281E61203C022
:1024F00001968770E9CFFE2CEE2009F421C180916E
:1025000027028160809327025AC0561306C04913E0
:1025100004C0E11002C0F8019FC04D875E878D8521
:102520009E850E942211882379F1EE2069F1209185
:102530002702822F82958F7090E0029774F080912D
:1025400022029091230298878F831986BB86AA86E0
:102550002C87CE0107960E94A21086E0F801A2E225
:10256000B2E001900D928A95E1F70E9475110E94E8
:1025700067110DC0561729F14D875E878D859E85A1
:102580000E94221181112CC0C8010E94A210FF24B8
:10259000F394D6C0282F207F69F77A2DB98AA88AAC
:1025A0006E2D89890E94271182E292E00E94A2107A
:1025B00086E0F60111928A95E9F70E946711F12CE5
:1025C000BFC04913D9CFE110D7CFF8018583C80127
:1025D0000E94A21086E0F60111928A95E9F7B0C038
:1025E000EE2091F220912702822F82958F7090E049
:1025F00002970CF4B2CF80912202909123029A8329
:1026000089831B82BD82AC822E83CE010196A3CF2B
:10261000E83CF10508F047C0FE2CEE2009F4B4CFE9
:10262000561330C049132EC02091270220FD21C02F
:10263000822F82958F70482F50E041155105C9F0C7
:10264000F80125834F30510541F08F5F982F929507
:10265000907F822F8F70892B8583C8010E94A210E2
:1026600086E0F801A2E2B2E001900D928A95E1F7CE
:1026700042C086E0F801A2E2B2E001900D928A9594
:10268000E1F75EC04D875E878D859E850E94221191
:10269000811163CF80912702816080932702C80156
:1026A0000E94A2104DC07A2DB98AA88A6E2D898900
:1026B0000E94271186E0F60111928A95E9F71BC066
:1026C000EE2009F461CF4D875E878D859E850E943F
:1026D0002211F82E882309F457CF86E0F801A2E2F0
:1026E000B2E001900D928A95E1F782E292E00E94B9
:1026F000390D0E9475110E94671122C04D875E87B7
:102700008D859E850E948716292F22952F70223055
:1027100028F49F7039F0811105C00BC0243028F4D3
:102720009F7049F4805E883020F0C8010E94A2109A
:102730009F2CF92C05C0F8019581907F99F7F9CF6E
:102740008F2D61960FB6F894DEBF0FBECDBFDF911F
:10275000CF911F910F91FF90EF90DF90CF90BF909E
:10276000AF909F9008951F93CF93DF93CDB7DEB7BF
:102770002C970FB6F894DEBF0FBECDBF4F8358879E
:1027800069877A878B879C87CE0107960E94E11123
:102790008823D1F09F8188852A853B85232B31F0C2
:1027A0008F3F31F481E09F3F19F403C081E001C005
:1027B00080E080FD47C04F81588569857A858B858B
:1027C0009C850E9436113EC086E0FE013796DE01F0
:1027D000119601900D928A95E1F7FF81E8856A854F
:1027E0007B856115710531F0EF3F31F481E0FF3FEA
:1027F00019F403C081E001C080E080FD23C0209176
:10280000F10130E0C9010196877099274091F001EC
:1028100050E084179507F1F1F983EA837D836C8397
:1028200096E0929FD001939FB00D1124AE50BE4F01
:10283000FE01319601900D929A95E1F78093F10196
:102840000E94461116E08091F0019091F1018917E4
:1028500071F1189FC00111248E509E4F0E94E1110A
:10286000882329F1E091F0011E9FF0011124EE5020
:10287000FE4F4081518162817381848195810E94E4
:1028800036118091F00190E001968770992780932E
:10289000F001D9CF0E94FA101092F1011092F001CC
:1028A000E2E2F2E086E0DF011D928A95E9F72C96DC
:1028B0000FB6F894DEBF0FBECDBFDF91CF911F9151
:1028C0000895EF92FF920F931F93CF93DF938C01A4
:1028D000892B09F46CC0F12CEE24E394E8012196D5
:1028E000F8018491843740F4843008F051C081307D
:1028F00081F0823019F15BC0853709F444C0A8F13A
:102900009CE7980F903708F052C08F770E94E90D2E
:1029100041C00E5F1F4FFE01849190E2980F9830E6
:1029200050F48770FE2D01C0FF0F8A95EAF78F2FB4
:102930000E94EC1614C00E943F0D2DC00E5F1F4F69
:10294000FE01849190E2980F983060F48770FE2D1C
:1029500001C0FF0F8A95EAF78F2F0E94F2160E949E
:10296000171719C00E94E90D16C00E5F1F4FFE0118
:10297000C491CC2381F08FE99FE00197F1F700C06B
:102980000000C150F6CF0E5F1F4FFE01F49003C050
:102990000E943F0D8E018F2D882309F49FCFEFE910
:1029A000FFE03197F1F700C000008150F5CFDF91D3
:1029B000CF911F910F91FF90EF9008950895089582
:1029C0000C94DF140C94E0140E94E21460936302F0
:1029D0007093640280936502909366020C94E010F9
:1029E0000C94E4140F931F930091630210916402FE
:1029F0002091650230916602602B712B822B932B04
:102A00001F910F910C94E4140F931F930091630294
:102A10001091640220916502309166026023712357
:102A2000822393231F910F910C94E4140F931F930F
:102A30000091630210916402209165023091660258
:102A400060277127822793271F910F910C94E4141C
:102A50000C94DF140E94281560935F02709360024B
:102A600080936102909362020C94E01060E070E049
:102A7000CB010C942A150F931F9341E050E060E0C6
:102A800070E08A019B0104C0000F111F221F331F39
:102A90008A95D2F7C901B8011F910F910C942A159C
:102AA0000F931F9341E050E060E070E004C0440FDA
:102AB000551F661F771F8A95D2F780915F0290910C
:102AC0006002A0916102B09162028A019B01082B11
:102AD000192B2A2B3B2BC901B8011F910F910C9484
:102AE0002A150F931F9341E050E060E070E004C0AE
:102AF000440F551F661F771F8A95D2F74095509552
:102B00006095709580915F0290916002A091610242
:102B1000B09162028A019B01082319232A233B23D7
:102B2000C901B8011F910F910C942A150F931F939F
:102B300041E050E060E070E004C0440F551F661FA4
:102B4000771F8A95D2F780915F0290916002A091E1
:102B50006102B09162028A019B01082719272A2786
:102B60003B27C901B8011F910F910C942A150F93AF
:102B70001F9300915F0210916002209161023091D9
:102B80006202602B712B822B932B1F910F910C945F
:102B90002A150F931F9300915F02109160022091FC
:102BA00061023091620260237123822393231F917B
:102BB0000F910C942A150F931F9300915F021091AF
:102BC00060022091610230916202602771278227A2
:102BD00093271F910F910C942A1508952EE0929F30
:102BE000800D1124E82FE695E695E695877051E073
:102BF00001C0550F8A95EAF785E0E89FF00111249E
:102C0000E85DFD4F20E030E070E04081CB01022E16
:102C100002C0969587950A94E2F781708195842782
:102C20008523842781932F5F3F4F2530310569F736
:102C300008952EE0929F800D1124682F6695669569
:102C40006695982F977085E0689FB001112440E049
:102C500050E080E0FB01E40FF51FE85DFD4F2081AF
:102C600030E0092E02C0369527950A94E2F72170CC
:102C70003327042E01C0220F0A94EAF7822B4F5FFC
:102C80005F4F4530510531F70895BF92CF92DF92E3
:102C9000EF92FF920F931F93CF93DF938C01C0901D
:102CA0005F02D0906002E0906102F0906202809139
:102CB000630290916402A0916502B0916602C82AF5
:102CC000D92AEA2AFB2ACFE1D0E0D701C6010C2E8F
:102CD00004C0B695A795979587950A94D2F780FD7D
:102CE00004C0219790F7B12C07C0BC2EB8018C2FDF
:102CF0000E94E7060197A9F38B2DDF91CF911F91D9
:102D00000F91FF90EF90DF90CF90BF900895CF93F9
:102D1000DF93EC010E944516BE010E94E706DF9199
:102D2000CF9108951F93CF93DF93EB019091EF0123
:102D3000992321F0CB010E94871613C0882349F004
:102D4000CB010E944516182F682FCE010E94EE1568
:102D500004C0CB010E941916182FBE01812F0E94BA
:102D6000E706DF91CF911F910895809167028595C5
:102D70008595859508958091670287700895909153
:102D80006702977081E009F480E0089580918B02DA
:102D9000089590918B02892B80938B0208958095E2
:102DA00090918B02892380938B02089580938B02EC
:102DB000089510928B02089590918A02892B809336
:102DC0008A020895809590918A02892380938A02CD
:102DD000089510928A02089590918902892B809318
:102DE00089020895809590918902892380938902B0
:102DF00008951092890208958091680208950895B7
:102E00000C94FF160C94001790916802981721F00B
:102E1000809368020C9402170895809168028823B9
:102E200029F01092680280E00C9402170895E09156
:102E30000001F091010180918B028083E0910001FB
:102E4000F0910101908180918A02892B8083E09129
:102E50000001F0910101908180918902892B80838A
:102E600080916802882381F0E0910001F0910101D6
:102E70009081892B808380910001909101010E94B3
:102E8000321881110E940D1780910001909101016B
:102E90000C94D20B0C94FF1698E0899F900111249A
:102EA000262B209367020E9450158091670285951A
:102EB000859585950C944A171092670280E00C94D2
:102EC0004A17209167028095822380936702982F8A
:102ED000977079F430E0482F082E000C550B24171A
:102EE000350739F08595859585950E9471150C9467
:102EF0005C17089580E090E00E940A2521E08C3E56
:102F00009E4F09F020E0822F089582E090E00C941B
:102F10000225682F82E090E00C94102583E090E079
:102F20000C940225682F83E090E00C941025CF9339
:102F300084E090E00E940225C82F81E290E00E9488
:102F400002252C2F30E0A901582BCA01CF910895FA
:102F5000CF93C92F682F84E090E00E9410256C2F3A
:102F600081E290E0CF910C941025AB01BC018FE081
:102F700090E00C942225AB01BC0183E190E00C941D
:102F8000222560E070E0CB010C94BB1760E070E09C
:102F9000CB010E94B5170C94C1176CEE7EEF80E058
:102FA00090E00E942E2560E082E090E00E941025D3
:102FB00060E083E090E00E9410251092630210927E
:102FC0006402109265021092660260E084E090E074
:102FD0000E94102560E081E290E00E94102560E0F0
:102FE00085E090E00E94102560E086E090E00E947D
:102FF00010256FEF87E090E00E94102540E050E040
:10300000BA0188E090E00E94222560E08DE090E027
:103010000E94102540E050E0BA0188E190E00E9453
:10302000222560E087E190E00E94102540E050E01A
:10303000BA018CE190E00E94222560E080E290E0FD
:103040000E94102540E050E0BA0188E190E00E9423
:1030500022250C94C6170C94CD17682F8EE090E0B3
:103060000C941025FC01329680911201882331F0D6
:103070008091C90287FF02C09EE101C096E080E016
:10308000915028F021912223D9F38F5FF9CF089531
:10309000662351F1209112012223E9F02091C90207
:1030A00027FF19C0462F4695469546954E31E0F4C8
:1030B000677021E030E002C0220F331F6A95E2F70B
:1030C000FC01E40FF11D828190E02823392381E087
:1030D000232B69F409C0FC013296089621916217EE
:1030E00029F0E817F907D1F780E0089581E0089505
:1030F0009C01FC0132969FEF80E04191461789F0D8
:103100009F3F19F4411101C0982F8F5F8630A9F7B6
:103110009F3F39F0F901E90FF11D97FDFA956283A0
:10312000089508959C012A5F3F4FFC014281461398
:1031300001C01282019682179307B9F70895262FCE
:103140002695269526952E3168F4FC01E20FF11D97
:10315000677021E030E001C0220F6A95EAF78281B2
:10316000282B22830895262F2695269526952E31E5
:1031700070F4FC01E20FF11D677021E030E001C046
:10318000220F6A95EAF720958281282322830895E9
:1031900020911201222329F02091C90227FD0C94CD
:1031A0009F180C94781820911201222329F0209165
:1031B000C90227FD0C94B3180C94921820911201A7
:1031C000FC013296222331F08091C90287FF02C0B0
:1031D0008EE101C086E0DF011D928A95E9F708952E
:1031E00008950C94F018CF930E9456030E94AF03E9
:1031F0000E94F118C0E08C2F0E946404892B29F4EE
:10320000CF5FC630C1F780E001C081E0CF91089563
:103210000C94F0180C9408190E940A198091CF029E
:10322000843049F110928D0220E488E190E00FB6DD
:10323000F894A895809360000FBE2093600080E012
:103240000E94BF060E940A1983B7817F846083BFF2
:1032500083B7816083BF7894889583B78E7F83BF5F
:103260000FB6F894A8958091600088618093600003
:10327000109260000FBE08950C94F0180E94FA108E
:103280000E94B90B0E94BF060C943C191F920F922A
:103290000FB60F9211248F939F93AF93BF9380919A
:1032A0008D02811113C08091C5029091C602A09138
:1032B000C702B091C8024196A11DB11D8093C502FD
:1032C0009093C602A093C702B093C802BF91AF917A
:1032D0009F918F910F900FBE0F901F90189582E0D5
:1032E00084BD93E095BD9AEF97BD80936E000895DD
:1032F0002FB7F8948091C5029091C602A091C702A1
:10330000B091C8022FBF08959C014FB7F8948091E7
:10331000C5029091C602A091C702B091C8024FBFEA
:10332000821B930B089578941F920F920FB60F9201
:1033300011248F939F93AF93BF938091C502909177
:10334000C602A091C702B091C8020196A11DB11D8D
:103350008093C5029093C602A093C702B093C8029F
:10336000BF91AF919F918F910F900FBE0F901F90C3
:10337000189587E797E790930108809300089AE0F3
:1033800088E10FB6F894A895809360000FBE9093E3
:103390006000FFCFAF92BF92CF92DF92EF92FF9289
:1033A0000F931F93CF93C0E0CC24C394D12CE82E6D
:1033B000F12C8C2F0E9464045C0100E010E0C60137
:1033C000002E02C0880F991F0A94E2F78A219B21E0
:1033D000892B31F40F5F1F4F0E30110581F70AC0A2
:1033E000602F7C2F80E00E94CC06E816F90691F74A
:1033F00081E004C0CF5FC630E1F680E0CF911F913D
:103400000F91FF90EF90DF90CF90BF90AF90089515
:10341000CF93C82F8CE20E94CA19882321F08C2FE9
:10342000CF910C94CA1980E0CF910895CF930E9458
:103430007A17811102C00E942B18C5E6C15049F0CD
:103440000E94AF038FE39CE90197F1F700C00000F1
:10345000F5CF89E20E94081A81112AC18AE20E94EE
:10346000081A81110E942B1885E00E94081A811108
:103470000E94B9190E94851780938C0287E00E94F0
:10348000081A8823A9F18BE10E94081A882351F0B9
:1034900080918C0281FB222720F991E0922790FBFA
:1034A00081F90EC08EE00E94081A882361F0809195
:1034B0008C0282FB222720F991E0922790FB82F96F
:1034C00080938C0215C080E10E94081A90918C02B2
:1034D000882341F093FB222720F981E0822780FB9B
:1034E00093F904C0892F809580FB90F990938C020A
:1034F00080918C020E9489170E9497179093CA02AC
:103500008093C90280EE0E94081A882341F08091BE
:10351000C902982F909590FB80F98093C90289E3A6
:103520000E94081A882359F08091C90281FB222742
:1035300020F991E0922790FB81F98093C90282EEF5
:103540000E94081A882359F08091C90282FB222721
:1035500020F991E0922790FB82F98093C90286EED0
:103560000E94081A882359F08091C90283FB222700
:1035700020F991E0922790FB83F98093C90283EEB2
:103580000E94081A882359F08091C90284FB2227DF
:1035900020F991E0922790FB84F98093C90285E39A
:1035A0000E94081A882359F08091C90285FB2227BE
:1035B00020F991E0922790FB85F98093C90281E37D
:1035C0000E94081A882359F08091C90286FB22279D
:1035D00020F991E0922790FB86F98093C90281E15E
:1035E0000E94081A882359F08091C90287FB22277C
:1035F00020F991E0922790FB87F98093C90280918E
:10360000C9029091CA020E94A81787E20E94081A74
:10361000C82F8EE10E94081A8111C2608FE10E94BA
:10362000081A8111C46080E20E94081A8111C860E2
:1036300081E20E94081A8111C06182E20E94081A88
:103640008111C06283E20E94081A8111C06484E281
:103650000E94081A882311F0C06802C0CC2329F008
:103660008C2F0E9492176C2F03C00E948E17682F18
:1036700070E080E090E00E94F01460915F02709131
:10368000600280916102909162020E9428158FE091
:103690000E94081A882319F081E00E942D1885E104
:1036A0000E94081A882321F080E0CF910C942D18F5
:1036B000CF9108958091960280FF0BC06091060122
:1036C00085E0689FB001112475956795759567959C
:1036D0002BC081FF09C06091060185E0689FB001A1
:1036E00011247595679520C082FF07C0609106017F
:1036F00085E0689FB001112417C09091950299232D
:10370000D1F060910501961788F72091060185E0B8
:10371000289F90011124929FA001939F500D112486
:1037200070E0CA010E94D4246038710540F461152C
:10373000710519F406C065E070E0862F08958FE7E3
:10374000089581E008958091960280FF08C06091FD
:10375000030170E0759567957595679521C081FFA8
:1037600006C06091030170E07595679519C082FFEE
:1037700004C06091030170E010C0909194029923FD
:1037800099F0609102019617A0F780910301899F3B
:10379000C001112470E00E94D4246038710540F407
:1037A0006115710519F406C061E070E0862F089577
:1037B0008FE7089581E00895803F21F40E945A1B0D
:1037C000819504C0813F29F40E945A1B80939A027C
:1037D0000895823F21F40E945A1B819504C0833FC3
:1037E00029F40E945A1B809399020895893F19F485
:1037F0000E94A31B05C08A3F31F40E94A31B819540
:1038000080939B0208958B3F21F40E94A31B819516
:1038100004C08C3F29F40E94A31B80939C0208954E
:10382000843F21F480919802816017C0853F21F484
:1038300080919802826011C0863F21F480919802A5
:1038400084600BC0873F21F480919802886005C096
:10385000883F31F4809198028061809398020895A6
:103860008D3F21F48091960281600BC08E3F21F440
:1038700080919602826005C08F3F29F48091960264
:103880008460809396020895803F39F480919A0273
:1038900087FF6AC010929A0267C0813F29F4809125
:1038A0009A021816BCF360C090919902823F29F4E5
:1038B00097FF5AC01092990257C0833F19F4191606
:1038C000CCF352C090919B02893F31F419160CF051
:1038D0004BC010929B0248C08A3F19F497FF44C026
:1038E000F8CF8B3F39F480919C0287FF3DC0109246
:1038F0009C023AC08C3F29F480919C021816BCF3BC
:1039000033C0843F21F4809198028E7F17C0853F99
:1039100021F4809198028D7F11C0863F21F480911F
:1039200098028B7F0BC0873F21F480919802877F9C
:1039300005C0883F31F4809198028F7E8093980271
:1039400013C08D3F21F4809196028E7F0BC08E3F75
:1039500021F4809196028D7F05C08F3F29F48091DC
:1039600096028B7F8093960280919902811106C006
:1039700080919A02811102C01092950280919B025F
:10398000811106C080919C02811102C010929402A4
:1039900008950E94781920919902211104C0209164
:1039A0009A02222321F09093930280939202209115
:1039B0009B02211104C020919C02222321F09093AC
:1039C00091028093900287E992E00C94EC0BEF92C5
:1039D000FF920F931F93CF93DF9300D000D000D0BE
:1039E000CDB7DEB786E0E7E9F2E0DE01119601909F
:1039F0000D928A95E1F7E0909902F0909A02009179
:103A00009B0210919C021092990210929A021092BD
:103A10009B0210929C02E11003C0FF2009F45DC0DC
:103A200080919202909193020E948419AC0190912E
:103A30009502992339F02091070130E024173507CA
:103A400058F04BC020918F028AE0289F90011124EA
:103A50002417350718F041C09F3F19F09F5F9093DE
:103A60009502EE2061F00E945A1B1E1414F09FEF85
:103A700001C091E0989F902D112490939902FF200E
:103A800061F00E945A1B1F1414F09FEF01C091E0D7
:103A9000989F902D112490939A023091990233238C
:103AA000E1F020919A022223C1F045EB3403C001DA
:103AB0001124992319F09093990203C081E0809317
:103AC000990235EB2303C0011124992319F0909337
:103AD0009A0203C081E080939A02011103C011236E
:103AE00009F45DC080919002909191020E94841926
:103AF000AC0190919402992339F02091040130E0B7
:103B00002417350758F04BC020918E028AE0289F79
:103B1000900111242417350718F041C09F3F19F078
:103B20009F5F90939402002361F00E94A31B1016E4
:103B300014F09FEF01C091E0989F902D1124909375
:103B40009B02112361F00E94A31B111614F09FEF3A
:103B500001C091E0989F902D112490939C02309188
:103B60009B023323E1F020919C022223C1F045EB1C
:103B70003403C0011124992319F090939B0203C0D0
:103B800081E080939B0235EB2303C001112499232C
:103B900019F090939C0203C081E080939C02809175
:103BA000990281110BC080919A02811107C0809106
:103BB0009B02811103C080919C0281110E94C91C4B
:103BC000EB82FC820D831E8386E0FE013196A7E91D
:103BD000B2E001900D928A95E1F726960FB6F8941F
:103BE000DEBF0FBECDBFDF91CF911F910F91FF9030
:103BF000EF900895E7E9F2E086E0DF011D928A95F3
:103C0000E9F710929502109294021092960208958C
:103C10008091BD020895CF93DF9300D01F92CDB75E
:103C2000DEB79091CF02943019F589837B836A8344
:103C300082E08093E9008FEF9091E800815095FD3C
:103C400006C095ED9A95F1F700008111F5CF8091AE
:103C5000E80085FF0DC040E050E063E070E0CE0179
:103C600001960E9436208091E8008E778093E800CC
:103C70000F900F900F90DF91CF910895BC0184E0D9
:103C80000C940B1EBC0183E00C940B1E22E02093CD
:103C9000E9002FEF3091E800215035FD06C035EDE9
:103CA0003A95F1F700002111F5CF2091E80025FFAA
:103CB0000BC040E050E066E070E00E94362080914A
:103CC000E8008E778093E8000895CF93DF932091EA
:103CD0001201222339F02091C90227FF03C060E2BC
:103CE00022E002C068E021E02093E9002FEF30914C
:103CF000E800215035FD06C035ED3A95F1F700009A
:103D00002111F5CF2091E80025FF1DC0EC01809125
:103D10001201811105C040E050E068E070E003C08E
:103D200070E040E050E0CE010E9436208091E80033
:103D30008E778093E80080E2FE01ADE9B2E0019069
:103D40000D928A95E1F7DF91CF9108958091CE028F
:103D5000811109C00E94C7210E9424228091E200A3
:103D600084608093E20008951092CE020895089531
:103D700008950C943E1942E061EC81E00E944021DC
:103D800042E261EC82E00C9440218091D1028330C8
:103D900009F460C030F4813071F0823009F499C0C8
:103DA00008958A3009F485C08B3009F46BC08930DE
:103DB00009F0A7C020C08091D002813A09F0A1C0CB
:103DC0008091E800877F8093E8008091D4029091F1
:103DD000D502892B21F460E28DE992E003C060E016
:103DE00080E090E070E00E9481208091E8008B7775
:103DF0008093E80008958091D002813209F081C05B
:103E00008091D4029091D502029708F07AC08091F7
:103E1000E800877F8093E8008091E80082FD05C07C
:103E20008091CF028111F8CF6CC02091F300809176
:103E3000F20090E0922B029729F48091F1008B7FA1
:103E4000813021F48091F1008093BD028091E800DF
:103E50008B7753C08091D002813A09F052C0809193
:103E6000D4029091D502892B09F04BC08091E800D3
:103E7000877F8093E8008091E80080FFFCCF8091ED
:103E8000120136C08091D0028132D9F58091D402DE
:103E90009091D502892BA9F58091E800877F8093C6
:103EA000E8000E9475218091D202809312010C9447
:103EB000FA108091D002813221F58091E800877F4D
:103EC0008093E8000E9475218091D3028093BE0206
:103ED00008958091D002813AA1F48091E800877F13
:103EE0008093E8008091E80080FFFCCF8091BE02C3
:103EF0008093F1008091E8008E778093E8000C9425
:103F00007521089584B7877F84BF0FB6F894A8956C
:103F100080916000886180936000109260000FBE05
:103F200090E080E80FB6F894809361009093610070
:103F30000FBE0E943E0C0E94C7210E942422809145
:103F4000E20084608093E20078940E94B9240E9489
:103F5000440C88E091E00E94B40B8091CF02853040
:103F600069F40E940C198091CD028823B1F30E945C
:103F7000F318882391F30E942020EFCF0E94570C62
:103F80000E94320C0E94310CE8CF0C94C71F292FDD
:103F9000332723303105C9F060F42130310581F039
:103FA0002230310509F044C08BE390E028EC33E087
:103FB00043C021323105E1F02232310549F138C0E8
:103FC00082E190E023E034E037C099278130910509
:103FD00049F028F0029761F5ECE9F3E005C0E4EC64
:103FE000F3E002C0E0EBF3E0849190E09F0124C095
:103FF0006115710541F061307105D1F489E090E0FF
:1040000023EF33E019C089E090E02AED33E014C0DB
:104010006115710541F06130710551F48CEB90E050
:1040200025E134E009C080E490E021ED34E004C0F3
:1040300080E090E020E030E0FA01318320830895B1
:1040400080E189BD82E189BD09B400FEFDCF809188
:10405000D8008F7D8093D8008091E00082608093AB
:10406000E0008091E00081FDFCCF0895CF92DF92C7
:10407000EF92FF920F931F93CF93DF93EC018B018D
:104080007A010E949421811133C0E114F10439F0C6
:10409000F70180819181081B190BC80FD91FC12C12
:1040A000D12C0115110519F18091E80085FD16C08C
:1040B0008091E8008E778093E800E114F10449F0E4
:1040C000F70180819181C80ED91ED182C08285E01E
:1040D0000FC00E949421882321F30AC08991809304
:1040E000F10001501109FFEFCF1ADF0ADACF80E0AB
:1040F000DF91CF911F910F91FF90EF90DF90CF90C4
:1041000008952091D6023091D7022617370748F03C
:104110006115710539F42091E8002E772093E800AD
:1041200001C0B901FC0120E06115710579F18091B0
:10413000CF028823F1F18530F1F18091E80083FD11
:104140003CC08091E80082FD2EC08091E80080FF95
:10415000EBCF2091F3008091F20090E0922B61155B
:10416000710551F08830910538F421912093F100C8
:10417000615071090196F3CF21E0089709F020E022
:104180008091E8008E778093E800CECF2111CFCFC9
:104190000AC08091CF02882361F0853061F0809160
:1041A000E80083FD0AC08091E80082FFF2CF80E042
:1041B000089582E0089583E0089581E008952091B4
:1041C000D6023091D7022617370748F061157105DE
:1041D00039F42091E8002E772093E80001C0B9015E
:1041E000FC0120E06115710591F18091CF028823D7
:1041F00009F440C0853009F43FC08091E80083FD98
:104200003DC08091E80082FD2FC08091E80080FFD2
:10421000E9CF2091F3008091F20090E0922B61159C
:10422000710559F08830910540F424912093F100F4
:104230003196615071090196F2CF21E0089709F09B
:1042400020E08091E8008E778093E800CBCF2111A9
:10425000CCCF0AC08091CF02882361F0853061F015
:104260008091E80083FD0AC08091E80082FFF2CFD0
:1042700080E0089582E0089583E0089581E0089544
:10428000982F973068F59093E900981739F070915E
:10429000EC002091ED005091F00003C0242F762F08
:1042A00050E021FD02C09F5FECCF3091EB003E7FDC
:1042B0003093EB003091ED003D7F3093ED00309175
:1042C000EB0031603093EB007093EC002093ED0035
:1042D0005093F0002091EE0027FDE5CF80E0089597
:1042E0008F708093E90081E008958091D00287FF6C
:1042F00011C08091E80082FD05C08091CF0281113C
:10430000F8CF11C08091E8008B770BC08091CF026D
:10431000882349F08091E80080FFF8CF8091E80081
:104320008E778093E80008952091E4003091E500B5
:1043300095E64091EC00842F817040FF23C080916E
:10434000E80080FD1DC08091CF02882399F0853060
:1043500099F08091EB0085FD11C04091E4005091EF
:10436000E5002417350729F3915011F09A01E1CFA8
:1043700084E0089582E0089583E0089581E008953F
:1043800080E008954091E80042FFDDCF08950E944B
:1043900035220E943D22E0EEF0E080818160808342
:1043A000E8EDF0E080818F77808319BCA7EDB0E065
:1043B0008C918E7F8C9380818F7E80831092CE0231
:1043C00008950F931F93CF93DF930E9435220E948D
:1043D0003D22C8EDD0E088818F778883888180680E
:1043E000888388818F7D888319BC1092CF021092B8
:1043F000CB021092CD021092CC0200EE10E0F80138
:1044000080818B7F808388818160888342E060E047
:1044100080E00E944021E1EEF0E080818E7F808389
:10442000E2EEF0E08081816080838081886080831B
:10443000F80180818E7F8083888180618883DF910D
:10444000CF911F910F910895E8EDF0E080818F7E6C
:104450008083E7EDF0E080818160808384E082BF2B
:1044600081E08093CE020C94E121E8EDF0E08081C0
:104470008E7F80831092E20008951092DA001092ED
:10448000E10008951F920F920FB60F9211242F93FF
:104490003F934F935F936F937F938F939F93AF93CC
:1044A000BF93EF93FF938091E10082FF0BC0809157
:1044B000E20082FF07C08091E1008B7F8093E100E2
:1044C0000E94B8248091DA0080FF1FC08091D8003C
:1044D00080FF1BC08091DA008E7F8093DA0080918C
:1044E000D90080FF0DC080E189BD82E189BD09B49A
:1044F00000FEFDCF81E08093CF020E94A61E05C082
:1045000019BC1092CF020E94B41E8091E10080FF7E
:1045100019C08091E20080FF15C08091E2008E7F7B
:104520008093E2008091E20080618093E2008091BC
:10453000D80080628093D80019BC85E08093CF02B8
:104540000E94B81E8091E10084FF30C08091E2009B
:1045500084FF2CC080E189BD82E189BD09B400FEE1
:10456000FDCF8091D8008F7D8093D8008091E100AD
:104570008F7E8093E1008091E2008F7E8093E20045
:104580008091E20081608093E2008091CB028823D9
:1045900011F084E007C08091E30087FD02C081E054
:1045A00001C083E08093CF020E94B91E8091E10098
:1045B00083FF29C08091E20083FF25C08091E10044
:1045C000877F8093E10082E08093CF021092CB023C
:1045D0008091E1008E7F8093E1008091E2008E7FE8
:1045E0008093E2008091E20080618093E20042E0EB
:1045F00060E080E00E9440218091F000886080931C
:10460000F0000E94B71EFF91EF91BF91AF919F9173
:104610008F917F916F915F914F913F912F910F906B
:104620000FBE0F901F9018951F920F920FB60F920A
:1046300011242F933F934F935F936F937F938F93A7
:104640009F93AF93BF93CF93DF93EF93FF93C0916B
:10465000E900CF708091EC00D82FD17080FDD0E8B8
:104660001092E9008091F000877F8093F0007894A9
:104670000E9458231092E9008091F0008860809396
:10468000F000CD2BCF70C093E900FF91EF91DF9147
:10469000CF91BF91AF919F918F917F916F915F91DA
:1046A0004F913F912F910F900FBE0F901F90189533
:1046B0001F93CF93DF93CDB7DEB7AA970FB6F894C9
:1046C000DEBF0FBECDBFE0EDF2E08091F10081933F
:1046D00022E0E83DF207C9F70E94C51E8091E8007C
:1046E00083FF2EC18091D0029091D102492F50E0DA
:1046F0004A30510508F024C1FA01EC58FF4F0C94E0
:10470000E824803821F0823809F01AC108C080916D
:10471000CC029091CD02992389F082600FC08091E4
:10472000D4028F70873008F00BC18093E90080912C
:10473000EB0085FB882780F91092E9009091E80052
:10474000977F9093E8008093F1001092F100D1C020
:10475000282F2D7F09F0F4C0882319F0823061F0F2
:10476000EFC08091D202813009F0EAC0933009F0A5
:1047700080E08093CD022EC08091D20281112AC0A8
:104780008091D4028F702FEF280F263008F0D8C008
:104790008093E9002091EB0020FF1CC0933021F4AE
:1047A0008091EB00806214C09091EB009061909337
:1047B000EB0021E030E0A90102C0440F551F8A95AB
:1047C000E2F74093EA001092EA008091EB008860E3
:1047D0008093EB001092E9008091E800877F80933E
:1047E000E8000E947521ACC08111AAC01091D202CC
:1047F0001F778091E3008078812B8093E300809184
:10480000E800877F8093E8000E9475218091E8008E
:1048100080FFFCCF8091E30080688093E30011115A
:1048200002C082E001C083E08093CF0289C080583B
:10483000823008F085C08091D2029091D3028C3DE5
:1048400053E0950779F583E08A838AE289834FB73D
:10485000F894DE01139620E03EE051E2E32FF0E011
:1048600050935700E49120FF03C0E295EF703F5F43
:10487000EF708E2F90E0EA3010F0C79601C0C0961E
:104880008D939D932F5F243149F74FBF8091E800AE
:10489000877F8093E8006AE270E0CE0101960E9473
:1048A000812016C06091D4027091D502AE014F5F95
:1048B0005F4F0E94C51FBC01892B09F441C0909134
:1048C000E800977F9093E80089819A810E94DF2019
:1048D0008091E8008B778093E80032C0803881F5C2
:1048E0008091E800877F8093E8008091CB028093DD
:1048F000F1008091E8008E7772CF811121C0809104
:10490000D2029091D30299270297D4F48091E800C3
:10491000877F8093E8008091D2028093CB020E942F
:1049200075218091CB02811106C08091E30087FD43
:1049300002C081E001C084E08093CF020E94BB1ED0
:104940008091E80083FF0AC08091E800877F809310
:10495000E8008091EB0080628093EB00AA960FB68E
:10496000F894DEBF0FBECDBFDF91CF911F910895A8
:104970000895CF938091CF028823A1F0C091E900E0
:10498000CF709091EC00892F817090FD80E8C82B4A
:104990001092E9008091E80083FD0E945823CF70B7
:1049A000C093E900CF91089597FB072E16F4009469
:1049B00007D077FD09D00E94EE2407FC05D03EF415
:1049C000909581959F4F0895709561957F4F0895BB
:1049D000EE0FFF1F0590F491E02D0994AA1BBB1B5D
:1049E00051E107C0AA1FBB1FA617B70710F0A61BEF
:1049F000B70B881F991F5A95A9F780959095BC0110
:104A0000CD010895F999FECF92BD81BDF89A9927FD
:104A100080B50895A8E1B0E042E050E00C9436255E
:104A2000262FF999FECF92BD81BDF89A019700B467
:104A3000021639F01FBA20BD0FB6F894FA9AF99A07
:104A40000FBE08950396272F0E9411250E9410255E
:104A5000252F0E941125242F0C9411250196272F14
:104A60000E9411250C941025DC01CB01FC01F99961
:104A7000FECF06C0F2BDE1BDF89A319600B40D92AA
:0C4A800041505040B8F70895F894FFCF63
:104A8C0069022808643C0714081E651E461E421E57
:104A9C003E1E01E200E900EA00B500B600B700CD09
:104AAC00008301CC008A019201940121022302248B
:104ABC00022502260227022A02B300B4006F0070FE
:104ACC0000818283E200E900EA00B500B600B7007D
:104ADC00CD008301CC008A019201940121022302B2
:104AEC0024022502260227022A02B300B4006F001A
:064AFC00700081828300BE
:00000001FF
