:100000000C9435020C947C020C947C020C947C02BF
:100010000C947C020C947C020C947C020C947C0268
:100020000C947C020C947C020C94EE210C94C02263
:100030000C94F2180C947C020C947C020C947C02BC
:100040000C947C020C947C020C947C020C947C0238
:100050000C947C020C943F190C947C020C947C024E
:100060000C947C020C947C020C947C020C947C0218
:100070000C947C020C947C020C947C020C947C0208
:100080000C947C020C947C020C947C020C947C02F8
:100090000C947C020C947C020C947C020C947C02E8
:1000A0000C947C020C947C020C947C02540E540E32
:1000B000860E860ECC0EEA0E0A100A10F50E8A0F76
:1000C0009B0F9B0FFA0F0A100A100310B810B810FC
:1000D000CA10CA10C110CA10CA10CA10B810B8107D
:1000E000C610CA10CA10C6102D2354234C24542302
:1000F0004C24A023C3234C241A24292429000000C3
:1001000000000000000000000000000000000000EF
:1001100000000000000000002B0014001A0008007E
:1001200015001700004200421C0018000C001200CD
:1001300013000000E40004001600070009000A0094
:10014000000000000B000D000E000F00330028001F
:10015000E1001D001B0006001900050000410041E0
:1001600011001000360037003800E50000000000E4
:10017000000000000000000000000000000000007F
:1001800000000000000000000000E400E7002A007A
:100190000000000000000000000000002C00E6004D
:1001A000E40000000000000000000000000000006B
:1001B000000000000000000000000000000000003F
:1001C00000001E001F00200021002200000000008F
:1001D00023002400250026002700000000001E0246
:1001E0001F022002210222020000000035002F021F
:1001F0003002340034020000E10023022402250210
:100200002D002E00000000003100260227022F00E2
:100210003000E500000000000000000000000000C9
:1002200000000000000000000000000000000000CE
:1002300000000000000000000000000000000000BE
:1002400000000000000000000000000000000000AE
:100250000000000001000100010001000100010098
:10026000010001000100010000000000000000008A
:100270000100010001000100010001000100010076
:10028000010001000000000000000000F300010078
:100290000000000001000100010001000100AE00AB
:1002A000000000000000000001000100010001004A
:1002B00001000100AC00AB000100010000000000E3
:1002C00000000000F5000000000000000000A90090
:1002D000AA00A800010001000000010001000100C7
:1002E000010001000100010001000100B600010051
:1002F0000100000012034500720067006F00440017
:100300006F006E006500000012034B002E005400C9
:100310002E0045002E0043002E00000004030904B7
:1003200009023B00020100A0FA09040000010301D8
:100330000100092111010001224000070581030885
:10034000000A090401000103000000092111010055
:100350000122BC000705820320000A1201100100DF
:10036000000008EDFE0DE601000102000105010993
:1003700002A10185020901A100050919012905153C
:10038000002501950575018102950175038101051F
:1003900001093009311581257F950275088106090B
:1003A000381581257F950175088106050C0A3802EC
:1003B0001581257F950175088106C0C0050109805A
:1003C000A101850319012AB700150126B70095017F
:1003D00075108100C0050C0901A101850419012ACD
:1003E000A002150126A002950175108100C005012B
:1003F0000906A1018505050719E029E71500250172
:100400009508750181020507190029EF15002501DE
:1004100095F07501810205081901290595057501F9
:100420009102950175039101C005010906A101051D
:100430000719E029E7150025019508750181029546
:1004400001750881010507190029FF150026FF0025
:10045000950675088100050819012905950575019E
:100460009102950175039101C00011241FBECFEFC9
:10047000DAE0DEBFCDBF04B603FE27C08091D8020C
:100480009091D902A091DA02B091DB028730904BB3
:10049000A740B04BD1F41092D8021092D90210921A
:1004A000DA021092DB0214BE84B7877F84BF0FB6D6
:1004B000F894A89580916000886180936000109204
:1004C00060000FBEE0E0F8E3099511E0A0E0B1E0C4
:1004D000E4EEF9E402C005900D92A637B107D9F712
:1004E00022E0A6E7B1E001C01D92A83DB207E1F706
:1004F0000E942E1F0C94F0240C9400001092B9005E
:100500008AE08093B800089594EA9093BC0090919B
:10051000BC0097FFFCCF9091B900987F983021F0F4
:10052000903111F081E008958093BB0084E88093BE
:10053000BC008091BC0087FFFCCF8091B900887F10
:10054000883111F0803471F780E008950C948402B2
:1005500084E98093BC008091BC0084FDFCCF0895A9
:100560008093BB0084E88093BC008091BC0087FF2F
:10057000FCCF9091B900987F81E0983209F480E037
:10058000089584E88093BC008091BC0087FFFCCF75
:100590008091BB00089580B38F7080BB81B38F7052
:1005A00081BB84B1897F84B985B1897F85B90C9479
:1005B00049046E98769A8AB183768AB98BB18C6930
:1005C0008BB93E98469A24982C9A0C947E040895F0
:1005D0000C94E7020C94E7020E94CB020E94D9021D
:1005E000EAECF1E086E791E011921192DC012EE055
:1005F0001D922150E9F70E9621E08A3C9207A1F75F
:100600000C94F7050E94CB020E94D902EAECF1E0BB
:10061000118210821382128215821482178216822E
:10062000118610861386128608952EE0829FC001DF
:100630001124FC01EA58FE4F20E030E040E050E099
:1006400061E070E09081992319F09150908309C086
:10065000CB01022E02C0880F991F0A94E2F7482BA3
:10066000592B2F5F3F4F31962E30310559F7CA0174
:100670000895CF932EE0629FB001112420E030E076
:10068000A1E0B0E0C5E0AD01022E02C0440F551F4D
:100690000A94E2F748235923452B31F0FB01E20F7E
:1006A000F31FEA58FE4FC0832F5F3F4F2E303105B6
:1006B00051F7CF9108954F925F927F928F929F92C0
:1006C000AF92BF92CF92DF92EF92FF920F931F9360
:1006D000CF93DF930E9464040AEC11E0C0E0D1E004
:1006E000C33099F028F4C13051F0C23059F004C041
:1006F000C43071F0C53079F0849A8C980EC0859A18
:100700008D980BC0869A8E9808C0879A8F9805C0DE
:10071000219A299802C0229A2A988C2F0E944D046F
:1007200080EA8A95F1F78C2F0E9415035C010E94E4
:10073000AF044B9904C060E4E62EF12C02C0E12C1A
:10074000F12C4A9903C0A0E2B0E002C0A0E0B0E002
:100750004C9904C050E1452E512C02C0412C512C23
:10076000369903C068E070E002C060E070E029B133
:10077000022E000C330B209530952227330F221FB9
:100780003327220F331F220F331F669903C042E025
:1007900050E002C040E050E073B0F801C080D1806A
:1007A0007294EFE07E227D2670FA882480F8912CE6
:1007B000882999298E299F298A2B9B2BF201E82BC6
:1007C000F92B6E2B7F2B262B372B422B532B4C25B3
:1007D0005D25A422B522AC24BD246C2FC6018A2538
:1007E0009B250E943903F801A192B1928F010E94CA
:1007F000CB02CF5FC63009F073CF0E94010681E0C3
:10080000DF91CF911F910F91FF90EF90DF90CF90EC
:10081000BF90AF909F908F907F905F904F90089582
:10082000E82FF0E0EE0FFF1FE653FE4F808191812D
:1008300008950895853008F08F5F2091D60130E04B
:10084000A90102C0559547958A95E2F7CA018170C2
:1008500008951F93CF93DF93C091D701CC23A1F0CC
:10086000D62F182F80E40E948402C82F81110AC05D
:10087000812F0E94B002C82F811104C08D2F0E94C9
:10088000B002C82F0E94A8028C2FDF91CF911F9138
:1008900008956FEF81E00C9429048F5F61E070E0B0
:1008A00001C0660F8A95EAF7609581E00C942904EF
:1008B0006FEF82E00E9429046FEF8CE00E94290410
:1008C0006FEF81E00C94290480E40E94840281117E
:1008D0000CC00E94A8028091D70181110EC081E056
:1008E0008093D7010E94580406C08091D7018130BF
:1008F00021F41092D7010C94A61008950E947E0254
:100900000C9464040F931F93CF93DF93C091D7018E
:10091000CC23D1F08B01D82F80E40E948402C82F11
:10092000811110C08D2F0E94B002C82F81110AC002
:1009300081E40E94A602C82F811104C00E94C10256
:10094000F80180830E94A8028C2FDF91CF911F9124
:100950000F91089566ED71E082E10C9482048F920C
:100960009F92AF92BF92EF92FF920F931F93CF93FC
:10097000DF930E94AA04C0E0D0E000E010E08DE028
:10098000E82EF12C812C912C540183948C2F0E9401
:100990001A04882371F0C7018C1B9D0BA5019401DB
:1009A00004C0220F331F441F551F8A95D2F7022B14
:1009B000132B2196CE30D10549F7C801DF91CF9195
:1009C0001F910F91FF90EF90BF90AF909F908F90ED
:1009D000089584B1886684B985B1877985B9209AEC
:1009E000289A559A5D9A089525982D9826982E98BC
:1009F00023982B982098289A259A2D9A2FEF80E7F4
:100A000092E0215080409040E1F700C00000269A1B
:100A10002E9A2FEF80E792E0215080409040E1F73E
:100A200000C00000239A2B9A2FEF80E792E021501C
:100A300080409040E1F700C0000025982D982FEFEE
:100A400080E792E0215080409040E1F700C0000034
:100A500026982E982FEF80E792E02150804090401A
:100A6000E1F700C0000023982B9825982D98269830
:100A70002E9823982B982098289A08950E94E9048C
:100A80000E94F4040C94E8029C013A9521153F4120
:100A900038F5DC01AA27B270AC01442754709C01E0
:100AA0002227387094FF0FC090FF02C080E101C080
:100AB00080E0AB2B09F08062452B09F08064232B8A
:100AC00069F080680BC0892F8170AB2B09F08260C0
:100AD000452B09F08460232B09F08860FB01099401
:100AE0000895CF93DF93EC01805E9109089710F091
:100AF000209719F460E17EE002C06EE770E1CE015C
:100B00000E9444058C2FDF91CF910C94EB0CCF9376
:100B1000DF93EC010E94950DCE01805E910908974C
:100B200010F0209719F467E17EE002C065E870E1FB
:100B3000CE01DF91CF910C944405CF93DF93EC016C
:100B40000E947105CE01DF91CF910C94870581E061
:100B5000089581E008950C94A90508950C94AD05BD
:100B60001F93CF93DF9300D000D01F92CDB7DEB795
:100B700049835A836B833091EF0189819A813111C6
:100B800014C0662359F0222349F00E94F115182F52
:100B9000682F89819A810E949A1503C00E94C51509
:100BA000182F69817A81812F04C00E94F115698113
:100BB0007A810F900F900F900F900F90DF91CF914F
:100BC0001F910C947806FC01262F4081518162818F
:100BD000738184810C94B005CF93DF93EC0160E0C6
:100BE0000E94E305BE01DF91CF910C94AE050E94F7
:100BF0002617811102C00E94D7170E9497080C94F3
:100C00003E050C94EA02282F2F7041F0822F90E0CD
:100C10002A3010F44D9608950697089587E290E0E3
:100C2000089508950E94A6100E9411062FEF84E3F4
:100C30009CE0215080409040E1F700C000000C94FF
:100C400065190F931F93CF93DF93EC0161E00E942E
:100C5000E3058C01BE010E94AB05882379F1BE013A
:100C6000C8010E942109882349F1BE01C8010E94E0
:100C7000B209882319F1BE01C8010E94040A882321
:100C8000E9F0BE01C8010E942F0B8823B9F08A81C8
:100C9000882369F001158CE5180731F00F3D1C45DC
:100CA00031F40E94D7170AC00E94120607C0CE0175
:100CB000DF91CF911F910F910C94A70580E0DF91F8
:100CC000CF911F910F91089508950C94640681E0CF
:100CD00008950C946706CF93C82F0E9465068C2F49
:100CE0000E946906CF91089580E090E008950895EC
:100CF00024E5829FC0011124FC012EE0729FE00DCB
:100D0000F11D1124E60FF11DEE0FFF1FE450FF4F00
:100D1000859194910895880F991FFC01EC50FD4F27
:100D2000859194910895CF93DF930E9478060E9455
:100D3000AB07EC018115904508F041C0C11580E476
:100D4000D80708F0D1C0C83ED10510F5C03ED10586
:100D500008F0FDC0C83AD10578F4C53AD10508F0CD
:100D6000A2C0C130D10509F4F2C008F4EEC0C4300D
:100D7000D10508F0ECC0E9C0CF3BD10508F49BC019
:100D8000C03CD10508F4E1C0CE01805C91099EC051
:100D9000C11590E2D90758F4C11521E0D20708F037
:100DA000D6C0C03FD10508F4D0C0D065D0C0C115B1
:100DB00080E3D80708F08EC0CE019F7087C0C115B0
:100DC00095E5D90708F043C0C11524E5D20708F01E
:100DD000A2C0C11582E5D80708F5C11591E5D9076C
:100DE00008F085C0CE0174E0969587957A95E1F775
:100DF00083709C2F937021E030E002C0220F331FDC
:100E00009A95E2F73C68382BCF70C695C69580E27C
:100E1000C89FE0011124C22BD32B99C09E012370DF
:100E200033278C2F86958695C115D34508F064C06D
:100E3000C1E0D0E002C0CC0FDD1F2A95E2F720E22E
:100E4000829FC0011124C82BD92BDC6880C0C1153A
:100E500029E5D207A0F4C11588E5D80708F060C0DD
:100E6000C11596E5D90708F070C08C2F0E943F0885
:100E70008F71C82FD0E0DC2FCC27D06268C0C1159D
:100E80002AE5D20708F451C0CE0190568115904250
:100E900008F05BC08D2F8F710E943F08DD27D06264
:100EA0008F71D82B54C0C55AD0E0CF5BDE4FC881BC
:100EB000D0E0D0644CC0C85AD0E0CC0FDD1FCD5E6E
:100EC000DE4F0990D881C02DD46441C00E948B06AA
:100ED000EC013DC0CE019927D3FF03C0EC01D86CD3
:100EE00036C0EC01D06C33C0DF70D06A30C0DC2F6C
:100EF000CC27C16FD06A2BC0C1E0D0E002C0CC0FBC
:100F0000DD1F2A95E2F720E2829FC0011124C82B41
:100F1000D92BDA681CC0DC2FCC27C46FD06A17C06D
:100F2000DC2FCC27C06FD06A12C08C2F8F700E942C
:100F30003F0894E0D695C7959A95E1F7CF70D0E039
:100F4000DC2FCC27D069C82B02C0C0E0D0E0CE0196
:100F5000DF91CF9108958238910569F1B0F4813322
:100F6000910509F46DC048F48932910509F463C014
:100F70008A32910509F469C008958533910509F411
:100F800055C089339105B9F00895833E910569F103
:100F900038F4803E9105B1F0823E910509F1089543
:100FA000863E9105A9F1873E9105B9F1843E9105F0
:100FB00009F064C023C02091C90220FD4FC021FD6B
:100FC0004DC008958091C90280FD44C08091CA023D
:100FD00080FF44C08091C90284FD42C083EE4DC0B1
:100FE0008091C90282FF38C0F5CF8091C90282FD8D
:100FF00033C08091CA0280FD31C0ECCF8091CA021B
:1010000081FF32C08091C90284FD2AC087EE35C0BD
:101010008091C90283FF26C0F5CF8091C90283FD6C
:1010200021C08091CA0281FD1FC0ECCF8091C9020E
:1010300085FD1CC01DC08091C90285FD19C016C068
:101040008091C90286FD16C017C08091C90286FD35
:1010500013C010C089E311C082EE0FC080EE0DC036
:1010600080E00BC086EE09C084EE07C089E205C0AF
:1010700085E303C08AE201C081E390E00895909186
:10108000C90292FF0DC0282F2871283019F4877FDC
:10109000846006C0282F2471243011F48B7F88606F
:1010A00093FF0DC0282F2871283119F4877E8461A1
:1010B00006C0282F2471243111F48B7E8861209181
:1010C000CA0220FF0DC0382F3871383019F4877FDD
:1010D000816006C0382F3171313011F48E7F886005
:1010E00021FF0DC0282F2871283119F4877E8161D6
:1010F00006C0282F2171213111F48E7E886194FD64
:10110000877E0895CF93DF9397FF0DC0FB01228167
:10111000222349F0EC010E94AD08CE019F770E9486
:1011200004090E94E60881E0DF91CF9108958CE0E8
:1011300090E00E94AE2490E0A0E0B0E08093BF0277
:101140009093C002A093C102B093C202089560912F
:10115000BF028CE090E00C94BC240E94710B869539
:1011600081708093C4029091BF02913029F488234A
:1011700019F089E30E94FD0D0E9472168093C3024C
:101180000E9485168091BF02813071F048F0823054
:1011900081F08430A1F486EE0E94FD0D88E10DC03F
:1011A00082EE0E94EB0C0BC088E193E00E949D054B
:1011B00006C082EE0E94EB0C87E50E94FD0D8FE3D6
:1011C0009CE90197F1F700C0000008958091BF02EB
:1011D000813039F078F0823069F0843089F488E227
:1011E0000DC08CE20E94FD0D8091C402882341F065
:1011F00089E304C082EE0E94950D02C00E94FD0D9D
:101200008091C3020C9482160F931F93CF93DF93A8
:101210008C01CCE0D0E0C8010C2E02C096958795D9
:101220000A94E2F78F700E9403060E949D0524979E
:10123000CC3F8FEFD80779F7DF91CF911F910F91B6
:1012400008950F931F93CF93DF93EC018B01FB0164
:101250008281882361F00E947216CE01825E9C45D5
:101260008530910520F48093BF020E94A708B80141
:10127000CE01DF91CF911F910F910C9482080F93B3
:101280001F93CF93DF93C42FD22FFC018281882339
:10129000C9F04093DA010E9424199093D9018093F8
:1012A000D80180E28C0F883008F057C0C77081E009
:1012B00001C0880FCA95EAF7DF91CF911F910F9176
:1012C0000C94100E8091DA01481330C08091D8013F
:1012D0009091D9010E943019883C910538F510E2AF
:1012E0001D0FCD17B9F080E28C0F883040F4C77025
:1012F00081E001C0880FCA95EAF70E94170E1830E6
:1013000028F581E09D2F977001C0880F9A95EAF724
:101310000E94100E802F0E94FD0D1830F0F4D7703F
:1013200081E001C0880FDA95EAF70AC080E28C0FED
:10133000883098F4C77081E001C0880FCA95EAF739
:10134000DF91CF911F910F910C94170E802FDF9199
:10135000CF911F910F910C94FD0DDF91CF911F91B3
:101360000F9108950F939C01CB01243F4CE5340766
:1013700031F188F4293DFCE53F07D9F02A3D4CE5E1
:10138000340779F1283D3C45A9F506E221EE41EE0E
:1013900068ED7CE52BC0263FFCE53F07E1F0A8F0B7
:1013A000273F3C4539F507E225EE46EE67EF7CE541
:1013B0001DC007E225EE45EE69ED7CE517C006E2AB
:1013C00021EE40EE64EF7CE511C007E225EE44EE2D
:1013D00065EF7CE50BC006E221EE42EE66EF7CE5B0
:1013E00005C008E221E045EE6AED7CE50E943F0978
:1013F00080E008C0FC018281882319F01092DA0194
:1014000001C081E00F910895CF93DF93EC01FB01C0
:101410008281882309F41FC1C230FCE5DF0708F48C
:101420001BC1C6319CE5D90738F09E012B5F3C45B6
:101430002930310508F010C10E9443179093CA0269
:101440008093C902C031ECE5DE0709F4C3C008F09F
:1014500041C0C8308CE5D80709F49AC0F0F4C43014
:10146000ECE5DE0709F487C068F4C2308CE5D807E4
:1014700009F477C0C330DC4509F0E3C08091C902AC
:10148000826076C0C630ECE5DE0709F46EC008F075
:101490007BC08091C90288606BC0CC308CE5D807D6
:1014A00009F485C068F4CA30ECE5DE0709F474C0BD
:1014B00008F079C00E94A6108091C902806858C0C7
:1014C000CE308CE5D80709F476C008F07FC0809153
:1014D000C9028BC0CC3FECE5DE0709F44FC018F51C
:1014E000C3318CE5D80709F47DC078F4C131ECE54F
:1014F000DE0709F473C0C231DC4509F0A2C00E94C6
:10150000A6108091C9028F7733C0C5318CE5D8070A
:1015100009F472C008F486C0CB3FDC4509F091C0E5
:101520008091CA023EC0C115FDE5DF0709F45FC026
:1015300058F4CE3F9CE5D90709F444C008F43FC0F5
:101540008091CA0282602DC0C230FDE5DF0709F438
:1015500075C008F45DC0C330DD4509F072C080E09D
:101560006EC08091C902816003C08091C902806110
:101570008093C90266C08091C90211C08091CA02DD
:1015800082608093CA025DC08091C9028062F0CF00
:101590008091C9028064ECCF8091C9028860846028
:1015A000E7CF8160EECF8091C9028E7FE1CF80913D
:1015B000C9028D7FDDCF8091C902877FD9CF80910D
:1015C000CA0218C08091CA028D7FDBCF8091C90208
:1015D0008F7ECECF8091C9028F7DCACF8091C90204
:1015E0008F7BC6CF8091C902877F8B7FC1CF8091CF
:1015F000CA028D7F8E7FC5CF8091C90282FB2227D0
:1016000020F991E0922790FB82F990FB83F9B0CF0B
:101610008091CA02982F909591708E7F892B90FBB4
:1016200081F9AFCF0E94A6108091C90287FB2227C3
:1016300020F991E0922790FB87F99ACF81E00E94F0
:10164000D9178091C9029091CA020E9454170E9432
:10165000A61080E001C081E0DF91CF910895CF9383
:10166000DF9386319C4541F5EB010E947216982F5D
:101670008A812091000130910101882379F09A7AC2
:1016800081E009F480E08093DB01911102C069E2FE
:1016900001C065E3C9010E9474180AC08091DB0192
:1016A000811102C069E201C065E3C9010E947F188F
:1016B0000E94C31680E001C081E0DF91CF910895C0
:1016C0009093E1018093E0010895E091E001F091B1
:1016D000E101309721F00190F081E02D099480E044
:1016E0000895E091E001F091E101309711F480E07C
:1016F00008950190F081E02D09950895E091E001B1
:10170000F091E101309799F020911201222359F0D4
:101710002091C90227FF07C0DC012C9111962C9360
:10172000119725E02C930280F381E02D0994089510
:10173000E091E001F091E101309739F022E0DC0125
:101740002C930480F581E02D099408952091DE0109
:101750003091DF012817390771F09093DF018093F2
:10176000DE01E091E001F091E101309721F0068087
:10177000F781E02D099408952091DC013091DD017D
:101780002817390771F09093DD018093DC01E09117
:10179000E001F091E101309721F00084F185E02D26
:1017A0000994089585B7806885BF85B7806885BF2F
:1017B000089581E008950C94D90B08950C94DD0BE5
:1017C0000C94DD0B0C94E00B0C94DD0B0C94E40BEF
:1017D0000C94DD0B0E94D20B0E94E80B0C94E60BDC
:1017E0000E941B190E94EC020E94C219E9ECF2E06F
:1017F0008081806880838091C9029091CA020E9492
:1018000054170C94E20B7F928F929F92AF92BF92EB
:10181000CF92DF92EF92FF920F931F93CF93DF93BC
:10182000CDB7DEB72A970FB6F894DEBF0FBECDBF97
:101830000E94DE0B0E94DD0B0E945B030E94DB0B0B
:10184000811111C08FEF89838A831B820E94241922
:101850008160782F9D838C8349815A816B818D8132
:101860000E94B70C4FC043EEA42E41E0B42E00E01E
:1018700010E0702E802F0E9410046C01F501819001
:1018800091905F01882699268114910431F40F5FAD
:101890001F4F0630110569F7D5CF80918C0281FD6D
:1018A0000E94190480E0EE24E394F12C94012E218F
:1018B0003F21232B09F18E837F82CE20DF2081E020
:1018C000CD2809F480E088870E9424198160782F50
:1018D0009A8789874E815F8168858A850E94B70CC7
:1018E000000F111FF801ED51FE4F80819181E82614
:1018F000F926F182E08206C08F5FEE0CFF1C8E306D
:10190000A9F6C5CF0E94931C0E94650B9091E2013D
:101910008917C9F00E94650B8093E2012A960FB6E1
:10192000F894DEBF0FBECDBFDF91CF911F910F9115
:10193000FF90EF90DF90CF90BF90AF909F908F90EF
:101940007F900C946B062A960FB6F894DEBF0FBEFC
:10195000CDBFDF91CF911F910F91FF90EF90DF905E
:10196000CF90BF90AF909F908F907F900895CF932E
:10197000DF93CDB7DEB72B970FB6F894DEBF0FBE5F
:10198000CDBF4F83588769877A878B87DE01119691
:1019900086E0FD0111928A95E9F785E0FE01379610
:1019A00001900D928A95E1F749815A816B817C8182
:1019B0008D819E810E945F132B960FB6F894DEBF37
:1019C0000FBECDBFDF91CF910895FC018081918141
:1019D0000E9433160895CF93882309F4A4C0C82F1A
:1019E0008238C1F40E94650B81FD9DC069E380913E
:1019F0000001909101010E9474180E94C3162FEFFC
:101A000081EE94E0215080409040E1F700C000005A
:101A100069E319C0833801F50E94650B80FD83C01E
:101A200063E580910001909101010E9474180E9469
:101A3000C3162FEF81EE94E0215080409040E1F7F3
:101A400000C0000063E580910001909101010E94B7
:101A50007F18CF910C94C3168438C1F40E94650B93
:101A600082FD61C067E480910001909101010E94B4
:101A700074180E94C3162FEF81EE94E0215080402D
:101A80009040E1F700C0000067E4DDCF8CEF8C0FE1
:101A9000813AD0F46C2F80910001909101010E9455
:101AA000F417882349F06C2F809100019091010177
:101AB0000E947F180E94C3166C2F809100019091A4
:101AC00001010E947418C5CF80E28C0F883048F461
:101AD000C77081E001C0880FCA95EAF70E947516A9
:101AE000B8CFEBE5EC0FE33040F4F0E0EE58FE4FFA
:101AF000808190E0CF910C94A60BE8E5EC0FE731E4
:101B000050F4F0E0EE0FFF1FEC5BFE4F80819181FF
:101B1000CF910C94BC0BC03F30F08C2F0E94881BDF
:101B2000CF910C94751CCF910895882309F464C05B
:101B3000823879F40E94650B81FF5EC069E3809171
:101B40000001909101010E9474180E94C31669E37C
:101B500010C08338B1F40E94650B80FF4DC063E56F
:101B600080910001909101010E9474180E94C31697
:101B700063E580910001909101010E947F180C940F
:101B8000C316843879F40E94650B82FF35C067E480
:101B900080910001909101010E9474180E94C31667
:101BA00067E4E7CF9CEF980F913A10F4682FE1CFEC
:101BB00090E2980F983050F4877091E001C0990F2F
:101BC0008A95EAF7892F0E947B16D9CF9BE5980F5B
:101BD000933020F480E090E00C94A60B98E5980FE9
:101BE000973120F480E090E00C94BC0B803F20F013
:101BF0000E94F01B0C94751C0895CF93C82F0E946F
:101C0000EB0CC93349F42FEF87EE93E0215080406D
:101C10009040E1F700C000008C2FCF910C94950DFF
:101C2000882321F00E9475160C94C316089588230A
:101C300021F00E947B160C94C3160895CF92DF9278
:101C4000EF92FF920F931F93CF93DF937C01062FA8
:101C5000C72FFC01158112951F70D281D1110E94EE
:101C600095160E946B16882399F0DD2389F08C2F3E
:101C7000807F803421F080E2800F883048F082E05D
:101C80000E940D170E946B1691E0D82ED92601C034
:101C9000D12CCC2EC2948FE0C8228C2D90E0FC0178
:101CA000EA5AFF4F0C9494248C2F807FCF708823A6
:101CB00011F0C295C07FDD2399F0CC2309F485C1D2
:101CC00080E2800F883010F0011104C08C2F0E9438
:101CD000751603C08C2F0E9488160E94C31675C10A
:101CE000802F0E94950DCC2309F494C180E2800FCF
:101CF000883010F0011104C08C2F0E947B1603C0A5
:101D00008C2F0E948E160E94C31684C18C2F807F58
:101D1000CF70803211F0C295C07F002319F00130DE
:101D2000C9F024C0DD2371F0112341F0113031F4EA
:101D30000E94A8168C2B0E94B0166CC10E94A81697
:101D40008C2B0EC0112319F0113009F463C10E94CD
:101D5000B9161EC0DD2339F0123008F05BC18C2F9C
:101D60000E94100E57C1111155C112C0DD2319F088
:101D70001123A9F32AC1112359F0093309F036C1FF
:101D8000FFEF27EE83E0F15020408040E1F72CC1C7
:101D90008C2F0E94170E3EC18C2F869586958370DE
:101DA00019F0813061F036C1DD2321F0802F9C2FA6
:101DB000937002C080E090E00E94A60B33C1DD2347
:101DC00021F0802F9C2F937002C080E090E00E9451
:101DD000BC0B28C1802FDD2319F00E94881B02C094
:101DE0000E94F01B0E94751C1DC18C2F837009F08E
:101DF00045C0D11113C1402F429546954770440FFD
:101E0000440F602F6F70862F90E0A0E0B0E0042EAA
:101E100004C0880F991FAA1FBB1F0A94D2F704FFA2
:101E200010C00FE010E020E030E004C0000F111FF0
:101E3000221F331F4A95D2F70095109520953095B3
:101E400003C000E010E09801C695C695C370BC01C0
:101E5000CD01602B712B822B932BC23049F058F4AB
:101E6000C13019F00E94B014D9C00E949E14D6C08F
:101E70000E94C214D3C00E949C14D0C0DD2319F06C
:101E80008C2F817001C08695882309F4C7C0402F2C
:101E9000429546954770440F440F602F6F70862F10
:101EA00090E0A0E0B0E0042E04C0880F991FAA1FA4
:101EB000BB1F0A94D2F704FF10C00FE010E020E02F
:101EC00030E004C0000F111F221F331F4A95D2F7C4
:101ED000009510952095309503C000E010E0980122
:101EE000C695C695C370BC01CD01602B712B822BAA
:101EF000932BC23049F058F4C13019F00E94751587
:101F00008DC00E9463158AC00E94871587C00E94F9
:101F1000D61484C0CF70DD2339F08C2F0E94FC14BE
:101F2000802F0E94100E7AC0802F0E94170E8C2FD7
:101F30000E941D1573C0023FF9F028F4003F41F0E4
:101F4000013F99F03EC0033FF1F0043F31F139C049
:101F5000DD2339F011115EC08C2F8F710E94421564
:101F600059C0123008F056C0F7CFDD2339F08C2F5E
:101F70008F710E94FC144EC0DD23C9F38C2F8F712A
:101F80000E941D1547C0DD2329F08C2F8F710E9400
:101F9000E71440C00E94E2143DC0DD2349F0CF7138
:101FA0008C2F0E94FC1463E08C2F0E94F81632C024
:101FB00081E00E940D17123068F182E00E940D1737
:101FC00029C0DD2331F0112391F2802F0E94EB0C08
:101FD00021C0112399F2093349F49FEFE7EEF3E0B2
:101FE0009150E040F040E1F700C00000802F0E94D7
:101FF000950D10C04C2F4F70602FC7010E947406C2
:102000000E940D140FC04C2F4F70602FC7010E940B
:10201000770608C088EF8C0D843020F40E94650B91
:102020000E946B06DD20C9F00E94671680FD15C076
:10203000F70112820E9461160E94FC14C7010E94DF
:102040004E100E946116DF91CF911F910F91FF906A
:10205000EF90DF90CF900C941D15DF91CF911F91E1
:102060000F91FF90EF90DF90CF9008950F931F9303
:10207000CF93DF93EC01688179818A810E943E16BB
:102080008C010E9499150E948A14B801CE010E9409
:102090001E0EDF91CF911F910F910895CF93DF9383
:1020A000EC01988189812B813C81232B31F08F3F7A
:1020B00031F481E09F3F19F403C081E001C080E06A
:1020C00080FD19C0CE010E94210681110CC00E9422
:1020D0006B16882381F08A81882369F082E0DF9182
:1020E000CF910C940D17CE010E943610CE01DF91D6
:1020F000CF910C94EC05DF91CF910895882321F0C6
:102100000E9488160C94C3160895882321F00E941B
:102110008E160C94C31608950E9495160E94A5165B
:102120000E94C3160E94A61D0E94751C80E090E0CC
:102130000E94A60B80E090E00C94BC0B8091000103
:10214000909101010E948A180C948C100E948516AF
:102150000C949E10E92FE295EF704E2F50E0FA019B
:102160003297EE30F105B0F4EA59FF4F0C94942405
:10217000803F91F018F4883E68F40EC0843F51F41B
:102180000BC0883E48F0813F29F406C093FB8827A6
:1021900080F9089580E0089581E008950E94331643
:1021A0000E94AA100895CF93DF9300D000D01F9211
:1021B000CDB7DEB70F900F900F900F900F90DF917B
:1021C000CF910895CF93DF9300D000D000D0CDB74A
:1021D000DEB726960FB6F894DEBF0FBECDBFDF91F7
:1021E000CF9108951F93CF93DF93C091F00116E034
:1021F0008091F101C81799F0D0E01C9FF0011D9F5C
:10220000F00D1124EE50FE4F4081518162817381A7
:10221000848195810E94E2102196C770E9CFDF91F9
:10222000CF911F9108954091220250912302609115
:1022300024027091250280912602909127020C942D
:10224000E2100F931F93CF93DF9380912702829523
:102250008F7009F05DC080912402882309F458C072
:102260008091F0011091F10160912202709123029E
:10227000C0912502D091260291E06F3F09F090E0D5
:10228000292F06E0811709F443C0209721F07F3FF2
:1022900021F030E003C031E001C0322F90E030FD8A
:1022A00034C0089FF001099FF00D1124DF01AE50EA
:1022B000BE4F11963C911197371327C03C913613AE
:1022C00024C012963C91129731111FC013964D9164
:1022D0005C9114974C1B5D0B483C5105B0F4809108
:1022E00027028F70806180932702E950FE4F808122
:1022F0008F708061808382E292E00E944E10DF91B5
:10230000CF911F910F910C94F21001968770BACF64
:10231000DF91CF911F910F9108959F92AF92BF923D
:10232000CF92DF92EF92FF920F931F93CF93DF93A1
:10233000CDB7DEB761970FB6F894DEBF0FBECDBF45
:102340008C0185E0F801DE011D9601900D928A95C1
:10235000E1F7F80140815181E28090912202609181
:10236000230220912502309126022115310531F0FA
:102370006F3F31F481E09F3F19F403C081E001C059
:1023800080E0F82FF1709F2E80FD46C1F801A380F8
:10239000B48082E2C82E82E0D82EF0902402F501AB
:1023A000E21BF30BFF2009F4DFC080912702E83C19
:1023B000F10508F09BC0282F207F09F052C056136A
:1023C00013C0491311C0FE2CE1100EC08F70806144
:1023D000809327020E941311C6010E944E10809123
:1023E0002702F801858358C1AB2831F05F3F31F4F3
:1023F00081E04F3F19F403C081E001C080E080FD1F
:1024000003C081E08E2502C080E090E0F82FF170DB
:10241000FF2E80FF1CC08091F0012091F10136E079
:10242000821709F417C190E0389FF001399FF00D31
:102430001124EE50FE4F6181561306C06081461391
:1024400003C06281E61203C001968770E9CFFE2CBB
:10245000EE2009F421C18091270281608093270238
:102460005AC0561306C0491304C0E11002C0F80157
:102470009FC04D875E878D859E850E94CE108823E4
:1024800079F1EE2069F120912702822F82958F70D9
:1024900090E0029774F08091220290912302988735
:1024A0008F831986BB86AA862C87CE0107960E9449
:1024B0004E1086E0F801A2E2B2E001900D928A95FA
:1024C000E1F70E9421110E9413110DC0561729F146
:1024D0004D875E878D859E850E94CE1081112CC010
:1024E000C8010E944E10FF24F394D6C0282F207FED
:1024F00069F77A2DB98AA88A6E2D89890E94D3102E
:1025000082E292E00E944E1086E0F60111928A95D6
:10251000E9F70E941311F12CBFC04913D9CFE11084
:10252000D7CFF8018583C8010E944E1086E0F601DE
:1025300011928A95E9F7B0C0EE2091F2209127021E
:10254000822F82958F7090E002970CF4B2CF809129
:102550002202909123029A8389831B82BD82AC82DE
:102560002E83CE010196A3CFE83CF10508F047C0C9
:10257000FE2CEE2009F4B4CF561330C049132EC000
:102580002091270220FD21C0822F82958F70482F35
:1025900050E041155105C9F0F80125834F30510530
:1025A00041F08F5F982F9295907F822F8F70892BAB
:1025B0008583C8010E944E1086E0F801A2E2B2E0D5
:1025C00001900D928A95E1F742C086E0F801A2E2FF
:1025D000B2E001900D928A95E1F75EC04D875E876B
:1025E0008D859E850E94CE10811163CF8091270238
:1025F000816080932702C8010E944E104DC07A2D41
:10260000B98AA88A6E2D89890E94D31086E0F601C6
:1026100011928A95E9F71BC0EE2009F461CF4D872E
:102620005E878D859E850E94CE10F82E882309F442
:1026300057CF86E0F801A2E2B2E001900D928A95B0
:10264000E1F782E292E00E94E50C0E9421110E94D3
:10265000131122C04D875E878D859E850E9433169B
:10266000292F22952F70223028F49F7039F0811184
:1026700005C00BC0243028F49F7049F4805E883078
:1026800020F0C8010E944E109F2CF92C05C0F801C3
:102690009581907F99F7F9CF8F2D61960FB6F894B9
:1026A000DEBF0FBECDBFDF91CF911F910F91FF9085
:1026B000EF90DF90CF90BF90AF909F9008951F93C1
:1026C000CF93DF93CDB7DEB72C970FB6F894DEBF6C
:1026D0000FBECDBF4F83588769877A878B879C87CA
:1026E000CE0107960E948D118823D1F09F818885A5
:1026F0002A853B85232B31F08F3F31F481E09F3FCA
:1027000019F403C081E001C080E080FD47C04F8123
:10271000588569857A858B859C850E94E2103EC02C
:1027200086E0FE013796DE01119601900D928A95A2
:10273000E1F7FF81E8856A857B856115710531F0D8
:10274000EF3F31F481E0FF3F19F403C081E001C0A5
:1027500080E080FD23C02091F10130E0C9010196A5
:10276000877099274091F00150E084179507F1F1A7
:10277000F983EA837D836C8396E0929FD001939FD7
:10278000B00D1124AE50BE4FFE01319601900D9256
:102790009A95E1F78093F1010E94F21016E0809182
:1027A000F0019091F101891771F1189FC001112476
:1027B0008E509E4F0E948D11882329F1E091F001E7
:1027C0001E9FF0011124EE50FE4F40815181628125
:1027D0007381848195810E94E2108091F00190E0E4
:1027E0000196877099278093F001D9CF0E94A61097
:1027F0001092F1011092F001E2E2F2E086E0DF01D6
:102800001D928A95E9F72C960FB6F894DEBF0FBE9D
:10281000CDBFDF91CF911F910895EF92FF920F935B
:102820001F93CF93DF938C01892B09F46CC0F12C9B
:10283000EE24E394E8012196F8018491843740F472
:10284000843008F051C0813081F0823019F15BC0D2
:10285000853709F444C0A8F19CE7980F903708F039
:1028600052C08F770E94950D41C00E5F1F4FFE0131
:10287000849190E2980F983050F48770FE2D01C03B
:10288000FF0F8A95EAF78F2F0E94981614C00E94B6
:10289000EB0C2DC00E5F1F4FFE01849190E2980F4C
:1028A000983060F48770FE2D01C0FF0F8A95EAF71B
:1028B0008F2F0E949E160E94C31619C00E94950D6C
:1028C00016C00E5F1F4FFE01C491CC2381F08FE92B
:1028D0009FE00197F1F700C00000C150F6CF0E5FF6
:1028E0001F4FFE01F49003C00E94EB0C8E018F2D50
:1028F000882309F49FCFEFE9FFE03197F1F700C09B
:1029000000008150F5CFDF91CF911F910F91FF9083
:10291000EF900895089508950C948B140C948C14E2
:102920000E948E1460936302709364028093650228
:10293000909366020C948C100C9490140F931F9338
:102940000091630210916402209165023091660249
:10295000602B712B822B932B1F910F910C94901451
:102960000F931F93009163021091640220916502FE
:102970003091660260237123822393231F910F916C
:102980000C9490140F931F930091630210916402B2
:102990002091650230916602602771278227932774
:1029A0001F910F910C9490140C948B140E94D414CA
:1029B00060935F0270936002809361029093620261
:1029C0000C948C1060E070E0CB010C94D6140F9343
:1029D0001F9341E050E060E070E08A019B0104C079
:1029E000000F111F221F331F8A95D2F7C901B801AA
:1029F0001F910F910C94D6140F931F9341E050E058
:102A000060E070E004C0440F551F661F771F8A9571
:102A1000D2F780915F0290916002A0916102B09123
:102A200062028A019B01082B192B2A2B3B2BC9011F
:102A3000B8011F910F910C94D6140F931F9341E08E
:102A400050E060E070E004C0440F551F661F771F20
:102A50008A95D2F7409550956095709580915F0268
:102A600090916002A0916102B09162028A019B0183
:102A7000082319232A233B23C901B8011F910F9171
:102A80000C94D6140F931F9341E050E060E070E087
:102A900004C0440F551F661F771F8A95D2F7809197
:102AA0005F0290916002A0916102B09162028A017E
:102AB0009B01082719272A273B27C901B8011F9125
:102AC0000F910C94D6140F931F9300915F021091F5
:102AD00060022091610230916202602B712B822B87
:102AE000932B1F910F910C94D6140F931F93009169
:102AF0005F021091600220916102309162026023B6
:102B00007123822393231F910F910C94D6140F935A
:102B10001F9300915F021091600220916102309139
:102B2000620260277127822793271F910F910C94CF
:102B3000D61408952EE0929F800D1124E82FE6957B
:102B4000E695E695877051E001C0550F8A95EAF742
:102B500085E0E89FF0011124E85DFD4F20E030E0C2
:102B600070E04081CB01022E02C0969587950A94B1
:102B7000E2F78170819584278523842781932F5FD5
:102B80003F4F2530310569F708952EE0929F800D63
:102B90001124682F669566956695982F977085E045
:102BA000689FB001112440E050E080E0FB01E40F99
:102BB000F51FE85DFD4F208130E0092E02C03695FB
:102BC00027950A94E2F721703327042E01C0220FC3
:102BD0000A94EAF7822B4F5F5F4F4530510531F77A
:102BE0000895BF92CF92DF92EF92FF920F931F93BF
:102BF000CF93DF938C01C0905F02D0906002E09091
:102C00006102F09062028091630290916402A0914F
:102C10006502B0916602C82AD92AEA2AFB2ACFE1C6
:102C2000D0E0D701C6010C2E04C0B695A7959795A4
:102C300087950A94D2F780FD04C0219790F7B12CB4
:102C400007C0BC2EB8018C2F0E9493060197A9F3F0
:102C50008B2DDF91CF911F910F91FF90EF90DF901F
:102C6000CF90BF900895CF93DF93EC010E94F115B0
:102C7000BE010E949306DF91CF9108951F93CF93D9
:102C8000DF93EB019091EF01992321F0CB010E949A
:102C9000331613C0882349F0CB010E94F115182F79
:102CA000682FCE010E949A1504C0CB010E94C51561
:102CB000182FBE01812F0E949306DF91CF911F91A3
:102CC00008958091670285958595859508958091F1
:102CD00067028770089590916702977081E009F408
:102CE00080E0089580918B02089590918B02892B4A
:102CF00080938B020895809590918B028923809315
:102D00008B02089580938B02089510928B02089590
:102D100090918A02892B80938A02089580959091E0
:102D20008A02892380938A02089510928A02089564
:102D300090918902892B80938902089580959091C2
:102D40008902892380938902089510928902089547
:102D500080916802089508950C94AB160C94AC16FB
:102D600090916802981721F0809368020C94AE1637
:102D7000089580916802882329F01092680280E00B
:102D80000C94AE160895E0910001F091010180913C
:102D90008B028083E0910001F0910101908180918C
:102DA0008A02892B8083E0910001F09101019081DA
:102DB00080918902892B808380916802882381F029
:102DC000E0910001F09101019081892B8083809135
:102DD0000001909101010E94DE1781110E94B91635
:102DE00080910001909101010C947E0B0C94AB1624
:102DF00098E0899F90011124262B209367020E945E
:102E0000FC14809167028595859585950C94F6163E
:102E10001092670280E00C94F6162091670280956C
:102E2000822380936702982F977079F430E0482FBF
:102E3000082E000C550B2417350739F0859585951C
:102E400085950E941D150C940817089580E090E068
:102E50000E94B62421E08C3E9E4F09F020E0822F94
:102E6000089582E090E00C94AE24682F82E090E018
:102E70000C94BC2483E090E00C94AE24682F83E093
:102E800090E00C94BC24CF9384E090E00E94AE24A8
:102E9000C82F81E290E00E94AE242C2F30E0A901DF
:102EA000582BCA01CF910895CF93C92F682F84E082
:102EB00090E00E94BC246C2F81E290E0CF910C94B2
:102EC000BC24AB01BC018FE090E00C94CE24AB019C
:102ED000BC0183E190E00C94CE2460E070E0CB0173
:102EE0000C94671760E070E0CB010E9461170C94AE
:102EF0006D176CEE7EEF80E090E00E94DA2460E0D7
:102F000082E090E00E94BC2460E083E090E00E94B8
:102F1000BC24109263021092640210926502109217
:102F2000660260E084E090E00E94BC2460E081E200
:102F300090E00E94BC2460E085E090E00E94BC2408
:102F400060E086E090E00E94BC246FEF87E090E0B4
:102F50000E94BC2440E050E0BA0188E090E00E946A
:102F6000CE2460E08DE090E00E94BC2440E050E080
:102F7000BA0188E190E00E94CE2460E087E190E011
:102F80000E94BC2440E050E0BA018CE190E00E9435
:102F9000CE2460E080E290E00E94BC2440E050E05B
:102FA000BA0188E190E00E94CE240C9472170C9430
:102FB0007917682F8EE090E00C94BC24FC013296C7
:102FC00080911201882331F08091C90287FF02C0ED
:102FD0009EE101C096E080E0915028F021912223EB
:102FE000D9F38F5FF9CF0895662351F12091120133
:102FF0002223E9F02091C90227FF19C0462F4695E8
:10300000469546954E31E0F4677021E030E002C00D
:10301000220F331F6A95E2F7FC01E40FF11D828154
:1030200090E02823392381E0232B69F409C0FC01B7
:10303000329608962191621729F0E817F907D1F71F
:1030400080E0089581E008959C01FC0132969FEF95
:1030500080E04191461789F09F3F19F4411101C06A
:10306000982F8F5F8630A9F79F3F39F0F901E90F5C
:10307000F11D97FDFA956283089508959C012A5FDA
:103080003F4FFC014281461301C012820196821714
:103090009307B9F70895262F2695269526952E3164
:1030A00068F4FC01E20FF11D677021E030E001C01F
:1030B000220F6A95EAF78281282B22830895262F12
:1030C0002695269526952E3170F4FC01E20FF11D10
:1030D000677021E030E001C0220F6A95EAF7209581
:1030E000828128232283089520911201222329F02E
:1030F0002091C90227FD0C944B180C9424182091A0
:103100001201222329F02091C90227FD0C945F1897
:103110000C943E1820911201FC013296222331F0CA
:103120008091C90287FF02C08EE101C086E0DF0105
:103130001D928A95E9F7089508950C949C18CF93F1
:103140000E9402030E945B030E949D18C0E08C2F26
:103150000E941004892B29F4CF5FC630C1F780E0AC
:1031600001C081E0CF9108950C949C180C94B41880
:103170000E94B6188091CF02843049F110928D02DE
:1031800020E488E190E00FB6F894A8958093600061
:103190000FBE2093600080E00E946B060E94B6186C
:1031A00083B7817F846083BF83B7816083BF789456
:1031B000889583B78E7F83BF0FB6F894A8958091CA
:1031C0006000886180936000109260000FBE0895D7
:1031D0000C949C180E94A6100E94650B0E946B061E
:1031E0000C94E8181F920F920FB60F9211248F9330
:1031F0009F93AF93BF9380918D02811113C08091F3
:10320000C5029091C602A091C702B091C802419632
:10321000A11DB11D8093C5029093C602A093C70261
:10322000B093C802BF91AF919F918F910F900FBE45
:103230000F901F90189582E084BD93E095BD9AEFA2
:1032400097BD80936E0008952FB7F8948091C502C2
:103250009091C602A091C702B091C8022FBF0895F5
:103260009C014FB7F8948091C5029091C602A0913D
:10327000C702B091C8024FBF821B930B0895789488
:103280001F920F920FB60F9211248F939F93AF93BB
:10329000BF938091C5029091C602A091C702B091E0
:1032A000C8020196A11DB11D8093C5029093C6026C
:1032B000A093C702B093C802BF91AF919F918F9125
:1032C0000F900FBE0F901F90189587E797E7909388
:1032D0000108809300089AE088E10FB6F894A89559
:1032E000809360000FBE90936000FFCFAF92BF92BB
:1032F000CF92DF92EF92FF920F931F93CF93C0E094
:10330000CC24C394D12CE82EF12C8C2F0E941004D5
:103310005C0100E010E0C601002E02C0880F991F7A
:103320000A94E2F78A219B21892B31F40F5F1F4F0A
:103330000E30110581F70AC0602F7C2F80E00E94BB
:103340007806E816F90691F781E004C0CF5FC63031
:10335000E1F680E0CF911F910F91FF90EF90DF9009
:10336000CF90BF90AF900895CF93C82F8CE20E946A
:103370007619882321F08C2FCF910C94761980E058
:10338000CF910895CF930E942617811102C00E9409
:10339000D717C5E6C15049F00E945B038FE39CE953
:1033A0000197F1F700C00000F5CF89E20E94B4193F
:1033B00081112AC18AE20E94B41981110E94D71793
:1033C00085E00E94B41981110E9465190E9431178D
:1033D00080938C0287E00E94B4198823A9F18BE1C5
:1033E0000E94B419882351F080918C0281FB22271E
:1033F00020F991E0922790FB81F90EC08EE00E94A7
:10340000B419882361F080918C0282FB222720F975
:1034100091E0922790FB82F980938C0215C080E1A5
:103420000E94B41990918C02882341F093FB2227CB
:1034300020F981E0822780FB93F904C0892F8095D1
:1034400080FB90F990938C0280918C020E9435173A
:103450000E9443179093CA028093C90280EE0E9493
:10346000B419882341F08091C902982F909590FB60
:1034700080F98093C90289E30E94B419882359F026
:103480008091C90281FB222720F991E0922790FBCD
:1034900081F98093C90282EE0E94B419882359F001
:1034A0008091C90282FB222720F991E0922790FBAC
:1034B00082F98093C90286EE0E94B419882359F0DC
:1034C0008091C90283FB222720F991E0922790FB8B
:1034D00083F98093C90283EE0E94B419882359F0BE
:1034E0008091C90284FB222720F991E0922790FB6A
:1034F00084F98093C90285E30E94B419882359F0A6
:103500008091C90285FB222720F991E0922790FB48
:1035100085F98093C90281E30E94B419882359F088
:103520008091C90286FB222720F991E0922790FB27
:1035300086F98093C90281E10E94B419882359F069
:103540008091C90287FB222720F991E0922790FB06
:1035500087F98093C9028091C9029091CA020E94A2
:10356000541787E20E94B419C82F8EE10E94B41943
:103570008111C2608FE10E94B4198111C46080E2A0
:103580000E94B4198111C86081E20E94B4198111AE
:10359000C06182E20E94B4198111C06283E20E947C
:1035A000B4198111C06484E20E94B419882311F017
:1035B000C06802C0CC2329F08C2F0E943E176C2FCC
:1035C00003C00E943A17682F70E080E090E00E94EC
:1035D0009C1460915F0270916002809161029091F1
:1035E00062020E94D4148FE00E94B419882319F05B
:1035F00081E00E94D91785E10E94B419882321F047
:1036000080E0CF910C94D917CF91089580919602C4
:1036100080FF0BC06091060185E0689FB001112416
:1036200075956795759567952BC081FF09C0609169
:10363000060185E0689FB00111247595679520C04B
:1036400082FF07C06091060185E0689FB0011124E8
:1036500017C0909195029923D1F0609105019617BA
:1036600088F72091060185E0289F90011124929F00
:10367000A001939F500D112470E0CA010E94802484
:103680006038710540F46115710519F406C065E0F4
:1036900070E0862F08958FE7089581E00895809166
:1036A000960280FF08C06091030170E075956795F0
:1036B0007595679521C081FF06C06091030170E098
:1036C0007595679519C082FF04C06091030170E091
:1036D00010C090919402992399F06091020196177D
:1036E000A0F780910301899FC001112470E00E941E
:1036F00080246038710540F46115710519F406C025
:1037000061E070E0862F08958FE7089581E00895C5
:10371000803F21F40E94061B819504C0813F29F45B
:103720000E94061B80939A020895823F21F40E9412
:10373000061B819504C0833F29F40E94061B8093D9
:1037400099020895893F19F40E944F1B05C08A3FD2
:1037500031F40E944F1B819580939B0208958B3F0B
:1037600021F40E944F1B819504C08C3F29F40E94D4
:103770004F1B80939C020895843F21F4809198020E
:10378000816017C0853F21F480919802826011C04A
:10379000863F21F48091980284600BC0873F21F41A
:1037A00080919802886005C0883F31F4809198022A
:1037B00080618093980208958D3F21F48091960254
:1037C00081600BC08E3F21F480919602826005C01B
:1037D0008F3F29F480919602846080939602089529
:1037E000803F39F480919A0287FF6AC010929A0252
:1037F00067C0813F29F480919A021816BCF360C01B
:1038000090919902823F29F497FF5AC01092990231
:1038100057C0833F19F41916CCF352C090919B0204
:10382000893F31F419160CF04BC010929B0248C02E
:103830008A3F19F497FF44C0F8CF8B3F39F4809149
:103840009C0287FF3DC010929C023AC08C3F29F435
:1038500080919C021816BCF333C0843F21F4809100
:1038600098028E7F17C0853F21F4809198028D7F4A
:1038700011C0863F21F4809198028B7F0BC0873F57
:1038800021F480919802877F05C0883F31F48091B0
:1038900098028F7E8093980213C08D3F21F480910F
:1038A00096028E7F0BC08E3F21F4809196028D7F11
:1038B00005C08F3F29F4809196028B7F80939602FA
:1038C00080919902811106C080919A02811102C0F3
:1038D0001092950280919B02811106C080919C02FA
:1038E000811102C01092940208950E94241920911F
:1038F0009902211104C020919A02222321F0909371
:1039000093028093920220919B02211104C0209186
:103910009C02222321F0909391028093900287E9E8
:1039200092E00C94980BEF92FF920F931F93CF931A
:10393000DF9300D000D000D0CDB7DEB786E0E7E956
:10394000F2E0DE01119601900D928A95E1F7E09088
:103950009902F0909A0200919B0210919C021092A1
:10396000990210929A0210929B0210929C02E1100E
:1039700003C0FF2009F45DC08091920290919302F0
:103980000E943019AC0190919502992339F0209151
:10399000070130E02417350758F04BC020918F0203
:1039A0008AE0289F900111242417350718F041C0A0
:1039B0009F3F19F09F5F90939502EE2061F00E9467
:1039C000061B1E1414F09FEF01C091E0989F902DEC
:1039D000112490939902FF2061F00E94061B1F148E
:1039E00014F09FEF01C091E0989F902D11249093C7
:1039F0009A02309199023323E1F020919A02222316
:103A0000C1F045EB3403C0011124992319F09093C0
:103A1000990203C081E08093990235EB2303C00132
:103A20001124992319F090939A0203C081E08093A6
:103A30009A02011103C0112309F45DC08091900224
:103A4000909191020E943019AC01909194029923B7
:103A500039F02091040130E02417350758F04BC0AD
:103A600020918E028AE0289F9001112424173507A7
:103A700018F041C09F3F19F09F5F9093940200237C
:103A800061F00E944F1B101614F09FEF01C091E0EF
:103A9000989F902D112490939B02112361F00E9416
:103AA0004F1B111614F09FEF01C091E0989F902DCD
:103AB000112490939C0230919B023323E1F02091DA
:103AC0009C022223C1F045EB3403C0011124992349
:103AD00019F090939B0203C081E080939B0235EB29
:103AE0002303C0011124992319F090939C0203C071
:103AF00081E080939C028091990281110BC080919A
:103B00009A02811107C080919B02811103C08091AC
:103B10009C0281110E94751CEB82FC820D831E8326
:103B200086E0FE013196A7E9B2E001900D928A95F8
:103B3000E1F726960FB6F894DEBF0FBECDBFDF913A
:103B4000CF911F910F91FF90EF900895E7E9F2E078
:103B500086E0DF011D928A95E9F710929502109296
:103B600094021092960208958091BD020895CF9319
:103B7000DF9300D01F92CDB7DEB79091CF02943083
:103B800019F589837B836A8382E08093E9008FEF54
:103B90009091E800815095FD06C095ED9A95F1F75A
:103BA00000008111F5CF8091E80085FF0DC040E055
:103BB00050E063E070E0CE0101960E94E21F809128
:103BC000E8008E778093E8000F900F900F90DF91C0
:103BD000CF910895BC0184E00C94B71DBC0183E033
:103BE0000C94B71D22E02093E9002FEF3091E800FC
:103BF000215035FD06C035ED3A95F1F70000211151
:103C0000F5CF2091E80025FF0BC040E050E066E0D2
:103C100070E00E94E21F8091E8008E778093E800B8
:103C20000895CF93DF9320911201222339F0209140
:103C3000C90227FF03C060E222E002C068E021E081
:103C40002093E9002FEF3091E800215035FD06C0A8
:103C500035ED3A95F1F700002111F5CF2091E800FC
:103C600025FF1DC0EC0180911201811105C040E0CB
:103C700050E068E070E003C070E040E050E0CE014A
:103C80000E94E21F8091E8008E778093E80080E236
:103C9000FE01ADE9B2E001900D928A95E1F7DF9166
:103CA000CF9108958091CE02811109C00E947321A5
:103CB0000E94D0218091E20084608093E200089508
:103CC0001092CE020895089508950C94EA1842E0E7
:103CD00061EC81E00E94EC2042E261EC82E00C9415
:103CE000EC208091D102833009F460C030F481303F
:103CF00071F0823009F499C008958A3009F485C0C2
:103D00008B3009F46BC0893009F0A7C020C08091C6
:103D1000D002813A09F0A1C08091E800877F8093AA
:103D2000E8008091D4029091D502892B21F460E2C1
:103D30008DE992E003C060E080E090E070E00E94D6
:103D40002D208091E8008B778093E8000895809182
:103D5000D002813209F081C08091D4029091D502C5
:103D6000029708F07AC08091E800877F8093E8008E
:103D70008091E80082FD05C08091CF028111F8CFCB
:103D80006CC02091F3008091F20090E0922B02979A
:103D900029F48091F1008B7F813021F48091F10032
:103DA0008093BD028091E8008B7753C08091D00250
:103DB000813A09F052C08091D4029091D502892BAA
:103DC00009F04BC08091E800877F8093E8008091E4
:103DD000E80080FFFCCF8091120136C08091D002B4
:103DE0008132D9F58091D4029091D502892BA9F521
:103DF0008091E800877F8093E8000E9421218091D4
:103E0000D202809312010C94A6108091D0028132CC
:103E100021F58091E800877F8093E8000E942121AE
:103E20008091D3028093BE0208958091D002813A9E
:103E3000A1F48091E800877F8093E8008091E800FA
:103E400080FFFCCF8091BE028093F1008091E8005A
:103E50008E778093E8000C942121089584B7877FA2
:103E600084BF0FB6F894A895809160008861809314
:103E70006000109260000FBE90E080E80FB6F894EA
:103E800080936100909361000FBE0E94EA0B0E9434
:103E900073210E94D0218091E20084608093E2002F
:103EA00078940E9465240E94F00B88E091E00E94C3
:103EB000600B8091CF02853069F40E94B818809120
:103EC000CD028823B1F30E949F18882391F30E94AA
:103ED000CC1FEFCF0E94030C0E94DE0B0E94DD0B73
:103EE000E8CF0C94731F292F332723303105C9F0F5
:103EF00060F42130310581F02230310509F044C0F1
:103F00008BE390E020E233E043C021323105E1F061
:103F10002232310549F138C082E190E02BE533E0EF
:103F200037C099278130910549F028F0029761F553
:103F3000E4EFF2E005C0ECE1F3E002C0E8E0F3E01A
:103F4000849190E09F0124C06115710541F06130BA
:103F50007105D1F489E090E02BE433E019C089E0E9
:103F600090E022E333E014C06115710541F0613047
:103F7000710551F48CEB90E02DE633E009C080E44C
:103F800090E029E234E004C080E090E020E030E0FE
:103F9000FA0131832083089580E189BD82E189BDE2
:103FA00009B400FEFDCF8091D8008F7D8093D800AA
:103FB0008091E00082608093E0008091E00081FDCC
:103FC000FCCF0895CF92DF92EF92FF920F931F9351
:103FD000CF93DF93EC018B017A010E944021811184
:103FE00033C0E114F10439F0F70180819181081B9D
:103FF000190BC80FD91FC12CD12C0115110519F1AE
:104000008091E80085FD16C08091E8008E7780934E
:10401000E800E114F10449F0F70180819181C80EB4
:10402000D91ED182C08285E00FC00E944021882322
:1040300021F30AC089918093F10001501109FFEF2B
:10404000CF1ADF0ADACF80E0DF91CF911F910F9175
:10405000FF90EF90DF90CF9008952091D60230919D
:10406000D7022617370748F06115710539F42091FA
:10407000E8002E772093E80001C0B901FC0120E0A0
:104080006115710579F18091CF028823F1F18530B6
:10409000F1F18091E80083FD3CC08091E80082FD51
:1040A0002EC08091E80080FFEBCF2091F30080913B
:1040B000F20090E0922B6115710551F08830910566
:1040C00038F421912093F100615071090196F3CFEA
:1040D00021E0089709F020E08091E8008E77809336
:1040E000E800CECF2111CFCF0AC08091CF02882324
:1040F00061F0853061F08091E80083FD0AC0809115
:10410000E80082FFF2CF80E0089582E0089583E026
:10411000089581E008952091D6023091D7022617A4
:10412000370748F06115710539F42091E8002E77C2
:104130002093E80001C0B901FC0120E06115710580
:1041400091F18091CF02882309F440C0853009F4B1
:104150003FC08091E80083FD3DC08091E80082FD72
:104160002FC08091E80080FFE9CF2091F30080917B
:10417000F20090E0922B6115710559F0883091059D
:1041800040F424912093F100319661507109019619
:10419000F2CF21E0089709F020E08091E8008E77C7
:1041A0008093E800CBCF2111CCCF0AC08091CF0201
:1041B000882361F0853061F08091E80083FD0AC0BA
:1041C0008091E80082FFF2CF80E0089582E00895B8
:1041D00083E0089581E00895982F973068F59093D3
:1041E000E900981739F07091EC002091ED005091A2
:1041F000F00003C0242F762F50E021FD02C09F5F06
:10420000ECCF3091EB003E7F3093EB003091ED002E
:104210003D7F3093ED003091EB0031603093EB0047
:104220007093EC002093ED005093F0002091EE008D
:1042300027FDE5CF80E008958F708093E90081E04D
:1042400008958091D00287FF11C08091E80082FD1F
:1042500005C08091CF028111F8CF11C08091E80094
:104260008B770BC08091CF02882349F08091E800C2
:1042700080FFF8CF8091E8008E778093E800089562
:104280002091E4003091E50095E64091EC00842F08
:10429000817040FF23C08091E80080FD1DC08091A7
:1042A000CF02882399F0853099F08091EB0085FD4D
:1042B00011C04091E4005091E5002417350729F31F
:1042C000915011F09A01E1CF84E0089582E00895C1
:1042D00083E0089581E0089580E008954091E8002A
:1042E00042FFDDCF08950E94E1210E94E921E0EE26
:1042F000F0E0808181608083E8EDF0E080818F775D
:10430000808319BCA7EDB0E08C918E7F8C93808167
:104310008F7E80831092CE0208950F931F93CF93C8
:10432000DF930E94E1210E94E921C8EDD0E088815D
:104330008F77888388818068888388818F7D888350
:1043400019BC1092CF021092CB021092CD021092A3
:10435000CC0200EE10E0F80180818B7F80838881A1
:104360008160888342E060E080E00E94EC20E1EE22
:10437000F0E080818E7F8083E2EEF0E080818160DA
:104380008083808188608083F80180818E7F808334
:10439000888180618883DF91CF911F910F9108956B
:1043A000E8EDF0E080818F7E8083E7EDF0E08081B2
:1043B0008160808384E082BF81E08093CE020C9490
:1043C0008D21E8EDF0E080818E7F80831092E20005
:1043D00008951092DA001092E10008951F920F9252
:1043E0000FB60F9211242F933F934F935F936F93C8
:1043F0007F938F939F93AF93BF93EF93FF9380919E
:10440000E10082FF0BC08091E20082FF07C0809133
:10441000E1008B7F8093E1000E9464248091DA00A8
:1044200080FF1FC08091D80080FF1BC08091DA0000
:104430008E7F8093DA008091D90080FF0DC080E1EB
:1044400089BD82E189BD09B400FEFDCF81E0809382
:10445000CF020E94521E05C019BC1092CF020E94CA
:10446000601E8091E10080FF19C08091E20080FF12
:1044700015C08091E2008E7F8093E2008091E2007F
:1044800080618093E2008091D80080628093D800A0
:1044900019BC85E08093CF020E94641E8091E100E8
:1044A00084FF30C08091E20084FF2CC080E189BD90
:1044B00082E189BD09B400FEFDCF8091D8008F7DD7
:1044C0008093D8008091E1008F7E8093E1008091FD
:1044D000E2008F7E8093E2008091E2008160809311
:1044E000E2008091CB02882311F084E007C0809124
:1044F000E30087FD02C081E001C083E08093CF022A
:104500000E94651E8091E10083FF29C08091E20036
:1045100083FF25C08091E100877F8093E10082E0E6
:104520008093CF021092CB028091E1008E7F809326
:10453000E1008091E2008E7F8093E2008091E200B2
:1045400080618093E20042E060E080E00E94EC2025
:104550008091F00088608093F0000E94631EFF91BC
:10456000EF91BF91AF919F918F917F916F915F91EB
:104570004F913F912F910F900FBE0F901F90189564
:104580001F920F920FB60F9211242F933F934F93C8
:104590005F936F937F938F939F93AF93BF93CF93CB
:1045A000DF93EF93FF93C091E900CF708091EC000F
:1045B000D82FD17080FDD0E81092E9008091F000F2
:1045C000877F8093F00078940E9404231092E90082
:1045D0008091F00088608093F000CD2BCF70C09365
:1045E000E900FF91EF91DF91CF91BF91AF919F9142
:1045F0008F917F916F915F914F913F912F910F908C
:104600000FBE0F901F9018951F93CF93DF93CDB7D8
:10461000DEB7AA970FB6F894DEBF0FBECDBFE0EDB0
:10462000F2E08091F100819322E0E83DF207C9F7C2
:104630000E94711E8091E80083FF2EC18091D002FC
:104640009091D102492F50E04A30510508F024C121
:10465000FA01EC58FF4F0C949424803821F08238F2
:1046600009F01AC108C08091CC029091CD02992323
:1046700089F082600FC08091D4028F70873008F07B
:104680000BC18093E9008091EB0085FB882780F9BE
:104690001092E9009091E800977F9093E800809352
:1046A000F1001092F100D1C0282F2D7F09F0F4C045
:1046B000882319F0823061F0EFC08091D2028130FE
:1046C00009F0EAC0933009F080E08093CD022EC05B
:1046D0008091D20281112AC08091D4028F702FEF75
:1046E000280F263008F0D8C08093E9002091EB0015
:1046F00020FF1CC0933021F48091EB00806214C035
:104700009091EB0090619093EB0021E030E0A901E3
:1047100002C0440F551F8A95E2F74093EA001092B9
:10472000EA008091EB0088608093EB001092E90032
:104730008091E800877F8093E8000E942121ACC02F
:104740008111AAC01091D2021F778091E300807876
:10475000812B8093E3008091E800877F8093E800BD
:104760000E9421218091E80080FFFCCF8091E3002E
:1047700080688093E300111102C082E001C083E0F1
:104780008093CF0289C08058823008F085C0809124
:10479000D2029091D3028C3D53E0950779F583E0E6
:1047A0008A838AE289834FB7F894DE01139620E06A
:1047B0003EE051E2E32FF0E050935700E49120FFF8
:1047C00003C0E295EF703F5FEF708E2F90E0EA300C
:1047D00010F0C79601C0C0968D939D932F5F243132
:1047E00049F74FBF8091E800877F8093E8006AE235
:1047F00070E0CE0101960E942D2016C06091D40277
:104800007091D502AE014F5F5F4F0E94711FBC01D6
:10481000892B09F441C09091E800977F9093E800BC
:1048200089819A810E948B208091E8008B77809308
:10483000E80032C0803881F58091E800877F80935E
:10484000E8008091CB028093F1008091E8008E77A0
:1048500072CF811121C08091D2029091D302992709
:104860000297D4F48091E800877F8093E8008091DC
:10487000D2028093CB020E9421218091CB02811130
:1048800006C08091E30087FD02C081E001C084E0A2
:104890008093CF020E94671E8091E80083FF0AC0C8
:1048A0008091E800877F8093E8008091EB00806230
:1048B0008093EB00AA960FB6F894DEBF0FBECDBF73
:1048C000DF91CF911F9108950895CF938091CF02EA
:1048D0008823A1F0C091E900CF709091EC00892F5E
:1048E000817090FD80E8C82B1092E9008091E8006B
:1048F00083FD0E940423CF70C093E900CF910895F7
:1049000097FB072E16F4009407D077FD09D00E947C
:104910009A2407FC05D03EF4909581959F4F089509
:10492000709561957F4F0895EE0FFF1F0590F491EC
:10493000E02D0994AA1BBB1B51E107C0AA1FBB1F96
:10494000A617B70710F0A61BB70B881F991F5A951B
:10495000A9F780959095BC01CD010895F999FECFF6
:1049600092BD81BDF89A992780B50895A8E1B0E07D
:1049700042E050E00C94E224262FF999FECF92BD3C
:1049800081BDF89A019700B4021639F01FBA20BD14
:104990000FB6F894FA9AF99A0FBE08950396272F46
:1049A0000E94BD240E94BC24252F0E94BD24242FD8
:1049B0000C94BD240196272F0E94BD240C94BC2486
:1049C000DC01CB01FC01F999FECF06C0F2BDE1BDCF
:1049D000F89A319600B40D9241505040B8F70895BE
:0449E000F894FFCF79
:1049E40069022808643C0714B41D111EF21DEE1D53
:1049F400EA1D01E200E900EA00B500B600B700CD07
:104A0400008301CC008A0192019401210223022433
:104A1400022502260227022A02B300B4006F0070A6
:104A240000818283E200E900EA00B500B600B70025
:104A3400CD008301CC008A0192019401210223025A
:104A440024022502260227022A02B300B4006F00C2
:064A540070008182830066
:00000001FF
