:100000000C942E040C9475040C9475040C947504D3
:100010000C9475040C9475040C9475040C9475047C
:100020000C9475040C9475040C9471240C94432561
:100030000C940B1E0C9475040C9475040C947504AC
:100040000C9475040C9475040C9475040C9475044C
:100050000C9475040C94641E0C9475040C94750433
:100060000C9475040C9475040C9475040C9475042C
:100070000C9475040C9475040C9475040C9475041C
:100080000C9475040C9475040C9475040C9475040C
:100090000C9475040C9475040C9475040C947504FC
:1000A0000C9475040C9475040C9475046D136D1305
:1000B0009F139F13E5130314231523150E14A31484
:1000C000B414B4141315231523151C15D115D1150B
:1000D000E315E315DA15E315E315E315D115D1158D
:1000E000DF15E315E315DF15B025D725CF26D72576
:1000F000CF2623264626CF269D26AC2600000000CC
:1001000000000000000000000000000000000000EF
:100110000000000000000000000014471A00080062
:1001200015001700000000001C0018000C00120051
:1001300013000000000004681664076109620A00E9
:10014000000000000B000D720E710F743478000077
:1001500000001D001B000600190005000000000043
:1001600011001000360037003300000000000000CE
:100170000000000029430000000000000000000013
:1001800000000000000000000000000000452A42BE
:100190000000000000000000000000002C41284486
:1001A000000000000000000000000000000000004F
:1001B000000000000000000000000000000000003F
:1001C0000000005C000000000000000000000000D3
:1001D00000007A007B007C007D0000000000E3004E
:1001E000E200E000E10000000000000050005100CB
:1001F00052004F003900000000000000E60000003F
:10020000000000000000000049004E004B004A00C2
:100210004D00000000000000000000000000000091
:1002200000000000000000000000000000000000CE
:1002300000000000000000000000000000000000BE
:1002400000000000000000000000000000000000AE
:10025000000000000000000000000000000000009E
:1002600000000000000000000000005CFD00FE0037
:10027000FF0000000000000000000000000000007F
:10028000000000000000E300E200E000E1000000E8
:1002900000000000EF00EE00ED00F00000000000A4
:1002A00000000000E6000000000000000000000068
:1002B000FB00FA00F900FC00000000000000000054
:1002C0000000000000000000000000000000F3003B
:1002D000000000000000000000000000000000001E
:1002E000000000000000000000000000F200F1002B
:1002F00000000000000000000000000000000000FE
:1003000000000000000000000000000000000000ED
:100310000000005C00000000000000000000000081
:100320000000000000000000000000000000E300EA
:10033000E200E000E100000000000000AC00AA00C4
:10034000A900AB000000000000000000E600000073
:10035000000000000000000000000000000000009D
:10036000000000000000000000000000000000008D
:10037000000000000000A8000000000000000000D5
:10038000000000000000000000000000000000006D
:1003900000000000AE00AD00000000000000000002
:1003A000000000000000000000000000000000004D
:1003B0000000000000000000000000001F022002FA
:1003C000210200000000000000000000000000000A
:1003D0000000000000001E001F002000210022007D
:1003E0000000000023002400250026002700000054
:1003F00000000000000000000000000000000000FD
:10040000000000000000E600000000000000000006
:1004100000000000000000000000000000000000DC
:1004200000000000000000000000000000000000CC
:1004300000000000000000000000000000000000BC
:1004400000000000000000000000000000000000AC
:10045000000000000000000000000000000000009C
:1004600000001E0224022F023002310200000000B0
:10047000350023023402380231000000000022025D
:100480002002260227022E020000000038002E0063
:100490002D002D02330200000000000000002F009C
:1004A000300000000000000035022B00250236025B
:1004B0003702000000000000000000000000000003
:1004C000000000000000000000000000000000002C
:1004D000000000000000000000000000000000001C
:1004E000000000000000000000000000010001000A
:1004F00001000100010001000100010001000100F4
:1005000001000100010001000100010001000100E3
:1005100001000100010001000100010001000100D3
:1005200001000100010001000100010001000100C3
:1005300000000000010001000100010001000100B5
:1005400001000100010001000100010001000100A3
:100550000100010001000100010001000100010093
:100560000100010001000000000000000000010087
:100570000100010001000100000001000100010074
:100580000100010001000100010001000100010063
:10059000010000000000000000000000000000005A
:1005A000000000000000000000000000000000004B
:1005B00000000000E3002800170000000000000019
:1005C000000000000000000000000000000000002B
:1005D00000001A00110000000000000000000000F0
:1005E000000000000000000000000000000000000B
:1005F00000000000000000000000000000000000FB
:1006000000000000000000000000000000000000EA
:1006100000000000000000000000000000000000DA
:1006200000000000000000000000000000000000CA
:1006300000000000000000000000000000000000BA
:10064000000000002A2B280000000000000000002D
:100650000000000000000029000000002C1E3420D3
:10066000212224342627252E362D3738271E1F20F9
:100670002122232425263333362E37381F0405063E
:100680000708090A0B0C0D0E0F1011121314151682
:100690001718191A1B1C1D2F3130232D3504050680
:1006A0000708090A0B0C0D0E0F1011121314151662
:1006B0001718191A1B1C1D2F3130354C0000000073
:1006C000000000000000000000000000000000002A
:1006D000000000000000000000000000000000001A
:1006E0007E0F00D4FFFFFFC7000000781203450013
:1006F000720067006F0044006F006E00650000002C
:1007000012034B002E0054002E0045002E00430023
:100710002E0000000403090409023B00020100A0AE
:10072000FA0904000001030101000921110100017F
:100730002240000705810308000A090401000103A3
:1007400000000009211101000122B6000705820303
:1007500020000A12011001000000080912282301DC
:10076000000102000105010902A10185020901A1A0
:100770000005091901290815002501950875018151
:10078000020501093009311581257F95027508811F
:100790000609381581257F950175088106050C0A23
:1007A00038021581257F950175088106C0C00501B5
:1007B0000980A101850319012AB700150126B70098
:1007C000950175108100C0050C0901A1018504196E
:1007D000012AA002150126A002950175108100C012
:1007E00005010906A1018505050719E029E715009E
:1007F00025019508750181020507190029EF1500EB
:10080000250195F075018102050819012905950555
:1008100075019102950175039101C005010906A1B9
:1008200001050719E029E7150025019508750181E3
:10083000029501750881010507190029FF15002699
:10084000FF00950675088100050819012905950521
:1008500075019102950175039101C00011241FBE1D
:10086000CFEFDAE0DEBFCDBF04B603FE27C0809134
:10087000E2029091E302A091E402B091E502873098
:10088000904BA740B04BD1F41092E2021092E302D9
:100890001092E4021092E50214BE84B7877F84BFF1
:1008A0000FB6F894A89580916000886180936000ED
:1008B000109260000FBEE0E0F8E3099511E0A0E0BF
:1008C000B1E0EAEEFEE402C005900D92A637B10752
:1008D000D9F722E0A6E7B1E001C01D92A23EB2071F
:1008E000E1F70E94A9210C9473270C940000109248
:1008F000B9008AE08093B800089594EA9093BC0010
:100900009091BC0097FFFCCF9091B900987F9830F0
:1009100021F0903111F081E008958093BB0084E8CC
:100920008093BC008091BC0087FFFCCF8091B90010
:10093000887F883111F0803471F780E008950C943D
:100940007D0484E98093BC008091BC0084FDFCCFD1
:1009500008958093BB0084E88093BC008091BC0024
:1009600087FFFCCF9091B900987F81E0983209F41D
:1009700080E0089584E88093BC008091BC0087FFEC
:10098000FCCF8091BB00089580B38F7080BB81B392
:100990008F7081BB84B1897F84B985B1897F85B926
:1009A0000C9442066E98769A8AB183768AB98BB196
:1009B0008C698BB93E98469A24982C9A0C947706A9
:1009C00008950C94E0040C94E0040E94C4040E9476
:1009D000D204ECECF1E088E791E011921192DC0195
:1009E0002EE01D922150E9F70E9621E08C3C9207F3
:1009F000A1F70C94F0070E94C4040E94D204ECEC0E
:100A0000F1E0118210821382128215821482178201
:100A10001682118610861386128608952EE0829F14
:100A2000C0011124FC01E858FE4F20E030E040E016
:100A300050E061E070E09081992319F0915090832B
:100A400009C0CB01022E02C0880F991F0A94E2F759
:100A5000482B592B2F5F3F4F31962E30310559F7D8
:100A6000CA010895CF932EE0629FB001112420E0C7
:100A700030E0A1E0B0E0C5E0AD01022E02C0440FBD
:100A8000551F0A94E2F748235923452B31F0FB0107
:100A9000E20FF31FE858FE4FC0832F5F3F4F2E3009
:100AA000310551F7CF9108954F925F927F928F92C7
:100AB0009F92AF92BF92CF92DF92EF92FF920F93ED
:100AC0001F93CF93DF930E945D060CEC11E0C0E012
:100AD000D1E0C33099F028F4C13051F0C23059F060
:100AE00004C0C43071F0C53079F0849A8C980EC07F
:100AF000859A8D980BC0869A8E9808C0879A8F9891
:100B000005C0219A299802C0229A2A988C2F0E9407
:100B1000460680EA8A95F1F78C2F0E940E055C014B
:100B20000E94A8064B9904C060E4E62EF12C02C096
:100B3000E12CF12C4A9903C0A0E2B0E002C0A0E091
:100B4000B0E04C9904C050E1452E512C02C0412C1C
:100B5000512C369903C068E070E002C060E070E09C
:100B600029B1022E000C330B209530952227330F2C
:100B7000221F3327220F331F220F331F669903C012
:100B800042E050E002C040E050E073B0F801C080A5
:100B9000D1807294EFE07E227D2670FA882480F85E
:100BA000912C882999298E299F298A2B9B2BF20128
:100BB000E82BF92B6E2B7F2B262B372B422B532B1D
:100BC0004C255D25A422B522AC24BD246C2FC60182
:100BD0008A259B250E943205F801A192B1928F01CE
:100BE0000E94C404CF5FC63009F073CF0E94FA0799
:100BF00081E0DF91CF911F910F91FF90EF90DF90F7
:100C0000CF90BF90AF909F908F907F905F904F90CC
:100C10000895E82FF0E0EE0FFF1FE453FE4F8081B0
:100C2000918108950895853008F08F5F2091D80153
:100C300030E0A90102C0559547958A95E2F7CA01AF
:100C4000817008951F93CF93DF93C091D901CC2376
:100C5000A1F0D62F182F80E40E947D04C82F8111A7
:100C60000AC0812F0E94A904C82F811104C08D2FB2
:100C70000E94A904C82F0E94A1048C2FDF91CF915C
:100C80001F9108956FEF81E00C9422068F5F61E061
:100C900070E001C0660F8A95EAF7609581E00C94D8
:100CA00022066FEF82E00E9422066FEF8CE00E9426
:100CB00022066FEF81E00C94220680E40E947D04FE
:100CC00081110CC00E94A1048091D90181110EC034
:100CD00081E08093D9010E94510606C08091D9011C
:100CE000813021F41092D9010C94BF1508950E940F
:100CF00077040C945D060F931F93CF93DF93C091FD
:100D0000D901CC23D1F08B01D82F80E40E947D043F
:100D1000C82F811110C08D2F0E94A904C82F8111E6
:100D20000AC081E40E949F04C82F811104C00E9460
:100D3000BA04F80180830E94A1048C2FDF91CF9127
:100D40001F910F91089568ED71E082E10C947B068C
:100D50008F929F92AF92BF92EF92FF920F931F9349
:100D6000CF93DF930E94A306C0E0D0E000E010E044
:100D70008DE0E82EF12C812C912C540183948C2F42
:100D80000E941306882371F0C7018C1B9D0BA501DF
:100D9000940104C0220F331F441F551F8A95D2F7B8
:100DA000022B132B2196CE30D10549F7C801DF91D4
:100DB000CF911F910F91FF90EF90BF90AF909F90B8
:100DC0008F90089584B1886684B985B1877985B993
:100DD000209A289A559A5D9A089525982D982698D4
:100DE0002E9823982B982098289A259A2D9A2FEFA1
:100DF00080E792E0215080409040E1F700C0000081
:100E0000269A2E9A2FEF80E792E021508040904062
:100E1000E1F700C00000239A2B9A2FEF80E792E0C1
:100E2000215080409040E1F700C0000025982D98A7
:100E30002FEF80E792E0215080409040E1F700C022
:100E4000000026982E982FEF80E792E021508040F6
:100E50009040E1F700C0000023982B9825982D982A
:100E600026982E9823982B982098289A08950E94C7
:100E7000E2060E94ED060C94E1049C013A952115CE
:100E80003F4138F5DC01AA27B270AC014427547009
:100E90009C012227387094FF0FC090FF02C080E1B0
:100EA00001C080E0AB2B09F08062452B09F0806423
:100EB000232B69F080680BC0892F8170AB2B09F060
:100EC0008260452B09F08460232B09F08860FB01C8
:100ED00009940895CF93DF93EC01805E9109089700
:100EE00010F0209719F46CE273E102C067E975E134
:100EF000CE010E943D078C2FDF91CF910C94FA1107
:100F0000CF93DF93EC010E94A412CE01805E910981
:100F1000089710F0209719F463E373E102C06EE9BB
:100F200075E1CE01DF91CF910C943D07CF93DF9314
:100F3000EC010E946A07CE01DF91CF910C948007EB
:100F400081E0089581E008950C94A20708950C941F
:100F5000A6071F93CF93DF9300D000D01F92CDB789
:100F6000DEB749835A836B833091080289819A8165
:100F7000311114C0662359F0222349F00E940A1B44
:100F8000182F682F89819A810E94B31A03C00E948A
:100F9000DE1A182F69817A81812F04C00E940A1BF2
:100FA00069817A810F900F900F900F900F90DF91D1
:100FB000CF911F910C94D308FC01262F40815181C1
:100FC0006281738184810C94A907CF93DF93EC0134
:100FD00060E00E94DC07BE01DF91CF910C94A7076F
:100FE0000E94411C811102C00E94F21C0E94850DCA
:100FF0000C9437070C94E30408950E94BF150E94D7
:10100000FC072FEF84E39CE0215080409040E1F703
:1010100000C000000C948A1E0F931F93CF93DF93A0
:10102000EC0161E00E94DC078C01BE010E94A40774
:10103000882379F1BE01C8010E940D0E882349F171
:10104000BE01C8010E949E0E882319F1BE01C8018D
:101050000E94F00E8823E9F0BE01C8010E941B1017
:101060008823B9F08A81882369F001158CE5180777
:1010700031F00F3D1C4531F40E94F21C0AC00E9461
:10108000FD0707C0CE01DF91CF911F910F910C9406
:10109000A00780E0DF91CF911F910F910895DF921B
:1010A000EF92FF920F931F93CF93DF93E82FF0E01F
:1010B000E45CF94FD490282F26952695269530E0AC
:1010C000F901E452F94F0491877010E0082E02C034
:1010D000159507950A94E2F701701127F901E45379
:1010E000F94FE490F12C082E02C0F594E7940A948D
:1010F000E2F791E0E922FF24F901E454F94FC491A9
:10110000D0E002C0D595C7958A95E2F7C170DD277A
:101110000115110519F081EE0E94FA11E114F10494
:1011200019F086EE0E94FA118D2D0E942313EF28EC
:1011300019F086EE0E94A412012B19F081EE0E9494
:10114000A412CD2B51F08CE2DF91CF911F910F9122
:10115000FF90EF90DF900C942313DF91CF911F91BC
:101160000F91FF90EF90DF900895982F9F709A5005
:10117000963010F0805D01C0895A0C944F08089594
:101180000C94BF0881E008950C94C208CF93C82F37
:101190000E94C0088C2F0E94C408CF91089580E05F
:1011A00090E00895089524E5829FC0011124FC0178
:1011B0002EE0729FE00DF11D1124E60FF11DEE0FE0
:1011C000FF1FE450FF4F859194910895880F991F58
:1011D000FC01E451F94F859194910895CF93DF93E9
:1011E0000E94D3080E94060AEC018115904508F080
:1011F00041C0C11580E4D80708F0D1C0C83ED10570
:1012000010F5C03ED10508F0FDC0C83AD10578F40C
:10121000C53AD10508F0A2C0C130D10509F4F2C029
:1012200008F4EEC0C430D10508F0ECC0E9C0CF3BF3
:10123000D10508F49BC0C03CD10508F4E1C0CE0143
:10124000805C91099EC0C11590E2D90758F4C11580
:1012500021E0D20708F0D6C0CD3ED10508F4D0C0B9
:10126000D065D0C0C11580E3D80708F08EC0CE018C
:101270009F7087C0C11595E5D90708F043C0C11517
:1012800024E5D20708F0A2C0C11582E5D80708F509
:10129000C11591E5D90708F085C0CE0174E0969597
:1012A00087957A95E1F783709C2F937021E030E069
:1012B00002C0220F331F9A95E2F73C68382BCF709B
:1012C000C695C69580E2C89FE0011124C22BD32B9E
:1012D00099C09E01237033278C2F86958695C11562
:1012E000D34508F064C0C1E0D0E002C0CC0FDD1FE0
:1012F0002A95E2F720E2829FC0011124C82BD92B46
:10130000DC6880C0C11529E5D207A0F4C11588E5C5
:10131000D80708F060C0C11596E5D90708F070C07D
:101320008C2F0E949A0A8F71C82FD0E0DC2FCC2717
:10133000D06268C0C1152AE5D20708F451C0CE01B9
:1013400090568115904208F05BC08D2F8F710E94DE
:101350009A0ADD27D0628F71D82B54C0C55AD0E0CD
:10136000CF5BDE4FC881D0E0D0644CC0C85AD0E01B
:10137000CC0FDD1FCD5EDE4F0990D881C02DD46427
:1013800041C00E94E608EC013DC0CE019927D3FF81
:1013900003C0EC01D86C36C0EC01D06C33C0DF70F8
:1013A000D06A30C0DC2FCC27C16FD06A2BC0C1E01F
:1013B000D0E002C0CC0FDD1F2A95E2F720E2829F29
:1013C000C0011124C82BD92BDA681CC0DC2FCC2714
:1013D000C46FD06A17C0DC2FCC27C06FD06A12C090
:1013E0008C2F8F700E949A0A94E0D695C7959A9593
:1013F000E1F7CF70D0E0DC2FCC27D069C82B02C03A
:10140000C0E0D0E0CE01DF91CF9108958238910500
:1014100069F1B0F48133910509F46DC048F4893263
:10142000910509F463C08A32910509F469C00895F1
:101430008533910509F455C089339105B9F00895B4
:10144000833E910569F138F4803E9105B1F0823E0A
:10145000910509F10895863E9105A9F1873E910510
:10146000B9F1843E910509F064C023C02091D302F4
:1014700020FD4FC021FD4DC008958091D30280FD15
:1014800044C08091D40280FF44C08091D30284FD87
:1014900042C083EE4DC08091D30282FF38C0F5CFA9
:1014A0008091D30282FD33C08091D40280FD31C08F
:1014B000ECCF8091D40281FF32C08091D30284FDB1
:1014C0002AC087EE35C08091D30283FF26C0F5CFB6
:1014D0008091D30283FD21C08091D40281FD1FC081
:1014E000ECCF8091D30285FD1CC01DC08091D3023A
:1014F00085FD19C016C08091D30286FD16C017C0A5
:101500008091D30286FD13C010C089E311C082EE22
:101510000FC080EE0DC080E00BC086EE09C084EEE7
:1015200007C089E205C085E303C08AE201C081E308
:1015300090E008959091D30292FF0DC0282F28715A
:10154000283019F4877F846006C0282F2471243046
:1015500011F48B7F886093FF0DC0282F28712831EC
:1015600019F4877E846106C0282F2471243111F478
:101570008B7E88612091D40220FF0DC0382F3871F6
:10158000383019F4877F816006C0382F31713130CF
:1015900011F48E7F886021FF0DC0282F287128311B
:1015A00019F4877E816106C0282F2171213111F441
:1015B0008E7E886194FD877E08958091E20180FF90
:1015C0000BC06091040185E0689FB00111247595FE
:1015D0006795759567952BC081FF09C060910401DF
:1015E00085E0689FB00111247595679520C082FF42
:1015F00007C06091040185E0689FB001112417C005
:101600009091E1019923D1F060910301961788F739
:101610002091040185E0289F90011124929FA00150
:10162000939F500D112470E0CA010E940327603877
:10163000710540F46115710519F406C065E070E0AC
:10164000862F08958FE7089581E008958091E20143
:1016500080FF08C06091010170E0759567957595F0
:10166000679521C081FF06C06091010170E075950A
:10167000679519C082FF04C06091010170E010C03D
:101680009091E001992399F0609100019617A0F7DD
:1016900080910101899FC001112470E00E940327FD
:1016A0006038710540F46115710519F406C061E0F8
:1016B00070E0862F08958FE7089581E008958D3EAC
:1016C00021F40E94DD0A819504C08E3E29F40E9417
:1016D000DD0A8093E60108958F3E21F40E94DD0A21
:1016E000819504C0803F29F40E94DD0A8093E501C2
:1016F0000895893F19F40E94260B05C08A3F31F4F2
:101700000E94260B81958093E70108958B3F21F479
:101710000E94260B819504C08C3F29F40E94260B61
:101720008093E80108959FE0980F983078F421E0C5
:1017300030E0A90102C0440F551F9A95E2F7CA0193
:101740009091E401892B8093E40108958D3F21F469
:101750008091E20181600BC08E3F21F48091E20113
:10176000826005C08F3F29F48091E20184608093FC
:10177000E20108958D3E39F49091E60197FF35C05E
:101780001092E60159C08E3E29F49091E601191697
:10179000BCF32BC09091E5018F3E29F497FF25C043
:1017A0001092E50149C0803F19F41916CCF31DC011
:1017B0009091E701893F29F41916BCF41092E701D2
:1017C0003BC08A3F19F497FF10C0F8CF8B3F39F424
:1017D0009091E80197FF09C01092E8012DC08C3F5D
:1017E00021F49091E8011916BCF39FE0980F98300E
:1017F00080F421E030E0A90102C0440F551F9A9502
:10180000E2F7CA0180959091E40189238093E40175
:1018100013C08D3F21F48091E2018E7F0BC08E3F7B
:1018200021F48091E2018D7F05C08F3F29F48091E2
:10183000E2018B7F8093E2018091E501811106C076
:101840008091E601811102C01092E1018091E701CF
:10185000811106C08091E801811102C01092E0015F
:1018600008950E943D1E2091E501211104C02091A0
:10187000E601222321F09093DF018093DE01209185
:10188000E701211104C02091E801222321F0909367
:10189000DD018093DC0183EE91E00C948410EF92E3
:1018A000FF920F931F93CF93DF9300D000D000D00F
:1018B000CDB7DEB786E0E3EEF1E0DE0111960190F0
:1018C0000D928A95E1F7E090E501F090E601009134
:1018D000E7011091E8011092E5011092E6011092E3
:1018E000E7011092E801E11003C0FF2009F45DC098
:1018F0008091DE019091DF010E94551EAC01909114
:10190000E101992339F02091050130E024173507D2
:1019100058F04BC02091DB018AE0289F90011124F0
:101920002417350718F041C09F3F19F09F5F90932F
:10193000E101EE2061F00E94DD0A1E1414F09FEF19
:1019400001C091E0989F902D11249093E501FF2014
:1019500061F00E94DD0A1F1414F09FEF01C091E0B6
:10196000989F902D11249093E6013091E501332347
:10197000E1F02091E6012223C1F045EB3403C001E0
:101980001124992319F09093E50103C081E080931D
:10199000E50135EB2303C0011124992319F090933D
:1019A000E60103C081E08093E601011103C0112329
:1019B00009F45DC08091DC019091DD010E94551E0B
:1019C000AC019091E001992339F02091020130E0BF
:1019D0002417350758F04BC02091DA018AE0289F80
:1019E000900111242417350718F041C09F3F19F0CA
:1019F0009F5F9093E001002361F00E94260B101678
:101A000014F09FEF01C091E0989F902D11249093C6
:101A1000E701112361F00E94260B111614F09FEFCD
:101A200001C091E0989F902D11249093E80130918E
:101A3000E7013323E1F02091E8012223C1F045EBD7
:101A40003403C0011124992319F09093E70103C0D6
:101A500081E08093E70135EB2303C0011124992332
:101A600019F09093E80103C081E08093E801809130
:101A7000E50181110BC08091E601811107C08091C1
:101A8000E701811103C08091E80181110E94310CAE
:101A9000EB82FC820D831E8386E0FE013196A3EE6D
:101AA000B1E001900D928A95E1F726960FB6F89471
:101AB000DEBF0FBECDBFDF91CF911F910F91FF9081
:101AC000EF900895E3EEF1E086E0DF011D928A9544
:101AD000E9F71092E1011092E0011092E2010895FD
:101AE000CF93DF9397FF0DC0FB012281222349F0A2
:101AF000EC010E949B0DCE019F770E94F20D0E9487
:101B0000D40D81E0DF91CF9108958CE090E00E94A8
:101B1000312790E0A0E0B0E08093C9029093CA0220
:101B2000A093CB02B093CC0208956091C9028CE0DF
:101B300090E00C943F270E945D1086958170809301
:101B4000CE029091C902913029F4882319F089E3DB
:101B50000E9423130E948B1B8093CD020E949E1B28
:101B60008091C902813071F048F0823081F0843078
:101B7000A1F486EE0E94231388E10DC082EE0E943C
:101B8000FA110BC088E193E00E94960706C082EE2E
:101B90000E94FA1187E50E9423138FE39CE90197C5
:101BA000F1F700C0000008958091C902813039F03A
:101BB00078F0823069F0843089F488E20DC08CE2DC
:101BC0000E9423138091CE02882341F089E304C050
:101BD00082EE0E94A41202C00E9423138091CD02C3
:101BE0000C949B1B0F931F93CF93DF938C01CCE03E
:101BF000D0E0C8010C2E02C0969587950A94E2F7B2
:101C00008F700E94B5082497CC3F8FEFD80789F7D3
:101C1000DF91CF911F910F9108950F931F93CF9351
:101C2000DF93EC018B01FB018281882361F00E942C
:101C30008B1BCE01825E9C458530910520F48093FC
:101C4000C9020E94950DB801CE01DF91CF911F917D
:101C50000F910C94700D0F931F93CF93DF93C42FAC
:101C6000D22FFC0182818823C9F04093EB010E94AE
:101C70003D1E9093EA018093E90180E28C0F883049
:101C800008F057C0C77081E001C0880FCA95EAF715
:101C9000DF91CF911F910F910C942C138091EB0148
:101CA000481330C08091E9019091EA010E94551ECD
:101CB000883C910538F510E21D0FCD17B9F080E290
:101CC0008C0F883040F4C77081E001C0880FCA953E
:101CD000EAF70E943313183028F581E09D2F9770A2
:101CE00001C0880F9A95EAF70E942C13802F0E945A
:101CF00023131830F0F4D77081E001C0880FDA9513
:101D0000EAF70AC080E28C0F883098F4C77081E04F
:101D100001C0880FCA95EAF7DF91CF911F910F910B
:101D20000C943313802FDF91CF911F910F910C945E
:101D30002313DF91CF911F910F9108950F939C0171
:101D4000CB01243F4CE5340731F188F4293DFCE513
:101D50003F07D9F02A3D4CE5340779F1283D3C4551
:101D6000A9F506E221EE41EE68ED7CE52BC0263FA9
:101D7000FCE53F07E1F0A8F0273F3C4539F507E2D5
:101D800025EE46EE67EF7CE51DC007E225EE45EE49
:101D900069ED7CE517C006E221EE40EE64EF7CE5DC
:101DA00011C007E225EE44EE65EF7CE50BC006E2CC
:101DB00021EE42EE66EF7CE505C008E221E045EE4B
:101DC0006AED7CE50E942B0E80E008C0FC01828158
:101DD000882319F01092EB0101C081E00F91089562
:101DE000CF93DF93EC01FB018281882309F41FC1AB
:101DF000C230FCE5DF0708F41BC1C6319CE5D907FA
:101E000038F09E012B5F3C452930310508F010C1A8
:101E10000E945E1C9093D4028093D302C031ECE503
:101E2000DE0709F4C3C008F041C0C8308CE5D8070C
:101E300009F49AC0F0F4C430ECE5DE0709F487C079
:101E400068F4C2308CE5D80709F477C0C330DC45AC
:101E500009F0E3C08091D302826076C0C630ECE521
:101E6000DE0709F46EC008F07BC08091D302886061
:101E70006BC0CC308CE5D80709F485C068F4CA3053
:101E8000ECE5DE0709F474C008F079C00E94BF15C4
:101E90008091D302806858C0CE308CE5D80709F411
:101EA00076C008F07FC08091D3028BC0CC3FECE5B8
:101EB000DE0709F44FC018F5C3318CE5D80709F4E3
:101EC0007DC078F4C131ECE5DE0709F473C0C2319E
:101ED000DC4509F0A2C00E94BF158091D3028F7724
:101EE00033C0C5318CE5D80709F472C008F486C048
:101EF000CB3FDC4509F091C08091D4023EC0C115B2
:101F0000FDE5DF0709F45FC058F4CE3F9CE5D90733
:101F100009F444C008F43FC08091D40282602DC00F
:101F2000C230FDE5DF0709F475C008F45DC0C330B9
:101F3000DD4509F072C080E06EC08091D3028160FF
:101F400003C08091D30280618093D30266C08091E8
:101F5000D30211C08091D40282608093D4025DC00C
:101F60008091D3028062F0CF8091D3028064ECCF65
:101F70008091D30288608460E7CF8160EECF80914A
:101F8000D3028E7FE1CF8091D3028D7FDDCF809110
:101F9000D302877FD9CF8091D40218C08091D40218
:101FA0008D7FDBCF8091D3028F7ECECF8091D30205
:101FB0008F7DCACF8091D3028F7BC6CF8091D30211
:101FC000877F8B7FC1CF8091D4028D7F8E7FC5CFDD
:101FD0008091D30282FB222720F991E0922790FB87
:101FE00082F990FB83F9B0CF8091D402982F90951D
:101FF00091708E7F892B90FB81F9AFCF0E94BF1526
:102000008091D30287FB222720F991E0922790FB51
:1020100087F99ACF81E00E94F41C8091D3029091BD
:10202000D4020E946F1C0E94BF1580E001C081E0B5
:10203000DF91CF910895CF93DF9386319C4541F591
:10204000EB010E948B1B982F8A8120910601309111
:102050000701882379F09A7A81E009F480E080937F
:10206000EC01911102C069E201C065E3C9010E945F
:102070008F1D0AC08091EC01811102C069E201C08C
:1020800065E3C9010E949A1D0E94DC1B80E001C02B
:1020900081E0DF91CF9108959093F2018093F10157
:1020A0000895E091F101F091F201309721F0019053
:1020B000F081E02D099480E00895E091F101F09124
:1020C000F201309711F480E008950190F081E02D45
:1020D00009950895E091F101F091F201309799F09E
:1020E00020911201222359F02091D30227FF07C02B
:1020F000DC012C9111962C93119725E02C930280F2
:10210000F381E02D09940895E091F101F091F2013D
:10211000309739F022E0DC012C930480F581E02D2A
:10212000099408952091EF013091F00128173907A3
:1021300071F09093F0018093EF01E091F101F09143
:10214000F201309721F00680F781E02D099408957F
:102150002091ED013091EE012817390771F090932D
:10216000EE018093ED01E091F101F091F2013097E1
:1021700021F00084F185E02D099408950E94491E04
:102180006093040270930502809306029093070205
:102190006093000270930102809302029093030205
:1021A000089585B7806885BF85B7806885BF089525
:1021B00081E008950C94D81008950C94DC100C94D0
:1021C000DC100C94DF100C94DC100C94E3100C94D5
:1021D000DC100E94D1108FE39CE10E949B1E0E94A4
:1021E000E7100C94E5100E94341E0E94E5040E9442
:1021F000EC1EE3EDF2E08081806880838091D30261
:102200009091D4020E946F1C0C94E1106F927F9207
:102210008F929F92AF92BF92CF92DF92EF92FF92F6
:102220000F931F93CF93DF93CDB7DEB72A970FB6E7
:10223000F894DEBF0FBECDBF0E94DD100E94DC10FF
:102240000E94540581110E94BE1034EF832E31E0AC
:10225000932E00E010E0C02E802F0E9409065C0142
:10226000F401619071904F01682679266114710420
:10227000B1F40F5F1F4F0630110569F78FEF8983A7
:102280008A831B820E943D1E8160782F9D838C83F0
:1022900049815A816B818D810E94C0113AC0809121
:1022A000A50281FD0E941206D12CEE24E394F12CAC
:1022B000C3018E219F21892B29F10E94DA108823E6
:1022C000A9F0DE82CF82AE20BF2081E0AB2809F4E6
:1022D00080E088870E943D1E8160782F9A878987D9
:1022E0004E815F8168858A850E94C011000F111F91
:1022F000F801EC50FE4F80819181E826F926F182A9
:10230000E08207C0D394EE0CFF1CFEE0DF12D0CFBA
:10231000B0CF0E944F0C0E9451109091F301891789
:10232000D1F00E9451108093F3012A960FB6F894D1
:10233000DEBF0FBECDBFDF91CF911F910F91FF90F8
:10234000EF90DF90CF90BF90AF909F908F907F9055
:102350006F900C94C6082A960FB6F894DEBF0FBE95
:10236000CDBFDF91CF911F910F91FF90EF90DF9044
:10237000CF90BF90AF909F908F907F906F90089577
:10238000DF92EF92FF920F931F93CF93DF93CDB71E
:10239000DEB72B970FB6F894DEBF0FBECDBFF42E7D
:1023A000052F162FE72ED82E61110E94AE1BFE01BD
:1023B000319686E0DF011D928A95E9F77E2D4F2D3B
:1023C000502F612F8D2D9E810E9478182B960FB66D
:1023D000F894DEBF0FBECDBFDF91CF911F910F915B
:1023E000FF90EF90DF900895FC01808191810E9421
:1023F0004C1B0895CF93882309F4A4C0C82F8238BA
:10240000C1F40E94511081FD9DC069E380910601D5
:10241000909107010E948F1D0E94DC1B2FEF81EE1F
:1024200094E0215080409040E1F700C0000069E353
:1024300019C0833801F50E94511080FD83C063E507
:1024400080910601909107010E948F1D0E94DC1B64
:102450002FEF81EE94E0215080409040E1F700C0E2
:10246000000063E580910601909107010E949A1D8A
:10247000CF910C94DC1B8438C1F40E94511082FD72
:1024800061C067E480910601909107010E948F1D51
:102490000E94DC1B2FEF81EE94E0215080409040A1
:1024A000E1F700C0000067E4DDCF8CEF8C0F813ACC
:1024B000D0F46C2F80910601909107010E940F1DAE
:1024C000882349F06C2F80910601909107010E94AA
:1024D0009A1D0E94DC1B6C2F8091060190910701D0
:1024E0000E948F1DC5CF80E28C0F883048F4C770E2
:1024F00081E001C0880FCA95EAF70E948E1BB8CF11
:10250000EBE5EC0FE33040F4F0E0EE58FE4F808155
:1025100090E0CF910C949210E8E5EC0FE73150F485
:10252000F0E0EE0FFF1FEC5BFE4F80819181CF91B9
:102530000C94A810CD3E30F08C2F0E945F0BCF91F1
:102540000C94310CCF910895882309F464C082382B
:1025500079F40E94511081FF5EC069E38091060109
:10256000909107010E948F1D0E94DC1B69E310C03F
:102570008338B1F40E94511080FF4DC063E5809113
:102580000601909107010E948F1D0E94DC1B63E5EC
:1025900080910601909107010E949A1D0C94DC1B0A
:1025A000843879F40E94511082FF35C067E480912D
:1025B0000601909107010E948F1D0E94DC1B67E4B9
:1025C000E7CF9CEF980F913A10F4682FE1CF90E29B
:1025D000980F983050F4877091E001C0990F8A9558
:1025E000EAF7892F0E94941BD9CF9BE5980F93306F
:1025F00020F480E090E00C94921098E5980F9731C9
:1026000020F480E090E00C94A8108D3E20F00E9411
:10261000BA0B0C94310C08951F93CF93DF93182FAE
:10262000EB010E94FA11209741F08FE99FE001979A
:10263000F1F700C000002197F6CF812FDF91CF91F5
:102640001F910C94A412893319F060E070E002C06D
:1026500060E570E00C940C13882321F00E948E1B1F
:102660000C94DC1B0895882321F00E94941B0C9489
:10267000DC1B0895CF92DF92EF92FF920F931F938E
:10268000CF93DF937C01062FC72FFC01D2811581E8
:1026900012951F700E94841B882399F0DD2389F016
:1026A0008C2F807F803421F080E2800F883048F0CA
:1026B00082E00E94261C0E94841B91E0D82ED9261D
:1026C00001C0D12CCC2EC2948FE0C8228C2D90E07A
:1026D000FC01EA5AFF4F0C9417278C2F807FCF7094
:1026E000882311F0C295C07FDD2399F0CC2309F433
:1026F00085C180E2800F883010F0011104C08C2F5A
:102700000E948E1B03C08C2F0E94A11B0E94DC1B09
:1027100075C1802F0E94A412CC2309F494C180E2D9
:10272000800F883010F0011104C08C2F0E94941B80
:1027300003C08C2F0E94A71B0E94DC1B84C18C2F1E
:10274000807FCF70803211F0C295C07F002319F0D6
:102750000130C9F024C0DD2371F0112341F01130A4
:1027600031F40E94C11B8C2B0E94C91B6CC10E94BA
:10277000C11B8C2B0EC0112319F0113009F463C159
:102780000E94D21B1EC0DD2339F0123008F05BC15D
:102790008C2F0E942C1357C1111155C112C0DD237B
:1027A00019F01123A9F32AC1112359F0093309F0B3
:1027B00036C1FFEF27EE83E0F15020408040E1F783
:1027C0002CC18C2F0E9433133EC18C2F8695869589
:1027D000837019F0813061F036C1DD2321F0802F44
:1027E0009C2F937002C080E090E00E94921033C151
:1027F000DD2321F0802F9C2F937002C080E090E0B9
:102800000E94A81028C1802FDD2319F00E945F0BC1
:1028100002C00E94BA0B0E94310C1DC18C2F837024
:1028200009F045C0D11113C1402F4295469547701C
:10283000440F440F602F6F70862F90E0A0E0B0E04F
:10284000042E04C0880F991FAA1FBB1F0A94D2F739
:1028500004FF10C00FE010E020E030E004C0000FE3
:10286000111F221F331F4A95D2F70095109520950E
:10287000309503C000E010E09801C695C695C3707E
:10288000BC01CD01602B712B822B932BC23049F000
:1028900058F4C13019F00E94C919D9C00E94B71963
:1028A000D6C00E94DB19D3C00E94B519D0C0DD2369
:1028B00019F08C2F817001C08695882309F4C7C058
:1028C000402F429546954770440F440F602F6F701C
:1028D000862F90E0A0E0B0E0042E04C0880F991F7E
:1028E000AA1FBB1F0A94D2F704FF10C00FE010E02C
:1028F00020E030E004C0000F111F221F331F4A9553
:10290000D2F7009510952095309503C000E010E0B7
:102910009801C695C695C370BC01CD01602B712B83
:10292000822B932BC23049F058F4C13019F00E9429
:102930008E1A8DC00E947C1A8AC00E94A01A87C07D
:102940000E94EF1984C0CF70DD2339F08C2F0E94D4
:10295000151A802F0E942C137AC0802F0E943313E7
:102960008C2F0E94361A73C0023FF9F028F4003F02
:1029700041F0013F99F03EC0033FF1F0043F31F1D7
:1029800039C0DD2339F011115EC08C2F8F710E9488
:102990005B1A59C0123008F056C0F7CFDD2339F06A
:1029A0008C2F8F710E94151A4EC0DD23C9F38C2F16
:1029B0008F710E94361A47C0DD2329F08C2F8F714A
:1029C0000E94001A40C00E94FB193DC0DD2349F05F
:1029D000CF718C2F0E94151A63E08C2F0E94111C5E
:1029E00032C081E00E94261C123068F182E00E9411
:1029F000261C29C0DD2331F0112391F2802F0E9483
:102A0000FA1121C0112399F2093349F49FEFE7EE3F
:102A1000F3E09150E040F040E1F700C00000802F6B
:102A20000E94A41210C04C2F4F70602FC7010E944B
:102A3000CF080E9426190FC04C2F4F70602FC7017E
:102A40000E94D20808C088EF8C0D843020F40E94C8
:102A500051100E94C608DD20C9F00E94801B80FD35
:102A600015C0F70112820E947A1B0E94151AC70135
:102A70000E9467150E947A1BDF91CF911F910F91E1
:102A8000FF90EF90DF90CF900C94361ADF91CF91AA
:102A90001F910F91FF90EF90DF90CF9008950F93CB
:102AA0001F93CF93DF93EC01688179818A810E9423
:102AB000571B8C010E94B21A0E94A319B801CE01C3
:102AC0000E943A13DF91CF911F910F910895CF93F8
:102AD000DF93EC01988189812B813C81232B31F09C
:102AE0008F3F31F481E09F3F19F403C081E001C0C2
:102AF00080E080FD19C0CE010E940C0881110CC03D
:102B00000E94841B882381F08A81882369F082E0F7
:102B1000DF91CF910C94261CCE010E944F15CE015F
:102B2000DF91CF910C94E507DF91CF910895882331
:102B300021F00E94A11B0C94DC1B0895882321F036
:102B40000E94A71B0C94DC1B089580E090E00E947B
:102B5000921080E090E00E94A8100E94AE1B0E949C
:102B6000BE1B0E94DC1B0E94620D0C94310C8091F4
:102B70000601909107010E94A51D0C94A5150E94C5
:102B80009E1B0C94B715E92FE295EF704E2F50E085
:102B9000FA013297EE30F105B0F4EA59FF4F0C9488
:102BA0001727803F91F018F4883E68F40EC0843FE8
:102BB00051F40BC0883E48F0813F29F406C093FBD6
:102BC000882780F9089580E0089581E008950E94A3
:102BD0004C1B0E94C3150895CF93DF9300D000D003
:102BE0001F92CDB7DEB70F900F900F900F900F9000
:102BF000DF91CF910895CF93DF9300D000D000D024
:102C0000CDB7DEB726960FB6F894DEBF0FBECDBFA8
:102C1000DF91CF9108951F93CF93DF93C091090265
:102C200016E080910A02C81799F0D0E01C9FF001CD
:102C30001D9FF00D1124E55FFD4F408151816281A0
:102C40007381848195810E94FB152196C770E9CF1D
:102C5000DF91CF911F91089540913B0250913C022A
:102C600060913D0270913E0280913F02909140023E
:102C70000C94FB150F931F93CF93DF938091400229
:102C800082958F7009F05DC080913D02882309F420
:102C900058C08091090210910A0260913B02709124
:102CA0003C02C0913E02D0913F0291E06F3F09F09B
:102CB00090E0292F06E0811709F443C0209721F006
:102CC0007F3F21F030E003C031E001C0322F90E0BF
:102CD00030FD34C0089FF001099FF00D1124DF0181
:102CE000A55FBD4F11963C911197371327C03C91BA
:102CF000361324C012963C91129731111FC01396BF
:102D00004D915C9114974C1B5D0B483C5105B0F400
:102D1000809140028F70806180934002E05FFD4FA0
:102D200080818F70806180838BE392E00E946715C1
:102D3000DF91CF911F910F910C940B160196877024
:102D4000BACFDF91CF911F910F9108959F92AF92CB
:102D5000BF92CF92DF92EF92FF920F931F93CF9388
:102D6000DF93CDB7DEB761970FB6F894DEBF0FBE25
:102D7000CDBF8C0185E0F801DE011D9601900D921A
:102D80008A95E1F7F80140815181E28090913B0200
:102D900060913C0220913E0230913F0221153105A5
:102DA00031F06F3F31F481E09F3F19F403C081E0BF
:102DB00001C080E0F82FF1709F2E80FD46C1F80120
:102DC000A380B4808BE3C82E82E0D82EF0903D0221
:102DD000F501E21BF30BFF2009F4DFC080914002F4
:102DE000E83CF10508F09BC0282F207F09F052C075
:102DF000561313C0491311C0FE2CE1100EC08F7082
:102E00008061809340020E942C16C6010E946715C3
:102E100080914002F801858358C1AB2831F05F3FB3
:102E200031F481E04F3F19F403C081E001C080E03C
:102E300080FD03C081E08E2502C080E090E0F82F85
:102E4000F170FF2E80FF1CC08091090220910A02C0
:102E500036E0821709F417C190E0389FF001399FDE
:102E6000F00D1124E55FFD4F6181561306C06081AE
:102E7000461303C06281E61203C001968770E9CF52
:102E8000FE2CEE2009F421C18091400281608093E4
:102E900040025AC0561306C0491304C0E11002C0D4
:102EA000F8019FC04D875E878D859E850E94E7153E
:102EB000882379F1EE2069F120914002822F8295DA
:102EC0008F7090E0029774F080913B0290913C02E9
:102ED00098878F831986BB86AA862C87CE01079692
:102EE0000E94671586E0F801ABE3B2E001900D9215
:102EF0008A95E1F70E943A160E942C160DC05617CB
:102F000029F14D875E878D859E850E94E715811189
:102F10002CC0C8010E946715FF24F394D6C0282F47
:102F2000207F69F77A2DB98AA88A6E2D89890E9437
:102F3000EC158BE392E00E94671586E0F601119292
:102F40008A95E9F70E942C16F12CBFC04913D9CFFE
:102F5000E110D7CFF8018583C8010E94671586E08C
:102F6000F60111928A95E9F7B0C0EE2091F2209116
:102F70004002822F82958F7090E002970CF4B2CFBE
:102F800080913B0290913C029A8389831B82BD828F
:102F9000AC822E83CE010196A3CFE83CF10508F068
:102FA00047C0FE2CEE2009F4B4CF561330C04913AD
:102FB0002EC02091400220FD21C0822F82958F706B
:102FC000482F50E041155105C9F0F80125834F30D5
:102FD000510541F08F5F982F9295907F822F8F70CF
:102FE000892B8583C8010E94671586E0F801ABE351
:102FF000B2E001900D928A95E1F742C086E0F801B7
:10300000ABE3B2E001900D928A95E1F75EC04D8787
:103010005E878D859E850E94E715811163CF809123
:103020004002816080934002C8010E9467154DC034
:103030007A2DB98AA88A6E2D89890E94EC1586E0BE
:10304000F60111928A95E9F71BC0EE2009F461CFD1
:103050004D875E878D859E850E94E715F82E882313
:1030600009F457CF86E0F801ABE3B2E001900D928E
:103070008A95E1F78BE392E00E94F4110E943A16E0
:103080000E942C1622C04D875E878D859E850E94EA
:103090004C1B292F22952F70223028F49F7039F075
:1030A000811105C00BC0243028F49F7049F4805E64
:1030B000883020F0C8010E9467159F2CF92C05C0AC
:1030C000F8019581907F99F7F9CF8F2D61960FB612
:1030D000F894DEBF0FBECDBFDF91CF911F910F914E
:1030E000FF90EF90DF90CF90BF90AF909F900895AA
:1030F0001F93CF93DF93CDB7DEB72C970FB6F8941D
:10310000DEBF0FBECDBF4F83588769877A878B8715
:103110009C87CE0107960E94A6168823D1F09F8136
:1031200088852A853B85232B31F08F3F31F481E060
:103130009F3F19F403C081E001C080E080FD47C0DB
:103140004F81588569857A858B859C850E94FB1502
:103150003EC086E0FE013796DE01119601900D9289
:103160008A95E1F7FF81E8856A857B8561157105A0
:1031700031F0EF3F31F481E0FF3F19F403C081E00B
:1031800001C080E080FD23C020910A0230E0C90127
:103190000196877099274091090250E0841795079E
:1031A000F1F1F983EA837D836C8396E0929FD001ED
:1031B000939FB00D1124A55FBD4FFE013196019084
:1031C0000D929A95E1F780930A020E940B1616E081
:1031D0008091090290910A02891771F1189FC0012C
:1031E0001124855F9D4F0E94A616882329F1E09146
:1031F00009021E9FF0011124E55FFD4F40815181BE
:1032000062817381848195810E94FB1580910902FE
:1032100090E001968770992780930902D9CF0E9488
:10322000BF1510920A0210920902EBE3F2E086E069
:10323000DF011D928A95E9F72C960FB6F894DEBF50
:103240000FBECDBFDF91CF911F910895EF92FF92F6
:103250000F931F93CF93DF938C01892B09F46CC0DC
:10326000F12CEE24E394E8012196F801849184374F
:1032700040F4843008F051C0813081F0823019F17F
:103280005BC0853709F444C0A8F19CE7980F9037DC
:1032900008F052C08F770E94A41241C00E5F1F4FEA
:1032A000FE01849190E2980F983050F48770FE2DC3
:1032B00001C0FF0F8A95EAF78F2F0E94B11B14C03F
:1032C0000E94FA112DC00E5F1F4FFE01849190E203
:1032D000980F983060F48770FE2D01C0FF0F8A951B
:1032E000EAF78F2F0E94B71B0E94DC1B19C00E94B7
:1032F000A41216C00E5F1F4FFE01C491CC2381F0B3
:103300008FE99FE00197F1F700C00000C150F6CFB0
:103310000E5F1F4FFE01F49003C00E94FA118E0150
:103320008F2D882309F49FCFEFE9FFE03197F1F764
:1033300000C000008150F5CFDF91CF911F910F9118
:10334000FF90EF900895089508950C94A4190C949B
:10335000A5190E94A71960937C0270937D02809347
:103360007E0290937F020C94A5150C94A9190F93DB
:103370001F9300917C0210917D0220917E0230917A
:103380007F02602B712B822B932B1F910F910C943A
:10339000A9190F931F9300917C0210917D02209137
:1033A0007E0230917F0260237123822393231F9139
:1033B0000F910C94A9190F931F9300917C02109107
:1033C0007D0220917E0230917F0260277127822743
:1033D00093271F910F910C94A9190C94A4190E9482
:1033E000ED19609378027093790280937A0290933A
:1033F0007B020C94A51560E070E0CB010C94EF19F2
:103400000F931F9341E050E060E070E08A019B0160
:1034100004C0000F111F221F331F8A95D2F7C90164
:10342000B8011F910F910C94EF190F931F9341E076
:1034300050E060E070E004C0440F551F661F771F26
:103440008A95D2F78091780290917902A0917A02C0
:10345000B0917B028A019B01082B192B2A2B3B2B55
:10346000C901B8011F910F910C94EF190F931F938D
:1034700041E050E060E070E004C0440F551F661F5B
:10348000771F8A95D2F740955095609570958091F9
:10349000780290917902A0917A02B0917B028A0120
:1034A0009B01082319232A233B23C901B8011F913B
:1034B0000F910C94EF190F931F9341E050E060E0DF
:1034C00070E004C0440F551F661F771F8A95D2F71E
:1034D0008091780290917902A0917A02B0917B025A
:1034E0008A019B01082719272A273B27C901B80110
:1034F0001F910F910C94EF190F931F930091780275
:103500001091790220917A0230917B02602B712B0D
:10351000822B932B1F910F910C94EF190F931F93F4
:10352000009178021091790220917A0230917B0209
:1035300060237123822393231F910F910C94EF1921
:103540000F931F93009178021091790220917A02D3
:1035500030917B0260277127822793271F910F915B
:103560000C94EF1908952EE0929F800D1124E82FFE
:10357000E695E695E695877051E001C0550F8A956E
:10358000EAF785E0E89FF0011124EF5BFD4F20E0B2
:1035900030E070E04081CB01022E02C09695879505
:1035A0000A94E2F78170819584278523842781938B
:1035B0002F5F3F4F2530310569F708952EE0929F28
:1035C000800D1124682F669566956695982F9770E3
:1035D00085E0689FB001112440E050E080E0FB01ED
:1035E000E40FF51FEF5BFD4F208130E0092E02C094
:1035F000369527950A94E2F721703327042E01C0EF
:10360000220F0A94EAF7822B4F5F5F4F4530510536
:1036100031F70895BF92CF92DF92EF92FF920F930E
:103620001F93CF93DF938C01C0907802D0907902E2
:10363000E0907A02F0907B0280917C0290917D0272
:10364000A0917E02B0917F02C82AD92AEA2AFB2AD9
:10365000CFE1D0E0D701C6010C2E04C0B695A795E6
:10366000979587950A94D2F780FD04C0219790F72B
:10367000B12C07C0BC2EB8018C2F0E94EE08019718
:10368000A9F38B2DDF91CF911F910F91FF90EF90B8
:10369000DF90CF90BF900895CF93DF93EC010E940D
:1036A0000A1BBE010E94EE08DF91CF9108951F937F
:1036B000CF93DF93EB0190910802992321F0CB0186
:1036C0000E944C1B13C0882349F0CB010E940A1BA7
:1036D000182F682FCE010E94B31A04C0CB010E949C
:1036E000DE1A182FBE01812F0E94EE08DF91CF91C4
:1036F0001F910895809180028595859585950895FF
:10370000809180028770089590918002977081E087
:1037100009F480E008958091A40208959091A40294
:10372000892B8093A402089580959091A402892307
:103730008093A40208958093A40208951092A40295
:1037400008959091A302892B8093A30208958095F8
:103750009091A30289238093A30208951092A3025B
:1037600008959091A202892B8093A20208958095DA
:103770009091A20289238093A20208951092A2023E
:10378000089580918102089508950C94C41B0C94AF
:10379000C51B90918102981721F0809381020C94AF
:1037A000C71B089580918102882329F0109281021D
:1037B00080E00C94C71B0895E0910601F091070189
:1037C0008091A4028083E0910601F091070190812D
:1037D0008091A302892B8083E0910601F09107017B
:1037E00090818091A202892B80838091810288231D
:1037F00081F0E0910601F09107019081892B80838F
:1038000080910601909107010E94F91C81110E948C
:10381000D21B80910601909107010C946A100C94C0
:10382000C41B98E0899F90011124262B20938002CD
:103830000E94151A809180028595859585950C9436
:103840000F1C1092800280E00C940F1C20918002CB
:103850008095822380938002982F977079F430E0CE
:10386000482F082E000C550B2417350739F0859585
:10387000859585950E94361A0C94211C089580E048
:10388000089580E090E00E94392721E08B3E9E4F12
:1038900009F020E0822F089582E090E00C94312717
:1038A000682F82E090E00C943F2783E090E00C9436
:1038B0003127682F83E090E00C943F27CF9384E07A
:1038C00090E00E943127C82F81E290E00E943127CA
:1038D0002C2F30E0A901582BCA01CF910895CF9326
:1038E000C92F682F84E090E00E943F276C2F81E26F
:1038F00090E0CF910C943F27AB01BC018FE090E0AA
:103900000C945127AB01BC0183E190E00C9451274A
:1039100060E070E0CB010C94821C60E070E0CB01B1
:103920000E947C1C0C94881C6BEE7EEF80E090E083
:103930000E945D2760E082E090E00E943F2760E007
:1039400083E090E00E943F2710927C0210927D025B
:1039500010927E0210927F0260E084E090E00E946C
:103960003F2760E081E290E00E943F2760E085E031
:1039700090E00E943F2760E086E090E00E943F27B1
:103980006FEF87E090E00E943F2740E050E0BA01EF
:1039900088E090E00E94512760E08DE090E00E9476
:1039A0003F2740E050E0BA0188E190E00E945127B3
:1039B00060E087E190E00E943F2740E050E0BA01DC
:1039C0008CE190E00E94512760E080E290E00E944C
:1039D0003F2740E050E0BA0188E190E00E94512783
:1039E0000C948D1C0C94941C682F8EE090E00C9429
:1039F0003F27FC01329680911201882331F080919B
:103A0000D30287FF02C09EE101C096E080E09150A2
:103A100028F021912223D9F38F5FF9CF08956623EF
:103A200051F1209112012223E9F02091D30227FFC6
:103A300019C0462F4695469546954E31E0F467707D
:103A400021E030E002C0220F331F6A95E2F7FC014B
:103A5000E40FF11D828190E02823392381E0232B9C
:103A600069F409C0FC01329608962191621729F089
:103A7000E817F907D1F780E0089581E008959C01E7
:103A8000FC0132969FEF80E04191461789F09F3FFD
:103A900019F4411101C0982F8F5F8630A9F79F3F1D
:103AA00039F0F901E90FF11D97FDFA956283089548
:103AB00008959C012A5F3F4FFC014281461301C0DB
:103AC0001282019682179307B9F70895262F26953B
:103AD000269526952E3168F4FC01E20FF11D6770E2
:103AE00021E030E001C0220F6A95EAF78281282B9D
:103AF00022830895262F2695269526952E3170F43B
:103B0000FC01E20FF11D677021E030E001C0220FDF
:103B10006A95EAF7209582812823228308952091CF
:103B20001201222329F02091D30227FD0C94661D57
:103B30000C943F1D20911201222329F02091D302E1
:103B400027FD0C947A1D0C94591D20911201FC0143
:103B50003296222331F08091D30287FF02C08EE19A
:103B600001C086E0DF011D928A95E9F70895089566
:103B70000C94B71DCF930E94FB040E9454050E9431
:103B8000B81DC0E08C2F0E940906892B29F4CF5F55
:103B9000C630C1F780E001C081E0CF9108950C9458
:103BA000B71D0C94CF1D8091D902843049F10E9439
:103BB000D11D80E00E94C6081092A60220E488E190
:103BC00090E00FB6F894A895809360000FBE209304
:103BD000600083B7817F846083BF83B7816083BFC8
:103BE0007894889583B78E7F83BF0FB6F894A89595
:103BF00080916000886180936000109260000FBE29
:103C000008950C94B71D0E94BF150E9451100E9488
:103C1000C6080C94011E1F920F920FB60F9211242A
:103C20008F939F93AF93BF938091A602811113C08E
:103C30008091CF029091D002A091D102B091D20296
:103C40004196A11DB11D8093CF029093D002A09305
:103C5000D102B093D202BF91AF919F918F910F90FB
:103C60000FBE0F901F90189582E084BD93E095BD24
:103C70009AEF97BD80936E0008952FB7F8948091C6
:103C8000CF029091D002A091D102B091D2022FBF69
:103C900008952FB7F8946091CF027091D00280916F
:103CA000D1029091D2022FBF08959C014FB7F89492
:103CB0008091CF029091D002A091D102B091D20216
:103CC0004FBF821B930B089578941F920F920FB6EB
:103CD0000F9211248F939F93AF93BF938091CF0244
:103CE0009091D002A091D102B091D2020196A11D73
:103CF000B11D8093CF029093D002A093D102B093D4
:103D0000D202BF91AF919F918F910F900FBE0F90F4
:103D10001F90189587E797E7909301088093000814
:103D20009AE088E10FB6F894A895809360000FBEE2
:103D300090936000FFCF9093770180937601089570
:103D4000AF92BF92CF92DF92EF92FF920F931F93A9
:103D5000CF93C0E0CC24C394D12CE82EF12C8C2F2F
:103D60000E9409065C0100E010E0C601002E02C0BE
:103D7000880F991F0A94E2F78A219B21892B31F43D
:103D80000F5F1F4F0E30110581F70AC0602F7C2F87
:103D900080E00E94D308E816F90691F781E004C09C
:103DA000CF5FC630E1F680E0CF911F910F91FF9079
:103DB000EF90DF90CF90BF90AF900895CF93C82F32
:103DC0008CE20E94A01E882321F08C2FCF910C94AE
:103DD000A01E80E0CF910895CF930E94411C8111D5
:103DE00002C00E94F21CC5E6C15049F00E94540571
:103DF0008FE39CE90197F1F700C00000F5CF89E25D
:103E00000E94DE1E81112AC18AE20E94DE1E8111FB
:103E10000E94F21C85E00E94DE1E81110E948A1E13
:103E20000E944C1C8093A50287E00E94DE1E88231E
:103E3000A9F18BE10E94DE1E882351F08091A5023A
:103E400081FB222720F991E0922790FB81F90EC097
:103E50008EE00E94DE1E882361F08091A50282FB25
:103E6000222720F991E0922790FB82F98093A50206
:103E700015C080E10E94DE1E9091A502882341F0CA
:103E800093FB222720F981E0822780FB93F904C06D
:103E9000892F809580FB90F99093A5028091A502CF
:103EA0000E94501C0E945E1C9093D4028093D30207
:103EB00080EE0E94DE1E882341F08091D302982F6D
:103EC000909590FB80F98093D30289E30E94DE1ED7
:103ED000882359F08091D30281FB222720F991E0B9
:103EE000922790FB81F98093D30282EE0E94DE1E1E
:103EF000882359F08091D30282FB222720F991E098
:103F0000922790FB82F98093D30286EE0E94DE1EF8
:103F1000882359F08091D30283FB222720F991E076
:103F2000922790FB83F98093D30283EE0E94DE1EDA
:103F3000882359F08091D30284FB222720F991E055
:103F4000922790FB84F98093D30285E30E94DE1EC2
:103F5000882359F08091D30285FB222720F991E034
:103F6000922790FB85F98093D30281E30E94DE1EA5
:103F7000882359F08091D30286FB222720F991E013
:103F8000922790FB86F98093D30281E10E94DE1E86
:103F9000882359F08091D30287FB222720F991E0F2
:103FA000922790FB87F98093D3028091D30290915E
:103FB000D4020E946F1C87E20E94DE1EC82F8EE191
:103FC0000E94DE1E8111C2608FE10E94DE1E8111FF
:103FD000C46080E20E94DE1E8111C86081E20E94FE
:103FE000DE1E8111C06182E20E94DE1E8111C0626C
:103FF00083E20E94DE1E8111C06484E20E94DE1E04
:10400000882311F0C06802C0CC2329F08C2F0E94B5
:10401000591C6C2F03C00E94551C682F70E080E073
:1040200090E00E94B51960917802709179028091B8
:104030007A0290917B020E94ED198FE00E94DE1EB1
:10404000882319F081E00E94F41C85E10E94DE1EA5
:10405000882321F080E0CF910C94F41CCF91089537
:104060008091C7020895CF93DF9300D01F92CDB700
:10407000DEB79091D902943019F589837B836A83E6
:1040800082E08093E9008FEF9091E800815095FDE8
:1040900006C095ED9A95F1F700008111F5CF80915A
:1040A000E80085FF0DC040E050E063E070E0CE0125
:1040B00001960E9465228091E8008E778093E80047
:1040C0000F900F900F90DF91CF910895BC0184E085
:1040D0000C943320BC0183E00C94332022E0209325
:1040E000E9002FEF3091E800215035FD06C035ED95
:1040F0003A95F1F700002111F5CF2091E80025FF56
:104100000BC040E050E066E070E00E9465228091C4
:10411000E8008E778093E8000895CF93DF93209195
:104120001201222339F02091D30227FF03C060E25D
:1041300022E002C068E021E02093E9002FEF3091F7
:10414000E800215035FD06C035ED3A95F1F7000045
:104150002111F5CF2091E80025FF1DC0EC018091D1
:104160001201811105C040E050E068E070E003C03A
:1041700070E040E050E0CE010E9465228091E800AE
:104180008E778093E80080E2FE01A7EAB2E001901A
:104190000D928A95E1F7DF91CF9108958091D80231
:1041A000811109C00E94F6230E9453248091E200ED
:1041B00084608093E20008951092D80208950895D3
:1041C0000895089542E061EC81E00E946F2342E28D
:1041D00061EC82E00C946F238091DB02833009F460
:1041E00060C030F4813071F0823009F499C00895D4
:1041F0008A3009F485C08B3009F46BC0893009F02E
:10420000A7C020C08091DA02813A09F0A1C0809154
:10421000E800877F8093E8008091DE029091DF02C2
:10422000892B21F460E287EA92E003C060E080E03D
:1042300090E070E00E94B0228091E8008B7780933C
:10424000E80008958091DA02813209F081C08091FE
:10425000DE029091DF02029708F07AC08091E800B8
:10426000877F8093E8008091E80082FD05C08091FF
:10427000D9028111F8CF6CC02091F3008091F20037
:1042800090E0922B029729F48091F1008B7F81308E
:1042900021F48091F1008093C7028091E8008B7730
:1042A00053C08091DA02813A09F052C08091DE0257
:1042B0009091DF02892B09F04BC08091E800877F45
:1042C0008093E8008091E80080FFFCCF809112018C
:1042D00036C08091DA028132D9F58091DE02909168
:1042E000DF02892BA9F58091E800877F8093E800A1
:1042F0000E94A4238091DC02809312010C94BF15CC
:104300008091DA02813221F58091E800877F8093E5
:10431000E8000E94A4238091DD028093C8020895E2
:104320008091DA02813AA1F48091E800877F80933E
:10433000E8008091E80080FFFCCF8091C802809364
:10434000F1008091E8008E778093E8000C94A4231C
:10435000089584B7877F84BF0FB6F894A89580919D
:104360006000886180936000109260000FBE90E052
:1043700080E80FB6F89480936100909361000FBEBF
:104380000E94E9100E94F6230E9453248091E200CB
:1043900084608093E20078940E94E8260E94F310E3
:1043A00088E091E00E944C108091D9028530A9F4F8
:1043B0008091D902853079F40E94D31D8091D70273
:1043C0008823B1F30E94BA1D882391F30E944F22E3
:1043D0000E94BF15EDCF0E94031E0E9406110E948D
:1043E000DD100E94DC10E0CF0C94F621292F33273A
:1043F00023303105C9F060F42130310581F02230DD
:10440000310509F044C08BE390E028E137E043C078
:1044100021323105E1F02232310549F138C082E123
:1044200090E023E537E037C099278130910549F0C6
:1044300028F0029761F5ECEEF6E005C0E4E1F7E064
:1044400002C0E0E0F7E0849190E09F0124C0611594
:10445000710541F061307105D1F489E090E023E409
:1044600037E019C089E090E02AE237E014C0611516
:10447000710541F06130710551F486EB90E025E65D
:1044800037E009C080E490E02BE138E004C080E030
:1044900090E020E030E0FA0131832083089580E14C
:1044A00089BD82E189BD09B400FEFDCF8091D800AD
:1044B0008F7D8093D8008091E00082608093E0003F
:1044C0008091E00081FDFCCF0895CF92DF92EF92C2
:1044D000FF920F931F93CF93DF93EC018B017A012F
:1044E0000E94C323811133C0E114F10439F0F701B4
:1044F00080819181081B190BC80FD91FC12CD12CA9
:104500000115110519F18091E80085FD16C0809113
:10451000E8008E778093E800E114F10449F0F70198
:1045200080819181C80ED91ED182C08285E00FC0E2
:104530000E94C323882321F30AC089918093F1004C
:1045400001501109FFEFCF1ADF0ADACF80E0DF91C7
:10455000CF911F910F91FF90EF90DF90CF90089532
:104560002091E0023091E1022617370748F06115EB
:10457000710539F42091E8002E772093E80001C0FE
:10458000B901FC0120E06115710579F18091D90232
:104590008823F1F18530F1F18091E80083FD3CC082
:1045A0008091E80082FD2EC08091E80080FFEBCF73
:1045B0002091F3008091F20090E0922B611571053B
:1045C00051F08830910538F421912093F100615029
:1045D00071090196F3CF21E0089709F020E080915E
:1045E000E8008E778093E800CECF2111CFCF0AC0AC
:1045F0008091D902882361F0853061F08091E800D4
:1046000083FD0AC08091E80082FFF2CF80E0089528
:1046100082E0089583E0089581E008952091E0020A
:104620003091E1022617370748F06115710539F41A
:104630002091E8002E772093E80001C0B901FC0129
:1046400020E06115710591F18091D902882309F468
:1046500040C0853009F43FC08091E80083FD3DC033
:104660008091E80082FD2FC08091E80080FFE9CFB3
:104670002091F3008091F20090E0922B611571057A
:1046800059F08830910540F424912093F10031963F
:10469000615071090196F2CF21E0089709F020E0FE
:1046A0008091E8008E778093E800CBCF2111CCCFAA
:1046B0000AC08091D902882361F0853061F0809131
:1046C000E80083FD0AC08091E80082FFF2CF80E01D
:1046D000089582E0089583E0089581E00895982F79
:1046E000973068F59093E900981739F07091EC00D5
:1046F0002091ED005091F00003C0242F762F50E060
:1047000021FD02C09F5FECCF3091EB003E7F3093E4
:10471000EB003091ED003D7F3093ED003091EB00E8
:1047200031603093EB007093EC002093ED005093D8
:10473000F0002091EE0027FDE5CF80E008958F7016
:104740008093E90081E008958091DA0287FF11C02B
:104750008091E80082FD05C08091D9028111F8CFD7
:1047600011C08091E8008B770BC08091D90288231B
:1047700049F08091E80080FFF8CF8091E8008E77C3
:104780008093E80008952091E4003091E50095E6DB
:104790004091EC00842F817040FF23C08091E8009D
:1047A00080FD1DC08091D902882399F0853099F051
:1047B0008091EB0085FD11C04091E4005091E5002F
:1047C0002417350729F3915011F09A01E1CF84E0C5
:1047D000089582E0089583E0089581E0089580E0DF
:1047E00008954091E80042FFDDCF08950E946424BF
:1047F0000E946C24E0EEF0E0808181608083E8ED2F
:10480000F0E080818F77808319BCA7EDB0E08C91B8
:104810008E7F8C9380818F7E80831092D802089542
:104820000F931F93CF93DF930E9464240E946C2404
:10483000C8EDD0E088818F778883888180688883FD
:1048400088818F7D888319BC1092D9021092D5027D
:104850001092D7021092D60200EE10E0F80180818B
:104860008B7F808388818160888342E060E080E084
:104870000E946F23E1EEF0E080818E7F8083E2EE84
:10488000F0E0808181608083808188608083F8018E
:1048900080818E7F8083888180618883DF91CF9142
:1048A0001F910F910895E8EDF0E080818F7E808365
:1048B000E7EDF0E080818160808384E082BF81E069
:1048C0008093D8020C941024E8EDF0E080818E7F74
:1048D00080831092E20008951092DA001092E100B5
:1048E00008951F920F920FB60F9211242F933F93AA
:1048F0004F935F936F937F938F939F93AF93BF93E8
:10490000EF93FF938091E10082FF0BC08091E20062
:1049100082FF07C08091E1008B7F8093E1000E94BD
:10492000E7268091DA0080FF1FC08091D80080FFC9
:104930001BC08091DA008E7F8093DA008091D900CD
:1049400080FF0DC080E189BD82E189BD09B400FE10
:10495000FDCF81E08093D9020E94CE2005C019BC12
:104960001092D9020E94DC208091E10080FF19C0E2
:104970008091E20080FF15C08091E2008E7F8093DD
:10498000E2008091E20080618093E2008091D80093
:1049900080628093D80019BC85E08093D9020E9480
:1049A000E0208091E10084FF30C08091E20084FF2C
:1049B0002CC080E189BD82E189BD09B400FEFDCF34
:1049C0008091D8008F7D8093D8008091E1008F7E08
:1049D0008093E1008091E2008F7E8093E2008091DD
:1049E000E20081608093E2008091D502882311F07B
:1049F00084E007C08091E30087FD02C081E001C030
:104A000083E08093D9020E94E1208091E10083FF3E
:104A100029C08091E20083FF25C08091E100877F5B
:104A20008093E10082E08093D9021092D5028091B8
:104A3000E1008E7F8093E1008091E2008E7F809381
:104A4000E2008091E20080618093E20042E060E059
:104A500080E00E946F238091F00088608093F000D6
:104A60000E94DF20FF91EF91BF91AF919F918F91B5
:104A70007F916F915F914F913F912F910F900FBE5A
:104A80000F901F9018951F920F920FB60F9211243E
:104A90002F933F934F935F936F937F938F939F9346
:104AA000AF93BF93CF93DF93EF93FF93C091E90050
:104AB000CF708091EC00D82FD17080FDD0E810929B
:104AC000E9008091F000877F8093F00078940E9445
:104AD00087251092E9008091F00088608093F000B3
:104AE000CD2BCF70C093E900FF91EF91DF91CF9173
:104AF000BF91AF919F918F917F916F915F914F91F6
:104B00003F912F910F900FBE0F901F9018951F93FC
:104B1000CF93DF93CDB7DEB7AA970FB6F894DEBF79
:104B20000FBECDBFEAEDF2E08091F100819322E06B
:104B3000E23EF207C9F70E94EC208091E80083FF73
:104B40002EC18091DA029091DB02492F50E04A3069
:104B5000510508F024C1FA01EC58FF4F0C941727B7
:104B6000803821F0823809F01AC108C08091D6023D
:104B70009091D702992389F082600FC08091DE0264
:104B80008F70873008F00BC18093E9008091EB00B3
:104B900085FB882780F91092E9009091E800977FC3
:104BA0009093E8008093F1001092F100D1C0282F7B
:104BB0002D7F09F0F4C0882319F0823061F0EFC036
:104BC0008091DC02813009F0EAC0933009F080E086
:104BD0008093D7022EC08091DC0281112AC080917F
:104BE000DE028F702FEF280F263008F0D8C0809398
:104BF000E9002091EB0020FF1CC0933021F480914C
:104C0000EB00806214C09091EB0090619093EB00F8
:104C100021E030E0A90102C0440F551F8A95E2F758
:104C20004093EA001092EA008091EB008860809344
:104C3000EB001092E9008091E800877F8093E80004
:104C40000E94A423ACC08111AAC01091DC021F777E
:104C50008091E3008078812B8093E3008091E800CD
:104C6000877F8093E8000E94A4238091E80080FF62
:104C7000FCCF8091E30080688093E300111102C0B3
:104C800082E001C083E08093D90289C080588230DD
:104C900008F085C08091DC029091DD028C3D53E0EC
:104CA000950779F583E08A838AE289834FB7F89480
:104CB000DE01139620E03EE051E2E32FF0E0509356
:104CC0005700E49120FF03C0E295EF703F5FEF7063
:104CD0008E2F90E0EA3010F0C79601C0C0968D93F9
:104CE0009D932F5F243149F74FBF8091E800877F64
:104CF0008093E8006AE270E0CE0101960E94B02243
:104D000016C06091DE027091DF02AE014F5F5F4F0F
:104D10000E94F421BC01892B09F441C09091E80064
:104D2000977F9093E80089819A810E940E23809159
:104D3000E8008B778093E80032C0803881F580915D
:104D4000E800877F8093E8008091D5028093F1008E
:104D50008091E8008E7772CF811121C08091DC02B2
:104D60009091DD0299270297D4F48091E800877F23
:104D70008093E8008091DC028093D5020E94A423F6
:104D80008091D502811106C08091E30087FD02C0A9
:104D900081E001C084E08093D9020E94E2208091EA
:104DA000E80083FF0AC08091E800877F8093E800D5
:104DB0008091EB0080628093EB00AA960FB6F89486
:104DC000DEBF0FBECDBFDF91CF911F910895089533
:104DD000CF938091D9028823A1F0C091E900CF70D0
:104DE0009091EC00892F817090FD80E8C82B109283
:104DF000E9008091E80083FD0E948725CF70C09371
:104E0000E900CF91089597FB072E16F4009407D080
:104E100077FD09D00E941D2707FC05D03EF4909530
:104E200081959F4F0895709561957F4F0895EE0F7E
:104E3000FF1F0590F491E02D0994AA1BBB1B51E1C3
:104E400007C0AA1FBB1FA617B70710F0A61BB70BFA
:104E5000881F991F5A95A9F780959095BC01CD019F
:104E60000895F999FECF92BD81BDF89A992780B532
:104E70000895A8E1B0E042E050E00C946527262FA9
:104E8000F999FECF92BD81BDF89A019700B4021640
:104E900039F01FBA20BD0FB6F894FA9AF99A0FBEEE
:104EA00008950396272F0E9440270E943F27252F11
:104EB0000E944027242F0C9440270196272F0E9400
:104EC00040270C943F27DC01CB01FC01F999FECF70
:104ED00006C0F2BDE1BDF89A319600B40D92415082
:0A4EE0005040B8F70895F894FFCF92
:104EEA002808643C0714820230208D206E206A2034
:104EFA00662001E200E900EA00B500B600B700CD7D
:104F0A00008301CC008A0192019401210223022428
:104F1A00022502260227022A02B300B4006F00709B
:104F2A0000818283E200E900EA00B500B600B7001A
:104F3A00CD008301CC008A0192019401210223024F
:104F4A0024022502260227022A02B300B4006F00B7
:064F5A007000818283005B
:00000001FF
