:100000000C94DA030C9421040C9421040C94210424
:100010000C9421040C9421040C9421040C942104CC
:100020000C9421040C9421040C941D240C94EF24B2
:100030000C94B71D0C9421040C9421040C942104FD
:100040000C9421040C9421040C9421040C9421049C
:100050000C9421040C94101E0C9421040C94210483
:100060000C9421040C9421040C9421040C9421047C
:100070000C9421040C9421040C9421040C9421046C
:100080000C9421040C9421040C9421040C9421045C
:100090000C9421040C9421040C9421040C9421044C
:1000A0000C9421040C9421040C94210419131913A9
:1000B0004B134B139113AF13CF14CF14BA134F1428
:1000C00060146014BF14CF14CF14C8147D157D15AF
:1000D0008F158F1586158F158F158F157D157D152D
:1000E0008B158F158F158B155C2583257B26832516
:1000F0007B26CF25F2257B264926582600000000C6
:1001000000000000000000000000000000000000EF
:100110000000000000000000000014001A000800A9
:1001200015001700000000001C0018000C00120051
:1001300013000000000004681664076109620A00E9
:10014000000000000B000D620E610F6434680000B7
:1001500000001D001B000600190005000000000043
:100160001100100036003774380000000000000055
:1001700000000000294300000000000000004C4681
:100180000000000000000000000000002B422C4195
:100190000000000000000000000000002A44284584
:1001A000000000000000000000000000000000004F
:1001B000000000000000000000000000000000003F
:1001C0000000005C000000000000000000000000D3
:1001D00000007A007B007C007D0000000000E3004E
:1001E000E200E000E10000000000000050005100CB
:1001F00052004F003900000000000000E60000003F
:10020000000000000000000049004E004B004A00C2
:100210004D00000000000000000000000000000091
:100220000000000000004C00000000000000000082
:1002300000000000000000000000000000000000BE
:10024000000000002A00280000000000000000005C
:10025000000000000000000000000000000000009E
:1002600000000000000000000000005C0000000032
:10027000000000000000000000000000000000007E
:10028000000000000000E300E200E000E1000000E8
:1002900000000000EF00EE00ED00F00000000000A4
:1002A00000000000E6000000000000000000000068
:1002B000FB00FA00F900FC00000000000000000054
:1002C0000000000000000000000000000000F2003C
:1002D000000000000000000000000000000000001E
:1002E000000000000000000000000000F300F1002A
:1002F00000000000000000000000000000000000FE
:1003000000000000000000000000000000000000ED
:100310000000005C00000000000000000000000081
:100320000000000000000000000000000000E300EA
:10033000E200E000E100000000000000BC00AA00B4
:10034000A900BB000000000000000000E600000063
:10035000000000000000000000000000000000009D
:10036000000000000000000000000000000000008D
:10037000000000000000000000000000000000007D
:10038000000000000000000000000000000000006D
:1003900000000000AE00AD00000000000000000002
:1003A000000000000000000000000000000000004D
:1003B000000000000000000000002F005F0060004F
:1003C000610030000000000000000000000000009C
:1003D000005C0000000033005C005D005E002E0049
:1003E000000000000000E100E000E200E300000087
:1003F0000000350059005A005B0087000000000033
:10040000000000000000E600000000000000000006
:1004100000000000000000000000000000000000DC
:100420000000000000000000000000005600620014
:1004300000000000000000000000000000000000BC
:1004400000000000000000000000000000000000AC
:10045000000000000000000000000000000000009C
:1004600000002F02240225022000300200000000BC
:100470000000000000000000005C000000003302EB
:100480002102220223025700000000000000E100C8
:10049000E000E200E3000000000035021E021F023F
:1004A0002002310200000000000000000000E60011
:1004B0000000000000000000000000002602000014
:1004C000000000000000000000000000000000002C
:1004D000000000002D0227020000000000000000C4
:1004E000000000000000000000000000000000000C
:1004F00000000000000000000000000000000000FC
:100500000000000000000000000045004000410025
:100510004200000000000000000000000000000099
:10052000005C0000000044003D003E003F00000071
:10053000000000000000E100E000E200E300000035
:10054000000043003A003B003C00000000000000B7
:10055000000000000000E6000000000000000000B5
:100560000000000065000000000000000000000026
:100570000000000000000000000000002B002C0024
:10058000000000000000000000000000000000006B
:100590000000000000000000000000002A2B2800DE
:1005A0000000000000000000000000000000002922
:1005B000000000002C1E3420212224342627252E62
:1005C000362D3738271E1F2021222324252633339A
:1005D000362E37381F0405060708090A0B0C0D0EC6
:1005E0000F101112131415161718191A1B1C1D2F92
:1005F0003130232D350405060708090A0B0C0D0EB2
:100600000F101112131415161718191A1B1C1D2F71
:100610003130354C000000000000000000000000F8
:1006200000000000000000000000000000000000CA
:1006300000000000000000007E0F00D4FFFFFFC795
:100640000000007812034500720067006F0044004C
:100650006F006E006500000012034B002E00540076
:100660002E0045002E0043002E0000000403090464
:1006700009023B00020100A0FA0904000001030185
:100680000100092111010001224000070581030832
:10069000000A090401000103000000092111010002
:1006A0000122B6000705820320000A120110010092
:1006B00000000809122823010001020001050109B8
:1006C00002A10185020901A10005091901290815E6
:1006D00000250195087501810205010930093115D0
:1006E00081257F95027508810609381581257F953A
:1006F0000175088106050C0A38021581257F9501D0
:1007000075088106C0C005010980A1018503190192
:100710002AB700150126B700950175108100C005A4
:100720000C0901A101850419012AA002150126A0C6
:1007300002950175108100C005010906A10185051A
:10074000050719E029E715002501950875018102C3
:100750000507190029EF1500250195F075018102A3
:100760000508190129059505750191029501750383
:100770009101C005010906A101050719E029E71546
:100780000025019508750181029501750881010513
:1007900007190029FF150026FF009506750881003E
:1007A0000508190129059505750191029501750343
:1007B0009101C00011241FBECFEFDAE0DEBFCDBF34
:1007C00004B603FE27C08091E2029091E302A0915B
:1007D000E402B091E5028730904BA740B04BD1F4D2
:1007E0001092E2021092E3021092E4021092E502EB
:1007F00014BE84B7877F84BF0FB6F894A895809104
:100800006000886180936000109260000FBEE0E09D
:10081000F8E3099511E0A0E0B1E0E2E4FEE402C0F3
:1008200005900D92A637B107D9F722E0A6E7B1E00F
:1008300001C01D92A23EB207E1F70E9455210C941F
:100840001F270C9400001092B9008AE08093B80032
:10085000089594EA9093BC009091BC0097FFFCCF60
:100860009091B900987F983021F0903111F081E09B
:1008700008958093BB0084E88093BC008091BC0005
:1008800087FFFCCF8091B900887F883111F08034D8
:1008900071F780E008950C94290484E98093BC00EA
:1008A0008091BC0084FDFCCF08958093BB0084E858
:1008B0008093BC008091BC0087FFFCCF9091B90071
:1008C000987F81E0983209F480E0089584E880936D
:1008D000BC008091BC0087FFFCCF8091BB000895D5
:1008E00080B38F7080BB81B38F7081BB84B1897FEF
:1008F00084B985B1897F85B90C94EE056E98769A96
:100900008AB183768AB98BB18C698BB93E98469A45
:1009100024982C9A0C94230608950C948C040C941F
:100920008C040E9470040E947E04ECECF1E088E7E5
:1009300091E011921192DC012EE01D922150E9F715
:100940000E9621E08C3C9207A1F70C949C070E9424
:1009500070040E947E04ECECF1E01182108213829C
:1009600012821582148217821682118610861386CF
:10097000128608952EE0829FC0011124FC01E858E0
:10098000FE4F20E030E040E050E061E070E0908118
:10099000992319F09150908309C0CB01022E02C017
:1009A000880F991F0A94E2F7482B592B2F5F3F4F6E
:1009B00031962E30310559F7CA010895CF932EE0B4
:1009C000629FB001112420E030E0A1E0B0E0C5E07A
:1009D000AD01022E02C0440F551F0A94E2F74823CE
:1009E0005923452B31F0FB01E20FF31FE858FE4F6E
:1009F000C0832F5F3F4F2E30310551F7CF910895BF
:100A00004F925F927F928F929F92AF92BF92CF92BE
:100A1000DF92EF92FF920F931F93CF93DF930E9489
:100A200009060CEC11E0C0E0D1E0C33099F028F4E5
:100A3000C13051F0C23059F004C0C43071F0C5303B
:100A400079F0849A8C980EC0859A8D980BC0869AFE
:100A50008E9808C0879A8F9805C0219A299802C05D
:100A6000229A2A988C2F0E94F20580EA8A95F1F743
:100A70008C2F0E94BA045C010E9454064B9904C05A
:100A800060E4E62EF12C02C0E12CF12C4A9903C05F
:100A9000A0E2B0E002C0A0E0B0E04C9904C050E198
:100AA000452E512C02C0412C512C369903C068E0D0
:100AB00070E002C060E070E029B1022E000C330B40
:100AC000209530952227330F221F3327220F331F03
:100AD000220F331F669903C042E050E002C040E09D
:100AE00050E073B0F801C080D1807294EFE07E22B4
:100AF0007D2670FA882480F8912C882999298E29DE
:100B00009F298A2B9B2BF201E82BF92B6E2B7F2B35
:100B1000262B372B422B532B4C255D25A422B522A7
:100B2000AC24BD246C2FC6018A259B250E94DE04BF
:100B3000F801A192B1928F010E947004CF5FC6307C
:100B400009F073CF0E94A60781E0DF91CF911F913A
:100B50000F91FF90EF90DF90CF90BF90AF909F905C
:100B60008F907F905F904F900895E82FF0E0EE0F08
:100B7000FF1FE453FE4F80819181089508958530D1
:100B800008F08F5F2091D80130E0A90102C055958F
:100B900047958A95E2F7CA01817008951F93CF9314
:100BA000DF93C091D901CC23A1F0D62F182F80E478
:100BB0000E942904C82F81110AC0812F0E94550468
:100BC000C82F811104C08D2F0E945504C82F0E9488
:100BD0004D048C2FDF91CF911F9108956FEF81E02D
:100BE0000C94CE058F5F61E070E001C0660F8A95BE
:100BF000EAF7609581E00C94CE056FEF82E00E94E9
:100C0000CE056FEF8CE00E94CE056FEF81E00C9473
:100C1000CE0580E40E94290481110CC00E944D047D
:100C20008091D90181110EC081E08093D9010E9489
:100C3000FD0506C08091D901813021F41092D901BF
:100C40000C946B1508950E9423040C9409060F93CD
:100C50001F93CF93DF93C091D901CC23D1F08B01A7
:100C6000D82F80E40E942904C82F811110C08D2F35
:100C70000E945504C82F81110AC081E40E944B04D0
:100C8000C82F811104C00E946604F80180830E946D
:100C90004D048C2FDF91CF911F910F91089568ED36
:100CA00071E082E10C9427068F929F92AF92BF92DF
:100CB000EF92FF920F931F93CF93DF930E944F0603
:100CC000C0E0D0E000E010E08DE0E82EF12C812CB7
:100CD000912C540183948C2F0E94BF05882371F0BE
:100CE000C7018C1B9D0BA501940104C0220F331F6B
:100CF000441F551F8A95D2F7022B132B2196CE3015
:100D0000D10549F7C801DF91CF911F910F91FF9055
:100D1000EF90BF90AF909F908F90089584B18866B8
:100D200084B985B1877985B9209A289A559A5D9AB0
:100D3000089525982D9826982E9823982B982098DA
:100D4000289A259A2D9A2FEF80E792E02150804033
:100D50009040E1F700C00000269A2E9A2FEF80E71E
:100D600092E0215080409040E1F700C00000239ABB
:100D70002B9A2FEF80E792E0215080409040E1F7DE
:100D800000C0000025982D982FEF80E792E02150B9
:100D900080409040E1F700C0000026982E982FEF89
:100DA00080E792E0215080409040E1F700C00000D1
:100DB00023982B9825982D9826982E9823982B9831
:100DC0002098289A08950E948E060E9499060C94F5
:100DD0008D049C013A9521153F4138F5DC01AA2785
:100DE000B270AC01442754709C012227387094FFE4
:100DF0000FC090FF02C080E101C080E0AB2B09F082
:100E00008062452B09F08064232B69F080680BC059
:100E1000892F8170AB2B09F08260452B09F084602B
:100E2000232B09F08860FB0109940895CF93DF9389
:100E3000EC01805E9109089710F0209719F468ED95
:100E400072E102C063E475E1CE010E94E9068C2FD5
:100E5000DF91CF910C94A611CF93DF93EC010E9408
:100E60005012CE01805E9109089710F0209719F476
:100E70006FED72E102C06AE475E1CE01DF91CF91BE
:100E80000C94E906CF93DF93EC010E941607CE0184
:100E9000DF91CF910C942C0781E0089581E00895B3
:100EA0000C944E0708950C9452071F93CF93DF9331
:100EB00000D000D01F92CDB7DEB749835A836B8331
:100EC0003091080289819A81311114C0662359F04A
:100ED000222349F00E94B61A182F682F89819A811F
:100EE0000E945F1A03C00E948A1A182F69817A81B2
:100EF000812F04C00E94B61A69817A810F900F90E9
:100F00000F900F900F90DF91CF911F910C947F085D
:100F1000FC01262F408151816281738184810C9470
:100F20005507CF93DF93EC0160E00E948807BE0174
:100F3000DF91CF910C9453070E94ED1B811102C0E9
:100F40000E949E1C0E94310D0C94E3060C948F04A9
:100F500008950E946B150E94A8072FEF84E39CE080
:100F6000215080409040E1F700C000000C94361EF4
:100F70000F931F93CF93DF93EC0161E00E948807EA
:100F80008C01BE010E945007882379F1BE01C8017F
:100F90000E94B90D882349F1BE01C8010E944A0E82
:100FA000882319F1BE01C8010E949C0E8823E9F034
:100FB000BE01C8010E94C70F8823B9F08A81882327
:100FC00069F001158CE5180731F00F3D1C4531F42F
:100FD0000E949E1C0AC00E94A90707C0CE01DF9193
:100FE000CF911F910F910C944C0780E0DF91CF912E
:100FF0001F910F910895DF92EF92FF920F931F932D
:10100000CF93DF93E82FF0E0EC56FA4FD490282FDF
:1010100026952695269530E0F901EC5CF94F049170
:10102000877010E0082E02C0159507950A94E2F724
:1010300001701127F901EC5DF94FE490F12C082EB5
:1010400002C0F594E7940A94E2F791E0E922FF24C4
:10105000F901EC5EF94FC491D0E002C0D595C79577
:101060008A95E2F7C170DD270115110519F081EEAF
:101070000E94A611E114F10419F086EE0E94A61157
:101080008D2D0E94CF12EF2819F086EE0E9450128B
:10109000012B19F081EE0E945012CD2B51F08CE201
:1010A000DF91CF911F910F91FF90EF90DF900C9403
:1010B000CF12DF91CF911F910F91FF90EF90DF90B2
:1010C0000895982F9F709A50963010F0805D01C05F
:1010D000895A0C94FB0708950C946B0881E00895DD
:1010E0000C946E08CF93C82F0E946C088C2F0E941E
:1010F0007008CF91089580E090E00895089524E568
:10110000829FC0011124FC012EE0729FE00DF11DB1
:101110001124E60FF11DEE0FFF1FE450FF4F8591E4
:1011200094910895880F991FFC01EC5BF94F85910C
:1011300094910895CF93DF930E947F080E94B20993
:10114000EC018115904508F041C0C11580E4D80735
:1011500008F0D1C0C83ED10510F5C03ED10508F059
:10116000FDC0C83AD10578F4C53AD10508F0A2C04F
:10117000C130D10509F4F2C008F4EEC0C430D10585
:1011800008F0ECC0E9C0CF3BD10508F49BC0C03CDF
:10119000D10508F4E1C0CE01805C91099EC0C11563
:1011A00090E2D90758F4C11521E0D20708F0D6C063
:1011B000CD3ED10508F4D0C0D065D0C0C11580E3C4
:1011C000D80708F08EC0CE019F7087C0C11595E585
:1011D000D90708F043C0C11524E5D20708F0A2C022
:1011E000C11582E5D80708F5C11591E5D90708F0C2
:1011F00085C0CE0174E0969587957A95E1F7837066
:101200009C2F937021E030E002C0220F331F9A958B
:10121000E2F73C68382BCF70C695C69580E2C89F30
:10122000E0011124C22BD32B99C09E0123703327D8
:101230008C2F86958695C115D34508F064C0C1E012
:10124000D0E002C0CC0FDD1F2A95E2F720E2829F9A
:10125000C0011124C82BD92BDC6880C0C11529E539
:10126000D207A0F4C11588E5D80708F060C0C11501
:1012700096E5D90708F070C08C2F0E94460A8F713E
:10128000C82FD0E0DC2FCC27D06268C0C1152AE57A
:10129000D20708F451C0CE0190568115904208F053
:1012A0005BC08D2F8F710E94460ADD27D0628F713F
:1012B000D82B54C0C55AD0E0CF5BDE4FC881D0E0F8
:1012C000D0644CC0C85AD0E0CC0FDD1FCD5EDE4FDD
:1012D0000990D881C02DD46441C00E949208EC01CD
:1012E0003DC0CE019927D3FF03C0EC01D86C36C0B6
:1012F000EC01D06C33C0DF70D06A30C0DC2FCC275B
:10130000C16FD06A2BC0C1E0D0E002C0CC0FDD1F9E
:101310002A95E2F720E2829FC0011124C82BD92B25
:10132000DA681CC0DC2FCC27C46FD06A17C0DC2F52
:10133000CC27C06FD06A12C08C2F8F700E94460AD3
:1013400094E0D695C7959A95E1F7CF70D0E0DC2F61
:10135000CC27D069C82B02C0C0E0D0E0CE01DF911D
:10136000CF9108958238910569F1B0F481339105E8
:1013700009F46DC048F48932910509F463C08A32DA
:10138000910509F469C008958533910509F455C0A4
:1013900089339105B9F00895833E910569F138F4D8
:1013A000803E9105B1F0823E910509F10895863E97
:1013B0009105A9F1873E9105B9F1843E910509F0A7
:1013C00064C023C02091D30220FD4FC021FD4DC039
:1013D00008958091D30280FD44C08091D40280FFA3
:1013E00044C08091D30284FD42C083EE4DC0809101
:1013F000D30282FF38C0F5CF8091D30282FD33C083
:101400008091D40280FD31C0ECCF8091D40281FF65
:1014100032C08091D30284FD2AC087EE35C080910E
:10142000D30283FF26C0F5CF8091D30283FD21C074
:101430008091D40281FD1FC0ECCF8091D30285FD45
:101440001CC01DC08091D30285FD19C016C08091BB
:10145000D30286FD16C017C08091D30286FD13C04B
:1014600010C089E311C082EE0FC080EE0DC080E095
:101470000BC086EE09C084EE07C089E205C085E393
:1014800003C08AE201C081E390E008959091D30205
:1014900092FF0DC0282F2871283019F4877F8460AF
:1014A00006C0282F2471243011F48B7F886093FFAD
:1014B0000DC0282F2871283119F4877E846106C059
:1014C000282F2471243111F48B7E88612091D4025D
:1014D00020FF0DC0382F3871383019F4877F8160B4
:1014E00006C0382F3171313011F48E7F886021FFB2
:1014F0000DC0282F2871283119F4877E816106C01C
:10150000282F2171213111F48E7E886194FD877E10
:1015100008958091E20180FF0BC06091040185E095
:10152000689FB001112475956795759567952BC0D7
:1015300081FF09C06091040185E0689FB00111241A
:101540007595679520C082FF07C06091040185E012
:10155000689FB001112417C09091E1019923D1F047
:1015600060910301961788F72091040185E0289F78
:1015700090011124929FA001939F500D112470E0BF
:10158000CA010E94AF266038710540F461157105EB
:1015900019F406C065E070E0862F08958FE708957E
:1015A00081E008958091E20180FF08C0609101010F
:1015B00070E0759567957595679521C081FF06C0A8
:1015C0006091010170E07595679519C082FF04C0B4
:1015D0006091010170E010C09091E001992399F0B1
:1015E000609100019617A0F780910101899FC001C9
:1015F000112470E00E94AF266038710540F4611537
:10160000710519F406C061E070E0862F08958FE738
:10161000089581E008958D3E21F40E94890A819504
:1016200004C08E3E29F40E94890A8093E601089541
:101630008F3E21F40E94890A819504C0803F29F4DD
:101640000E94890A8093E5010895893F19F40E9458
:10165000D20A05C08A3F31F40E94D20A8195809354
:10166000E70108958B3F21F40E94D20A819504C0BE
:101670008C3F29F40E94D20A8093E80108959FE0EC
:10168000980F983078F421E030E0A90102C0440FAF
:10169000551F9A95E2F7CA019091E401892B809336
:1016A000E40108958D3F21F48091E20181600BC037
:1016B0008E3F21F48091E201826005C08F3F29F4C2
:1016C0008091E20184608093E20108958D3E39F4B7
:1016D0009091E60197FF35C01092E60159C08E3E09
:1016E00029F49091E6011916BCF32BC09091E50105
:1016F0008F3E29F497FF25C01092E50149C0803F35
:1017000019F41916CCF31DC09091E701893F29F413
:101710001916BCF41092E7013BC08A3F19F497FFF9
:1017200010C0F8CF8B3F39F49091E80197FF09C0C2
:101730001092E8012DC08C3F21F49091E801191618
:10174000BCF39FE0980F983080F421E030E0A901CD
:1017500002C0440F551F9A95E2F7CA0180959091F7
:10176000E40189238093E40113C08D3F21F480912B
:10177000E2018E7F0BC08E3F21F48091E2018D7FCC
:1017800005C08F3F29F48091E2018B7F8093E201B5
:101790008091E501811106C08091E601811102C0AE
:1017A0001092E1018091E701811106C08091E8016A
:1017B000811102C01092E00108950E94E91D20915C
:1017C000E501211104C02091E601222321F090932C
:1017D000DF018093DE012091E701211104C02091F7
:1017E000E801222321F09093DD018093DC0183EE58
:1017F00091E00C943010EF92FF920F931F93CF93D0
:10180000DF9300D000D000D0CDB7DEB786E0E3EEA6
:10181000F1E0DE01119601900D928A95E1F7E090DA
:10182000E501F090E6010091E7011091E8011092C6
:10183000E5011092E6011092E7011092E801E11033
:1018400003C0FF2009F45DC08091DE019091DF01AB
:101850000E94011EAC019091E101992339F0209181
:10186000050130E02417350758F04BC02091DB010B
:101870008AE0289F900111242417350718F041C0F1
:101880009F3F19F09F5F9093E101EE2061F00E946D
:10189000890A1E1414F09FEF01C091E0989F902DCB
:1018A00011249093E501FF2061F00E94890A1F1422
:1018B00014F09FEF01C091E0989F902D1124909318
:1018C000E6013091E5013323E1F02091E601222386
:1018D000C1F045EB3403C0011124992319F0909312
:1018E000E50103C081E08093E50135EB2303C001EE
:1018F0001124992319F09093E60103C081E08093AD
:10190000E601011103C0112309F45DC08091DC01DF
:101910009091DD010E94011EAC019091E00199239C
:1019200039F02091020130E02417350758F04BC000
:101930002091DA018AE0289F9001112424173507AD
:1019400018F041C09F3F19F09F5F9093E001002382
:1019500061F00E94D20A101614F09FEF01C091E0CE
:10196000989F902D11249093E701112361F00E941C
:10197000D20A111614F09FEF01C091E0989F902DAC
:1019800011249093E8013091E7013323E1F0209195
:10199000E8012223C1F045EB3403C001112499234F
:1019A00019F09093E70103C081E08093E70135EBE4
:1019B0002303C0011124992319F09093E80103C077
:1019C00081E08093E8018091E50181110BC0809155
:1019D000E601811107C08091E701811103C0809168
:1019E000E80181110E94DD0BEB82FC820D831E83D6
:1019F00086E0FE013196A3EEB1E001900D928A954A
:101A0000E1F726960FB6F894DEBF0FBECDBFDF918B
:101A1000CF911F910F91FF90EF900895E3EEF1E0C9
:101A200086E0DF011D928A95E9F71092E10110929C
:101A3000E0011092E2010895CF93DF9397FF0DC06C
:101A4000FB012281222349F0EC010E94470DCE01C7
:101A50009F770E949E0D0E94800D81E0DF91CF91C3
:101A600008958CE090E00E94DD2690E0A0E0B0E0D8
:101A70008093C9029093CA02A093CB02B093CC0288
:101A800008956091C9028CE090E00C94EB260E94CE
:101A90000910869581708093CE029091C902913091
:101AA00029F4882319F089E30E94CF120E94371B82
:101AB0008093CD020E944A1B8091C902813071F04F
:101AC00048F0823081F08430A1F486EE0E94CF127B
:101AD00088E10DC082EE0E94A6110BC088E193E060
:101AE0000E94420706C082EE0E94A61187E50E946E
:101AF000CF128FE39CE90197F1F700C00000089531
:101B00008091C902813039F078F0823069F08430F8
:101B100089F488E20DC08CE20E94CF128091CE023F
:101B2000882341F089E304C082EE0E94501202C073
:101B30000E94CF128091CD020C94471B0F931F93EC
:101B4000CF93DF938C01CCE0D0E0C8010C2E02C013
:101B5000969587950A94E2F78F700E946108249702
:101B6000CC3F8FEFD80789F7DF91CF911F910F916D
:101B700008950F931F93CF93DF93EC018B01FB012B
:101B80008281882361F00E94371BCE01825E9C45D2
:101B90008530910520F48093C9020E94410DB8015F
:101BA000CE01DF91CF911F910F910C941C0D0F93DB
:101BB0001F93CF93DF93C42FD22FFC018281882300
:101BC000C9F04093EB010E94E91D9093EA018093D4
:101BD000E90180E28C0F883008F057C0C77081E0BF
:101BE00001C0880FCA95EAF7DF91CF911F910F913D
:101BF0000C94D8128091EB01481330C08091E90118
:101C00009091EA010E94011E883C910538F510E28E
:101C10001D0FCD17B9F080E28C0F883040F4C770EB
:101C200081E001C0880FCA95EAF70E94DF121830E0
:101C300028F581E09D2F977001C0880F9A95EAF7EB
:101C40000E94D812802F0E94CF121830F0F4D77063
:101C500081E001C0880FDA95EAF70AC080E28C0FB4
:101C6000883098F4C77081E001C0880FCA95EAF700
:101C7000DF91CF911F910F910C94DF12802FDF9194
:101C8000CF911F910F910C94CF12DF91CF911F91A3
:101C90000F9108950F939C01CB01243F4CE534072D
:101CA00031F188F4293DFCE53F07D9F02A3D4CE5A8
:101CB000340779F1283D3C45A9F506E221EE41EED5
:101CC00068ED7CE52BC0263FFCE53F07E1F0A8F07E
:101CD000273F3C4539F507E225EE46EE67EF7CE508
:101CE0001DC007E225EE45EE69ED7CE517C006E272
:101CF00021EE40EE64EF7CE511C007E225EE44EEF4
:101D000065EF7CE50BC006E221EE42EE66EF7CE576
:101D100005C008E221E045EE6AED7CE50E94D70DA2
:101D200080E008C0FC018281882319F01092EB0149
:101D300001C081E00F910895CF93DF93EC01FB0187
:101D40008281882309F41FC1C230FCE5DF0708F453
:101D50001BC1C6319CE5D90738F09E012B5F3C457D
:101D60002930310508F010C10E940A1C9093D4025A
:101D70008093D302C031ECE5DE0709F4C3C008F05C
:101D800041C0C8308CE5D80709F49AC0F0F4C430DB
:101D9000ECE5DE0709F487C068F4C2308CE5D807AB
:101DA00009F477C0C330DC4509F0E3C08091D30269
:101DB000826076C0C630ECE5DE0709F46EC008F03C
:101DC0007BC08091D30288606BC0CC308CE5D80793
:101DD00009F485C068F4CA30ECE5DE0709F474C084
:101DE00008F079C00E946B158091D302806858C0BA
:101DF000CE308CE5D80709F476C008F07FC080911A
:101E0000D3028BC0CC3FECE5DE0709F44FC018F5D8
:101E1000C3318CE5D80709F47DC078F4C131ECE515
:101E2000DE0709F473C0C231DC4509F0A2C00E948C
:101E30006B158091D3028F7733C0C5318CE5D807FD
:101E400009F472C008F486C0CB3FDC4509F091C0AC
:101E50008091D4023EC0C115FDE5DF0709F45FC0E3
:101E600058F4CE3F9CE5D90709F444C008F43FC0BC
:101E70008091D40282602DC0C230FDE5DF0709F4F5
:101E800075C008F45DC0C330DD4509F072C080E064
:101E90006EC08091D302816003C08091D3028061C3
:101EA0008093D30266C08091D30211C08091D40286
:101EB00082608093D4025DC08091D3028062F0CFB3
:101EC0008091D3028064ECCF8091D30288608460DB
:101ED000E7CF8160EECF8091D3028E7FE1CF8091FA
:101EE000D3028D7FDDCF8091D302877FD9CF8091C0
:101EF000D40218C08091D4028D7FDBCF8091D302B1
:101F00008F7ECECF8091D3028F7DCACF8091D302B6
:101F10008F7BC6CF8091D302877F8B7FC1CF80918B
:101F2000D4028D7F8E7FC5CF8091D30282FB222782
:101F300020F991E0922790FB82F990FB83F9B0CFD2
:101F40008091D402982F909591708E7F892B90FB71
:101F500081F9AFCF0E946B158091D30287FB2227B6
:101F600020F991E0922790FB87F99ACF81E00E94B7
:101F7000A01C8091D3029091D4020E941B1C0E944D
:101F80006B1580E001C081E0DF91CF910895CF9380
:101F9000DF9386319C4541F5EB010E94371B982F5A
:101FA0008A812091060130910701882379F09A7A7D
:101FB00081E009F480E08093EC01911102C069E2B4
:101FC00001C065E3C9010E943B1D0AC08091EC017C
:101FD000811102C069E201C065E3C9010E94461D8A
:101FE0000E94881B80E001C081E0DF91CF910895BD
:101FF0009093F2018093F1010895E091F101F09145
:10200000F201309721F00190F081E02D099480E0F9
:102010000895E091F101F091F201309711F480E020
:1020200008950190F081E02D09950895E091F10166
:10203000F091F201309799F020911201222359F08A
:102040002091D30227FF07C0DC012C9111962C931D
:10205000119725E02C930280F381E02D09940895D7
:10206000E091F101F091F201309739F022E0DC01CA
:102070002C930480F581E02D099408952091EF01BF
:102080003091F0012817390771F09093F001809397
:10209000EF01E091F101F091F201309721F006801B
:1020A000F781E02D099408952091ED013091EE0122
:1020B0002817390771F09093EE018093ED01E091BC
:1020C000F101F091F201309721F00084F185E02DCB
:1020D000099408950E94F51D60930402709305020F
:1020E00080930602909307026093000270930102AE
:1020F0008093020290930302089585B7806885BF9C
:1021000085B7806885BF089581E008950C94841098
:1021100008950C9488100C9488100C948B100C94D7
:1021200088100C948F100C9488100E947D108BEEF8
:102130009BE10E94471E0E9493100C9491100E94F4
:10214000E01D0E9491040E94981EE3EDF2E0808160
:10215000806880838091D3029091D4020E941B1CDE
:102160000C948D106F927F928F929F92AF92BF923C
:10217000CF92DF92EF92FF920F931F93CF93DF9353
:10218000CDB7DEB72A970FB6F894DEBF0FBECDBF2E
:102190000E9489100E9488100E94000581110E94EF
:1021A0006A1034EF832E31E0932E00E010E0C02E51
:1021B000802F0E94B5055C01F401619071904F0180
:1021C0006826792661147104B1F40F5F1F4F063041
:1021D000110569F78FEF89838A831B820E94E91DAD
:1021E0008160782F9D838C8349815A816B818D8199
:1021F0000E946C113AC08091A50281FD0E94BE052B
:10220000D12CEE24E394F12CC3018E219F21892B44
:1022100029F10E9486108823A9F0DE82CF82AE20A9
:10222000BF2081E0AB2809F480E088870E94E91D87
:102230008160782F9A8789874E815F8168858A853A
:102240000E946C11000F111FF801EC50FE4F8081AD
:102250009181E826F926F182E08207C0D394EE0C42
:10226000FF1CFEE0DF12D0CFB0CF0E94FB0B0E941C
:10227000FD0F9091F3018917D1F00E94FD0F80931B
:10228000F3012A960FB6F894DEBF0FBECDBFDF91E3
:10229000CF911F910F91FF90EF90DF90CF90BF9063
:1022A000AF909F908F907F906F900C9472082A96B9
:1022B0000FB6F894DEBF0FBECDBFDF91CF911F9157
:1022C0000F91FF90EF90DF90CF90BF90AF909F90D5
:1022D0008F907F906F900895DF92EF92FF920F930F
:1022E0001F93CF93DF93CDB7DEB72B970FB6F8943C
:1022F000DEBF0FBECDBFF42E052F162FE72ED82E32
:1023000061110E945A1BFE01319686E0DF011D9289
:102310008A95E9F77E2D4F2D502F612F8D2D9E81AF
:102320000E9424182B960FB6F894DEBF0FBECDBFC7
:10233000DF91CF911F910F91FF90EF90DF90089563
:10234000FC01808191810E94F81A0895CF9388231F
:1023500009F4A4C0C82F8238C1F40E94FD0F81FD8A
:102360009DC069E380910601909107010E943B1D89
:102370000E94881B2FEF81EE94E021508040904016
:10238000E1F700C0000069E319C0833801F50E943D
:10239000FD0F80FD83C063E58091060190910701E8
:1023A0000E943B1D0E94881B2FEF81EE94E021507C
:1023B00080409040E1F700C0000063E58091060195
:1023C000909107010E94461DCF910C94881B843880
:1023D000C1F40E94FD0F82FD61C067E48091060197
:1023E000909107010E943B1D0E94881B2FEF81EEF8
:1023F00094E0215080409040E1F700C0000067E485
:10240000DDCF8CEF8C0F813AD0F46C2F80910601D8
:10241000909107010E94BB1C882349F06C2F80918A
:102420000601909107010E94461D0E94881B6C2F97
:1024300080910601909107010E943B1DC5CF80E26B
:102440008C0F883048F4C77081E001C0880FCA95AE
:10245000EAF70E943A1BB8CFEBE5EC0FE33040F40B
:10246000F0E0EE58FE4F808190E0CF910C943E104A
:10247000E8E5EC0FE73150F4F0E0EE0FFF1FEC5B06
:10248000FE4F80819181CF910C945410CD3E30F05D
:102490008C2F0E940B0BCF910C94DD0BCF910895E4
:1024A000882309F464C0823879F40E94FD0F81FF0B
:1024B0005EC069E380910601909107010E943B1D77
:1024C0000E94881B69E310C08338B1F40E94FD0F9D
:1024D00080FF4DC063E580910601909107010E9445
:1024E0003B1D0E94881B63E58091060190910701C6
:1024F0000E94461D0C94881B843879F40E94FD0FBD
:1025000082FF35C067E480910601909107010E9427
:102510003B1D0E94881B67E4E7CF9CEF980F913A20
:1025200010F4682FE1CF90E2980F983050F4877044
:1025300091E001C0990F8A95EAF7892F0E94401B0C
:10254000D9CF9BE5980F933020F480E090E00C9475
:102550003E1098E5980F973120F480E090E00C94BD
:1025600054108D3E20F00E94660B0C94DD0B0895F4
:102570001F93CF93DF93182FEB010E94A611209792
:1025800041F08FE99FE00197F1F700C0000021972B
:10259000F6CF812FDF91CF911F910C945012893388
:1025A00019F060E070E002C060E570E00C94B812D1
:1025B000882321F00E943A1B0C94881B08958823DD
:1025C00021F00E94401B0C94881B0895CF92DF924B
:1025D000EF92FF920F931F93CF93DF937C01062F0F
:1025E000C72FFC01D281158112951F700E94301BEC
:1025F000882399F0DD2389F08C2F807F803421F0AF
:1026000080E2800F883048F082E00E94D21B0E9456
:10261000301B91E0D82ED92601C0D12CCC2EC294EB
:102620008FE0C8228C2D90E0FC01EA5AFF4F0C94F9
:10263000C3268C2F807FCF70882311F0C295C07F76
:10264000DD2399F0CC2309F485C180E2800F883026
:1026500010F0011104C08C2F0E943A1B03C08C2F74
:102660000E944D1B0E94881B75C1802F0E94501232
:10267000CC2309F494C180E2800F883010F001115E
:1026800004C08C2F0E94401B03C08C2F0E94531B40
:102690000E94881B84C18C2F807FCF70803211F004
:1026A000C295C07F002319F00130C9F024C0DD239A
:1026B00071F0112341F0113031F40E946D1B8C2B0D
:1026C0000E94751B6CC10E946D1B8C2B0EC01123C8
:1026D00019F0113009F463C10E947E1B1EC0DD2376
:1026E00039F0123008F05BC18C2F0E94D81257C10C
:1026F000111155C112C0DD2319F01123A9F32AC10C
:10270000112359F0093309F036C1FFEF27EE83E0BA
:10271000F15020408040E1F72CC18C2F0E94DF1245
:102720003EC18C2F86958695837019F0813061F0BB
:1027300036C1DD2321F0802F9C2F937002C080E0F2
:1027400090E00E943E1033C1DD2321F0802F9C2FAA
:10275000937002C080E090E00E94541028C1802F46
:10276000DD2319F00E940B0B02C00E94660B0E9431
:10277000DD0B1DC18C2F837009F045C0D11113C131
:10278000402F429546954770440F440F602F6F705D
:10279000862F90E0A0E0B0E0042E04C0880F991FBF
:1027A000AA1FBB1F0A94D2F704FF10C00FE010E06D
:1027B00020E030E004C0000F111F221F331F4A9594
:1027C000D2F7009510952095309503C000E010E0F9
:1027D0009801C695C695C370BC01CD01602B712BC5
:1027E000822B932BC23049F058F4C13019F00E946B
:1027F0007519D9C00E946319D6C00E948719D3C029
:102800000E946119D0C0DD2319F08C2F817001C0A6
:102810008695882309F4C7C0402F42954695477096
:10282000440F440F602F6F70862F90E0A0E0B0E05F
:10283000042E04C0880F991FAA1FBB1F0A94D2F749
:1028400004FF10C00FE010E020E030E004C0000FF3
:10285000111F221F331F4A95D2F70095109520951E
:10286000309503C000E010E09801C695C695C3708E
:10287000BC01CD01602B712B822B932BC23049F010
:1028800058F4C13019F00E943A1A8DC00E94281ADB
:102890008AC00E944C1A87C00E949B1984C0CF70C6
:1028A000DD2339F08C2F0E94C119802F0E94D8128D
:1028B0007AC0802F0E94DF128C2F0E94E21973C011
:1028C000023FF9F028F4003F41F0013F99F03EC08B
:1028D000033FF1F0043F31F139C0DD2339F011112C
:1028E0005EC08C2F8F710E94071A59C0123008F0F9
:1028F00056C0F7CFDD2339F08C2F8F710E94C1199C
:102900004EC0DD23C9F38C2F8F710E94E21947C09E
:10291000DD2329F08C2F8F710E94AC1940C00E94DA
:10292000A7193DC0DD2349F0CF718C2F0E94C1193A
:1029300063E08C2F0E94BD1B32C081E00E94D21B3D
:10294000123068F182E00E94D21B29C0DD2331F0F1
:10295000112391F2802F0E94A61121C0112399F218
:10296000093349F49FEFE7EEF3E09150E040F04087
:10297000E1F700C00000802F0E94501210C04C2FC1
:102980004F70602FC7010E947B080E94D2180FC0B1
:102990004C2F4F70602FC7010E947E0808C088EF3F
:1029A0008C0D843020F40E94FD0F0E947208DD20FF
:1029B000C9F00E942C1B80FD15C0F70112820E94F5
:1029C000261B0E94C119C7010E9413150E94261BD5
:1029D000DF91CF911F910F91FF90EF90DF90CF90FB
:1029E0000C94E219DF91CF911F910F91FF90EF901E
:1029F000DF90CF9008950F931F93CF93DF93EC0157
:102A0000688179818A810E94031B8C010E945E1A71
:102A10000E944F19B801CE010E94E612DF91CF91BA
:102A20001F910F910895CF93DF93EC0198818981D5
:102A30002B813C81232B31F08F3F31F481E09F3F8C
:102A400019F403C081E001C080E080FD19C0CE010F
:102A50000E94B80781110CC00E94301B882381F0AE
:102A60008A81882369F082E0DF91CF910C94D21B98
:102A7000CE010E94FB14CE01DF91CF910C949107FF
:102A8000DF91CF910895882321F00E944D1B0C9473
:102A9000881B0895882321F00E94531B0C94881BE7
:102AA000089580E090E00E943E1080E090E00E9457
:102AB00054100E945A1B0E946A1B0E94881B0E948D
:102AC0000E0D0C94DD0B80910601909107010E9480
:102AD000511D0C9451150E944A1B0C946315E92F4B
:102AE000E295EF704E2F50E0FA013297EE30F1058B
:102AF000B0F4EA59FF4F0C94C326803F91F018F4CC
:102B0000883E68F40EC0843F51F40BC0883E48F004
:102B1000813F29F406C093FB882780F9089580E05F
:102B2000089581E008950E94F81A0E946F15089593
:102B3000CF93DF9300D000D01F92CDB7DEB70F90B8
:102B40000F900F900F900F90DF91CF910895CF933A
:102B5000DF9300D000D000D0CDB7DEB726960FB6F9
:102B6000F894DEBF0FBECDBFDF91CF9108951F93C4
:102B7000CF93DF93C091090216E080910A02C81733
:102B800099F0D0E01C9FF0011D9FF00D1124E55F2E
:102B9000FD4F4081518162817381848195810E94C2
:102BA000A7152196C770E9CFDF91CF911F910895A6
:102BB00040913B0250913C0260913D0270913E0277
:102BC00080913F02909140020C94A7150F931F93A0
:102BD000CF93DF938091400282958F7009F05DC0A2
:102BE00080913D02882309F458C080910902109118
:102BF0000A0260913B0270913C02C0913E02D0916A
:102C00003F0291E06F3F09F090E0292F06E0811725
:102C100009F443C0209721F07F3F21F030E003C04A
:102C200031E001C0322F90E030FD34C0089FF00148
:102C3000099FF00D1124DF01A55FBD4F11963C9156
:102C40001197371327C03C91361324C012963C913C
:102C5000129731111FC013964D915C9114974C1B24
:102C60005D0B483C5105B0F4809140028F7080614B
:102C700080934002E05FFD4F80818F708061808390
:102C80008BE392E00E941315DF91CF911F910F917A
:102C90000C94B71501968770BACFDF91CF911F9131
:102CA0000F9108959F92AF92BF92CF92DF92EF92D1
:102CB000FF920F931F93CF93DF93CDB7DEB761974A
:102CC0000FB6F894DEBF0FBECDBF8C0185E0F801D2
:102CD000DE011D9601900D928A95E1F7F801408181
:102CE0005181E28090913B0260913C0220913E0232
:102CF00030913F022115310531F06F3F31F481E011
:102D00009F3F19F403C081E001C080E0F82FF1700B
:102D10009F2E80FD46C1F801A380B4808BE3C82EAE
:102D200082E0D82EF0903D02F501E21BF30BFF206C
:102D300009F4DFC080914002E83CF10508F09BC037
:102D4000282F207F09F052C0561313C0491311C019
:102D5000FE2CE1100EC08F708061809340020E94B3
:102D6000D815C6010E94131580914002F801858391
:102D700058C1AB2831F05F3F31F481E04F3F19F487
:102D800003C081E001C080E080FD03C081E08E25AA
:102D900002C080E090E0F82FF170FF2E80FF1CC091
:102DA0008091090220910A0236E0821709F417C1C6
:102DB00090E0389FF001399FF00D1124E55FFD4F41
:102DC0006181561306C06081461303C06281E6121A
:102DD00003C001968770E9CFFE2CEE2009F421C1D3
:102DE000809140028160809340025AC0561306C011
:102DF000491304C0E11002C0F8019FC04D875E87EF
:102E00008D859E850E949315882379F1EE2069F1C6
:102E100020914002822F82958F7090E0029774F08B
:102E200080913B0290913C0298878F831986BB86E4
:102E3000AA862C87CE0107960E94131586E0F8011A
:102E4000ABE3B2E001900D928A95E1F70E94E6159E
:102E50000E94D8150DC0561729F14D875E878D85C4
:102E60009E850E94931581112CC0C8010E941315E4
:102E7000FF24F394D6C0282F207F69F77A2DB98AD2
:102E8000A88A6E2D89890E9498158BE392E00E9492
:102E9000131586E0F60111928A95E9F70E94D8157C
:102EA000F12CBFC04913D9CFE110D7CFF8018583EA
:102EB000C8010E94131586E0F60111928A95E9F780
:102EC000B0C0EE2091F220914002822F82958F7047
:102ED00090E002970CF4B2CF80913B0290913C02BB
:102EE0009A8389831B82BD82AC822E83CE01019698
:102EF000A3CFE83CF10508F047C0FE2CEE2009F412
:102F0000B4CF561330C049132EC02091400220FD8B
:102F100021C0822F82958F70482F50E041155105B6
:102F2000C9F0F80125834F30510541F08F5F982F8C
:102F30009295907F822F8F70892B8583C8010E9484
:102F4000131586E0F801ABE3B2E001900D928A958B
:102F5000E1F742C086E0F801ABE3B2E001900D92E8
:102F60008A95E1F75EC04D875E878D859E850E94BC
:102F70009315811163CF809140028160809340025C
:102F8000C8010E9413154DC07A2DB98AA88A6E2DEA
:102F900089890E94981586E0F60111928A95E9F7D1
:102FA0001BC0EE2009F461CF4D875E878D859E851D
:102FB0000E949315F82E882309F457CF86E0F80174
:102FC000ABE3B2E001900D928A95E1F78BE392E0DA
:102FD0000E94A0110E94E6150E94D81522C04D87BC
:102FE0005E878D859E850E94F81A292F22952F7065
:102FF000223028F49F7039F0811105C00BC02430B5
:1030000028F49F7049F4805E883020F0C8010E9447
:1030100013159F2CF92C05C0F8019581907F99F725
:10302000F9CF8F2D61960FB6F894DEBF0FBECDBFDE
:10303000DF91CF911F910F91FF90EF90DF90CF9094
:10304000BF90AF909F9008951F93CF93DF93CDB71C
:10305000DEB72C970FB6F894DEBF0FBECDBF4F83FF
:10306000588769877A878B879C87CE0107960E944D
:1030700052168823D1F09F8188852A853B85232B92
:1030800031F08F3F31F481E09F3F19F403C081E0BC
:1030900001C080E080FD47C04F81588569857A85F1
:1030A0008B859C850E94A7153EC086E0FE01379661
:1030B000DE01119601900D928A95E1F7FF81E88576
:1030C0006A857B856115710531F0EF3F31F481E050
:1030D000FF3F19F403C081E001C080E080FD23C000
:1030E00020910A0230E0C90101968770992740912A
:1030F000090250E084179507F1F1F983EA837D8393
:103100006C8396E0929FD001939FB00D1124A55F30
:10311000BD4FFE01319601900D929A95E1F7809393
:103120000A020E94B71516E08091090290910A02E6
:10313000891771F1189FC0011124855F9D4F0E946E
:103140005216882329F1E09109021E9FF0011124F3
:10315000E55FFD4F4081518162817381848195815A
:103160000E94A7158091090290E001968770992727
:1031700080930902D9CF0E946B1510920A02109217
:103180000902EBE3F2E086E0DF011D928A95E9F7A0
:103190002C960FB6F894DEBF0FBECDBFDF91CF9156
:1031A0001F910895EF92FF920F931F93CF93DF9398
:1031B0008C01892B09F46CC0F12CEE24E394E80116
:1031C0002196F8018491843740F4843008F051C08E
:1031D000813081F0823019F15BC0853709F444C039
:1031E000A8F19CE7980F903708F052C08F770E94A3
:1031F000501241C00E5F1F4FFE01849190E2980F64
:10320000983050F48770FE2D01C0FF0F8A95EAF7C1
:103210008F2F0E945D1B14C00E94A6112DC00E5F4F
:103220001F4FFE01849190E2980F983060F48770F0
:10323000FE2D01C0FF0F8A95EAF78F2F0E94631BB6
:103240000E94881B19C00E94501216C00E5F1F4FAB
:10325000FE01C491CC2381F08FE99FE00197F1F743
:1032600000C00000C150F6CF0E5F1F4FFE01F4906A
:1032700003C00E94A6118E018F2D882309F49FCFD1
:10328000EFE9FFE03197F1F700C000008150F5CF82
:10329000DF91CF911F910F91FF90EF9008950895C6
:1032A00008950C9450190C9451190E94531960936D
:1032B0007C0270937D0280937E0290937F020C9437
:1032C00051150C9455190F931F9300917C02109186
:1032D0007D0220917E0230917F02602B712B822B28
:1032E000932B1F910F910C9455190F931F930091DD
:1032F0007C0210917D0220917E0230917F0260233A
:103300007123822393231F910F910C9455190F93CE
:103310001F9300917C0210917D0220917E023091DA
:103320007F0260277127822793271F910F910C94AA
:1033300055190C9450190E94991960937802709352
:10334000790280937A0290937B020C94511560E08D
:1033500070E0CB010C949B190F931F9341E050E058
:1033600060E070E08A019B0104C0000F111F221F62
:10337000331F8A95D2F7C901B8011F910F910C94A0
:103380009B190F931F9341E050E060E070E004C090
:10339000440F551F661F771F8A95D2F780917802D8
:1033A00090917902A0917A02B0917B028A019B01EF
:1033B000082B192B2A2B3B2BC901B8011F910F9108
:1033C0000C949B190F931F9341E050E060E070E074
:1033D00004C0440F551F661F771F8A95D2F740958A
:1033E0005095609570958091780290917902A091A6
:1033F0007A02B0917B028A019B01082319232A23B8
:103400003B23C901B8011F910F910C949B190F9395
:103410001F9341E050E060E070E004C0440F551F8E
:10342000661F771F8A95D2F7809178029091790272
:10343000A0917A02B0917B028A019B01082719278B
:103440002A273B27C901B8011F910F910C949B19A2
:103450000F931F93009178021091790220917A02C4
:1034600030917B02602B712B822B932B1F910F913C
:103470000C949B190F931F9300917802109179027D
:1034800020917A0230917B0260237123822393235F
:103490001F910F910C949B190F931F930091780229
:1034A0001091790220917A0230917B026027712776
:1034B000822793271F910F910C949B1908952EE05A
:1034C000929F800D1124E82FE695E695E69587708A
:1034D00051E001C0550F8A95EAF785E0E89FF001B9
:1034E0001124EF5BFD4F20E030E070E04081CB0124
:1034F000022E02C0969587950A94E2F78170819515
:1035000084278523842781932F5F3F4F2530310502
:1035100069F708952EE0929F800D1124682F66951B
:1035200066956695982F977085E0689FB001112485
:1035300040E050E080E0FB01E40FF51FEF5BFD4F42
:10354000208130E0092E02C0369527950A94E2F7D3
:1035500021703327042E01C0220F0A94EAF7822B30
:103560004F5F5F4F4530510531F70895BF92CF92BD
:10357000DF92EF92FF920F931F93CF93DF938C0113
:10358000C0907802D0907902E0907A02F0907B02AD
:1035900080917C0290917D02A0917E02B0917F0289
:1035A000C82AD92AEA2AFB2ACFE1D0E0D701C601EE
:1035B0000C2E04C0B695A795979587950A94D2F7D7
:1035C00080FD04C0219790F7B12C07C0BC2EB80134
:1035D0008C2F0E949A080197A9F38B2DDF91CF9130
:1035E0001F910F91FF90EF90DF90CF90BF900895C3
:1035F000CF93DF93EC010E94B61ABE010E949A0895
:10360000DF91CF9108951F93CF93DF93EB019091BA
:103610000802992321F0CB010E94F81A13C08823D5
:1036200049F0CB010E94B61A182F682FCE010E94D4
:103630005F1A04C0CB010E948A1A182FBE01812F85
:103640000E949A08DF91CF911F9108958091800286
:103650008595859585950895809180028770089558
:1036600090918002977081E009F480E00895809144
:10367000A40208959091A402892B8093A402089536
:1036800080959091A40289238093A4020895809349
:10369000A40208951092A40208959091A302892B88
:1036A0008093A302089580959091A302892380932B
:1036B000A30208951092A30208959091A202892B6B
:1036C0008093A202089580959091A202892380930D
:1036D000A20208951092A202089580918102089595
:1036E00008950C94701B0C94711B90918102981793
:1036F00021F0809381020C94731B089580918102C4
:10370000882329F01092810280E00C94731B0895A5
:10371000E0910601F09107018091A4028083E0917D
:103720000601F091070190818091A302892B80838B
:10373000E0910601F091070190818091A202892B0E
:10374000808380918102882381F0E0910601F091CD
:1037500007019081892B8083809106019091070158
:103760000E94A51C81110E947E1B809106019091F0
:1037700007010C9416100C94701B98E0899F90011F
:103780001124262B209380020E94C119809180026F
:103790008595859585950C94BB1B1092800280E0E1
:1037A0000C94BB1B20918002809582238093800221
:1037B000982F977079F430E0482F082E000C550BA5
:1037C0002417350739F08595859585950E94E2196E
:1037D0000C94CD1B089580E0089580E090E00E9455
:1037E000E52621E08B3E9E4F09F020E0822F0895D0
:1037F00082E090E00C94DD26682F82E090E00C944B
:10380000EB2683E090E00C94DD26682F83E090E0C7
:103810000C94EB26CF9384E090E00E94DD26C82F25
:1038200081E290E00E94DD262C2F30E0A901582B88
:10383000CA01CF910895CF93C92F682F84E090E0FB
:103840000E94EB266C2F81E290E0CF910C94EB2646
:10385000AB01BC018FE090E00C94FD26AB01BC01F4
:1038600083E190E00C94FD2660E070E0CB010C94C5
:103870002E1C60E070E0CB010E94281C0C94341CCC
:103880006BEE7EEF80E090E00E94092760E082E02E
:1038900090E00E94EB2660E083E090E00E94EB263F
:1038A00010927C0210927D0210927E0210927F0292
:1038B00060E084E090E00E94EB2660E081E290E02E
:1038C0000E94EB2660E085E090E00E94EB2660E03D
:1038D00086E090E00E94EB266FEF87E090E00E9488
:1038E000EB2640E050E0BA0188E090E00E94FD261F
:1038F00060E08DE090E00E94EB2640E050E0BA01ED
:1039000088E190E00E94FD2660E087E190E00E945F
:10391000EB2640E050E0BA018CE190E00E94FD26E9
:1039200060E080E290E00E94EB2640E050E0BA01C7
:1039300088E190E00E94FD260C94391C0C94401CF8
:10394000682F8EE090E00C94EB26FC01329680917B
:103950001201882331F08091D30287FF02C09EE1DB
:1039600001C096E080E0915028F021912223D9F304
:103970008F5FF9CF0895662351F120911201222320
:10398000E9F02091D30227FF19C0462F46954695AE
:1039900046954E31E0F4677021E030E002C0220F1E
:1039A000331F6A95E2F7FC01E40FF11D828190E07C
:1039B0002823392381E0232B69F409C0FC013296C6
:1039C00008962191621729F0E817F907D1F780E0EE
:1039D000089581E008959C01FC0132969FEF80E0FC
:1039E0004191461789F09F3F19F4411101C0982F6A
:1039F0008F5F8630A9F79F3F39F0F901E90FF11D7C
:103A000097FDFA956283089508959C012A5F3F4FC0
:103A1000FC014281461301C012820196821793076E
:103A2000B9F70895262F2695269526952E3168F408
:103A3000FC01E20FF11D677021E030E001C0220FB0
:103A40006A95EAF78281282B22830895262F2695EE
:103A5000269526952E3170F4FC01E20FF11D67705A
:103A600021E030E001C0220F6A95EAF720958281BB
:103A700028232283089520911201222329F02091E6
:103A8000D30227FD0C94121D0C94EB1C2091120103
:103A9000222329F02091D30227FD0C94261D0C949B
:103AA000051D20911201FC013296222331F08091F4
:103AB000D30287FF02C08EE101C086E0DF011D92C4
:103AC0008A95E9F7089508950C94631DCF930E9499
:103AD000A7040E9400050E94641DC0E08C2F0E9474
:103AE000B505892B29F4CF5FC630C1F780E001C04E
:103AF00081E0CF9108950C94631D0C947B1D8091FF
:103B0000D902843049F10E947D1D80E00E94720834
:103B10001092A60220E488E190E00FB6F894A895F0
:103B2000809360000FBE2093600083B7817F846024
:103B300083BF83B7816083BF7894889583B78E7F76
:103B400083BF0FB6F894A895809160008861809338
:103B50006000109260000FBE08950C94631D0E94D7
:103B60006B150E94FD0F0E9472080C94AD1D1F92F0
:103B70000F920FB60F9211248F939F93AF93BF9321
:103B80008091A602811113C08091CF029091D00242
:103B9000A091D102B091D2024196A11DB11D809396
:103BA000CF029093D002A093D102B093D202BF91E2
:103BB000AF919F918F910F900FBE0F901F9018950E
:103BC00082E084BD93E095BD9AEF97BD80936E002F
:103BD00008952FB7F8948091CF029091D002A091D0
:103BE000D102B091D2022FBF08952FB7F8946091FF
:103BF000CF027091D0028091D1029091D2022FBF5A
:103C000008959C014FB7F8948091CF029091D00213
:103C1000A091D102B091D2024FBF821B930B0895A5
:103C200078941F920F920FB60F9211248F939F9347
:103C3000AF93BF938091CF029091D002A091D10217
:103C4000B091D2020196A11DB11D8093CF02909335
:103C5000D002A093D102B093D202BF91AF919F91B5
:103C60008F910F900FBE0F901F90189587E797E7E1
:103C700090930108809300089AE088E10FB6F894C9
:103C8000A895809360000FBE90936000FFCF909343
:103C90007701809376010895AF92BF92CF92DF9221
:103CA000EF92FF920F931F93CF93C0E0CC24C39465
:103CB000D12CE82EF12C8C2F0E94B5055C0100E080
:103CC00010E0C601002E02C0880F991F0A94E2F787
:103CD0008A219B21892B31F40F5F1F4F0E30110574
:103CE00081F70AC0602F7C2F80E00E947F08E816D1
:103CF000F90691F781E004C0CF5FC630E1F680E0BD
:103D0000CF911F910F91FF90EF90DF90CF90BF90D8
:103D1000AF900895CF93C82F8CE20E944C1E882349
:103D200021F08C2FCF910C944C1E80E0CF91089500
:103D3000CF930E94ED1B811102C00E949E1CC5E61C
:103D4000C15049F00E9400058FE39CE90197F1F70B
:103D500000C00000F5CF89E20E948A1E81112AC1AD
:103D60008AE20E948A1E81110E949E1C85E00E94A8
:103D70008A1E81110E94361E0E94F81B8093A502A4
:103D800087E00E948A1E8823A9F18BE10E948A1E87
:103D9000882351F08091A50281FB222720F991E030
:103DA000922790FB81F90EC08EE00E948A1E882324
:103DB00061F08091A50282FB222720F991E09227F1
:103DC00090FB82F98093A50215C080E10E948A1EB3
:103DD0009091A502882341F093FB222720F981E0EE
:103DE000822780FB93F904C0892F809580FB90F98E
:103DF0009093A5028091A5020E94FC1B0E940A1CC0
:103E00009093D4028093D30280EE0E948A1E88236E
:103E100041F08091D302982F909590FB80F9809388
:103E2000D30289E30E948A1E882359F08091D3022D
:103E300081FB222720F991E0922790FB81F9809362
:103E4000D30282EE0E948A1E882359F08091D30209
:103E500082FB222720F991E0922790FB82F9809340
:103E6000D30286EE0E948A1E882359F08091D302E5
:103E700083FB222720F991E0922790FB83F980931E
:103E8000D30283EE0E948A1E882359F08091D302C8
:103E900084FB222720F991E0922790FB84F98093FC
:103EA000D30285E30E948A1E882359F08091D302B1
:103EB00085FB222720F991E0922790FB85F98093DA
:103EC000D30281E30E948A1E882359F08091D30295
:103ED00086FB222720F991E0922790FB86F98093B8
:103EE000D30281E10E948A1E882359F08091D30277
:103EF00087FB222720F991E0922790FB87F9809396
:103F0000D3028091D3029091D4020E941B1C87E2BD
:103F10000E948A1EC82F8EE10E948A1E8111C260F3
:103F20008FE10E948A1E8111C46080E20E948A1E75
:103F30008111C86081E20E948A1E8111C06182E203
:103F40000E948A1E8111C06283E20E948A1E811132
:103F5000C06484E20E948A1E882311F0C06802C0F7
:103F6000CC2329F08C2F0E94051C6C2F03C00E94CB
:103F7000011C682F70E080E090E00E946119609160
:103F800078027091790280917A0290917B020E946E
:103F900099198FE00E948A1E882319F081E00E94FF
:103FA000A01C85E10E948A1E882321F080E0CF9129
:103FB0000C94A01CCF9108958091C7020895CF93CF
:103FC000DF9300D01F92CDB7DEB79091D902943025
:103FD00019F589837B836A8382E08093E9008FEF00
:103FE0009091E800815095FD06C095ED9A95F1F706
:103FF00000008111F5CF8091E80085FF0DC040E001
:1040000050E063E070E0CE0101960E9411228091A1
:10401000E8008E778093E8000F900F900F90DF916B
:10402000CF910895BC0184E00C94DF1FBC0183E0B4
:104030000C94DF1F22E02093E9002FEF3091E8007D
:10404000215035FD06C035ED3A95F1F700002111FC
:10405000F5CF2091E80025FF0BC040E050E066E07E
:1040600070E00E9411228091E8008E778093E80032
:104070000895CF93DF9320911201222339F02091EC
:10408000D30227FF03C060E222E002C068E021E023
:104090002093E9002FEF3091E800215035FD06C054
:1040A00035ED3A95F1F700002111F5CF2091E800A8
:1040B00025FF1DC0EC0180911201811105C040E077
:1040C00050E068E070E003C070E040E050E0CE01F6
:1040D0000E9411228091E8008E778093E80080E2B0
:1040E000FE01A7EAB2E001900D928A95E1F7DF9117
:1040F000CF9108958091D802811109C00E94A22316
:104100000E94FF238091E20084608093E200089582
:104110001092D802089508950895089542E061EC40
:1041200081E00E941B2342E261EC82E00C941B239D
:104130008091DB02833009F460C030F4813071F08B
:10414000823009F499C008958A3009F485C08B3013
:1041500009F46BC0893009F0A7C020C08091DA0251
:10416000813A09F0A1C08091E800877F8093E80040
:104170008091DE029091DF02892B21F460E287EAD0
:1041800092E003C060E080E090E070E00E945C227A
:104190008091E8008B778093E80008958091DA029F
:1041A000813209F081C08091DE029091DF02029796
:1041B00008F07AC08091E800877F8093E8008091C2
:1041C000E80082FD05C08091D9028111F8CF6CC052
:1041D0002091F3008091F20090E0922B029729F455
:1041E0008091F1008B7F813021F48091F1008093E8
:1041F000C7028091E8008B7753C08091DA02813A40
:1042000009F052C08091DE029091DF02892B09F003
:104210004BC08091E800877F8093E8008091E800A0
:1042200080FFFCCF8091120136C08091DA0281328A
:10423000D9F58091DE029091DF02892BA9F580915A
:10424000E800877F8093E8000E9450238091DC0281
:10425000809312010C946B158091DA02813221F562
:104260008091E800877F8093E8000E94502380912E
:10427000DD028093C80208958091DA02813AA1F4A8
:104280008091E800877F8093E8008091E80080FFBC
:10429000FCCF8091C8028093F1008091E8008E7776
:1042A0008093E8000C945023089584B7877F84BFDF
:1042B0000FB6F894A89580916000886180936000A3
:1042C000109260000FBE90E080E80FB6F8948093E3
:1042D0006100909361000FBE0E9495100E94A2237E
:1042E0000E94FF238091E20084608093E200789432
:1042F0000E9494260E949F1088E091E00E94F80F8F
:104300008091D9028530A9F48091D902853079F461
:104310000E947F1D8091D7028823B1F30E94661D01
:10432000882391F30E94FB210E946B15EDCF0E9420
:10433000AF1D0E94B2100E9489100E948810E0CF29
:104340000C94A221292F332723303105C9F060F4C2
:104350002130310581F02230310509F044C08BE372
:1043600090E020E736E043C021323105E1F022320F
:10437000310549F138C082E190E02BEA36E037C0E0
:1043800099278130910549F028F0029761F5E4E41E
:10439000F6E005C0ECE6F6E002C0E8E5F6E0849160
:1043A00090E09F0124C06115710541F061307105F5
:1043B000D1F489E090E02BE936E019C089E090E083
:1043C00022E836E014C06115710541F061307105D5
:1043D00051F486EB90E02DEB36E009C080E490E0EC
:1043E00023E737E004C080E090E020E030E0FA010D
:1043F00031832083089580E189BD82E189BD09B4BC
:1044000000FEFDCF8091D8008F7D8093D8008091F1
:10441000E00082608093E0008091E00081FDFCCFAD
:104420000895CF92DF92EF92FF920F931F93CF9355
:10443000DF93EC018B017A010E946F23811133C05D
:10444000E114F10439F0F70180819181081B190B07
:10445000C80FD91FC12CD12C0115110519F180915C
:10446000E80085FD16C08091E8008E778093E80013
:10447000E114F10449F0F70180819181C80ED91E41
:10448000D182C08285E00FC00E946F23882321F370
:104490000AC089918093F10001501109FFEFCF1AF2
:1044A000DF0ADACF80E0DF91CF911F910F91FF906B
:1044B000EF90DF90CF9008952091E0023091E102DB
:1044C0002617370748F06115710539F42091E80087
:1044D0002E772093E80001C0B901FC0120E06115AE
:1044E000710579F18091D9028823F1F18530F1F1DC
:1044F0008091E80083FD3CC08091E80082FD2EC0E1
:104500008091E80080FFEBCF2091F3008091F200D2
:1045100090E0922B6115710551F08830910538F4C7
:1045200021912093F100615071090196F3CF21E0B0
:10453000089709F020E08091E8008E778093E800EA
:10454000CECF2111CFCF0AC08091D902882361F04C
:10455000853061F08091E80083FD0AC08091E80019
:1045600082FFF2CF80E0089582E0089583E008950D
:1045700081E008952091E0023091E102261737078B
:1045800048F06115710539F42091E8002E772093E9
:10459000E80001C0B901FC0120E06115710591F14D
:1045A0008091D902882309F440C0853009F43FC0C6
:1045B0008091E80083FD3DC08091E80082FD2FC01E
:1045C0008091E80080FFE9CF2091F3008091F20014
:1045D00090E0922B6115710559F08830910540F4F7
:1045E00024912093F1003196615071090196F2CF28
:1045F00021E0089709F020E08091E8008E77809311
:10460000E800CBCF2111CCCF0AC08091D9028823FA
:1046100061F0853061F08091E80083FD0AC08091EF
:10462000E80082FFF2CF80E0089582E0089583E001
:10463000089581E00895982F973068F59093E900E8
:10464000981739F07091EC002091ED005091F00036
:1046500003C0242F762F50E021FD02C09F5FECCFD6
:104660003091EB003E7F3093EB003091ED003D7FC9
:104670003093ED003091EB0031603093EB0070939C
:10468000EC002093ED005093F0002091EE0027FD08
:10469000E5CF80E008958F708093E90081E0089570
:1046A0008091DA0287FF11C08091E80082FD05C089
:1046B0008091D9028111F8CF11C08091E8008B77E9
:1046C0000BC08091D902882349F08091E80080FFD7
:1046D000F8CF8091E8008E778093E80008952091CC
:1046E000E4003091E50095E64091EC00842F817064
:1046F00040FF23C08091E80080FD1DC08091D90259
:10470000882399F0853099F08091EB0085FD11C0E8
:104710004091E4005091E5002417350729F39150AA
:1047200011F09A01E1CF84E0089582E0089583E0DA
:10473000089581E0089580E008954091E80042FFE7
:10474000DDCF08950E9410240E941824E0EEF0E0CE
:10475000808181608083E8EDF0E080818F778083C5
:1047600019BCA7EDB0E08C918E7F8C9380818F7EF9
:1047700080831092D80208950F931F93CF93DF93F5
:104780000E9410240E941824C8EDD0E088818F7701
:10479000888388818068888388818F7D888319BC1D
:1047A0001092D9021092D5021092D7021092D6021E
:1047B00000EE10E0F80180818B7F8083888181602A
:1047C000888342E060E080E00E941B23E1EEF0E09D
:1047D00080818E7F8083E2EEF0E080818160808343
:1047E000808188608083F80180818E7F80838881CA
:1047F00080618883DF91CF911F910F910895E8ED3B
:10480000F0E080818F7E8083E7EDF0E08081816041
:10481000808384E082BF81E08093D8020C94BC2323
:10482000E8EDF0E080818E7F80831092E2000895B1
:104830001092DA001092E10008951F920F920FB6C5
:104840000F9211242F933F934F935F936F937F9316
:104850008F939F93AF93BF93EF93FF938091E1006A
:1048600082FF0BC08091E20082FF07C08091E100CF
:104870008B7F8093E1000E9493268091DA0080FF75
:104880001FC08091D80080FF1BC08091DA008E7F0E
:104890008093DA008091D90080FF0DC080E189BD4E
:1048A00082E189BD09B400FEFDCF81E08093D90289
:1048B0000E947A2005C019BC1092D9020E9488205B
:1048C0008091E10080FF19C08091E20080FF15C057
:1048D0008091E2008E7F8093E2008091E20080610F
:1048E0008093E2008091D80080628093D80019BC48
:1048F00085E08093D9020E948C208091E10084FFA2
:1049000030C08091E20084FF2CC080E189BD82E14B
:1049100089BD09B400FEFDCF8091D8008F7D8093C2
:10492000D8008091E1008F7E8093E1008091E200C9
:104930008F7E8093E2008091E20081608093E200AC
:104940008091D502882311F084E007C08091E300B4
:1049500087FD02C081E001C083E08093D9020E94FC
:104960008D208091E10083FF29C08091E20083FFC8
:1049700025C08091E100877F8093E10082E08093F1
:10498000D9021092D5028091E1008E7F8093E100E0
:104990008091E2008E7F8093E2008091E20080614E
:1049A0008093E20042E060E080E00E941B2380915F
:1049B000F00088608093F0000E948B20FF91EF91BF
:1049C000BF91AF919F918F917F916F915F914F9127
:1049D0003F912F910F900FBE0F901F9018951F922F
:1049E0000F920FB60F9211242F933F934F935F9323
:1049F0006F937F938F939F93AF93BF93CF93DF93E7
:104A0000EF93FF93C091E900CF708091EC00D82F15
:104A1000D17080FDD0E81092E9008091F000877F8E
:104A20008093F00078940E9433251092E9008091E1
:104A3000F00088608093F000CD2BCF70C093E90028
:104A4000FF91EF91DF91CF91BF91AF919F918F91A6
:104A50007F916F915F914F913F912F910F900FBE7A
:104A60000F901F9018951F93CF93DF93CDB7DEB7AC
:104A7000AA970FB6F894DEBF0FBECDBFEAEDF2E005
:104A80008091F100819322E0E23EF207C9F70E9493
:104A900098208091E80083FF2EC18091DA029091E6
:104AA000DB02492F50E04A30510508F024C1FA01D9
:104AB000EC58FF4F0C94C326803821F0823809F05F
:104AC0001AC108C08091D6029091D702992389F02B
:104AD00082600FC08091DE028F70873008F00BC1BA
:104AE0008093E9008091EB0085FB882780F9109284
:104AF000E9009091E800977F9093E8008093F1009F
:104B00001092F100D1C0282F2D7F09F0F4C0882326
:104B100019F0823061F0EFC08091DC02813009F041
:104B2000EAC0933009F080E08093D7022EC08091D4
:104B3000DC0281112AC08091DE028F702FEF280FD6
:104B4000263008F0D8C08093E9002091EB0020FFC8
:104B50001CC0933021F48091EB00806214C09091CE
:104B6000EB0090619093EB0021E030E0A90102C0DE
:104B7000440F551F8A95E2F74093EA001092EA002D
:104B80008091EB0088608093EB001092E9008091A7
:104B9000E800877F8093E8000E945023ACC0811119
:104BA000AAC01091DC021F778091E3008078812BEE
:104BB0008093E3008091E800877F8093E8000E9463
:104BC00050238091E80080FFFCCF8091E300806853
:104BD0008093E300111102C082E001C083E0809362
:104BE000D90289C08058823008F085C08091DC02EB
:104BF0009091DD028C3D53E0950779F583E08A833F
:104C00008AE289834FB7F894DE01139620E03EE0F4
:104C100051E2E32FF0E050935700E49120FF03C0EE
:104C2000E295EF703F5FEF708E2F90E0EA3010F06A
:104C3000C79601C0C0968D939D932F5F243149F78D
:104C40004FBF8091E800877F8093E8006AE270E0C0
:104C5000CE0101960E945C2216C06091DE02709126
:104C6000DF02AE014F5F5F4F0E94A021BC01892B84
:104C700009F441C09091E800977F9093E800898102
:104C80009A810E94BA228091E8008B778093E80095
:104C900032C0803881F58091E800877F8093E800FA
:104CA0008091D5028093F1008091E8008E7772CFD9
:104CB000811121C08091DC029091DD029927029739
:104CC000D4F48091E800877F8093E8008091DC0233
:104CD0008093D5020E9450238091D502811106C095
:104CE0008091E30087FD02C081E001C084E08093F1
:104CF000D9020E948E208091E80083FF0AC0809133
:104D0000E800877F8093E8008091EB0080628093C9
:104D1000EB00AA960FB6F894DEBF0FBECDBFDF91B1
:104D2000CF911F9108950895CF938091D902882340
:104D3000A1F0C091E900CF709091EC00892F8170B3
:104D400090FD80E8C82B1092E9008091E80083FD77
:104D50000E943325CF70C093E900CF91089597FB4F
:104D6000072E16F4009407D077FD09D00E94C926BB
:104D700007FC05D03EF4909581959F4F089570955E
:104D800061957F4F0895EE0FFF1F0590F491E02D80
:104D90000994AA1BBB1B51E107C0AA1FBB1FA61782
:104DA000B70710F0A61BB70B881F991F5A95A9F7D4
:104DB00080959095BC01CD010895F999FECF92BDE3
:104DC00081BDF89A992780B50895A8E1B0E042E046
:104DD00050E00C941127262FF999FECF92BD81BD8A
:104DE000F89A019700B4021639F01FBA20BD0FB629
:104DF000F894FA9AF99A0FBE08950396272F0E9405
:104E0000EC260E94EB26252F0E94EC26242F0C94E2
:104E1000EC260196272F0E94EC260C94EB26DC0151
:104E2000CB01FC01F999FECF06C0F2BDE1BDF89AB5
:104E3000319600B40D9241505040B8F70895F8945F
:024E4000FFCFA2
:104E42002808643C07148202DC1F39201A2016202D
:104E5200122001E200E900EA00B500B600B700CD79
:104E6200008301CC008A01920194012102230224D1
:104E7200022502260227022A02B300B4006F007044
:104E820000818283E200E900EA00B500B600B700C3
:104E9200CD008301CC008A019201940121022302F8
:104EA20024022502260227022A02B300B4006F0060
:064EB20070008182830004
:00000001FF
